{
  "contractName": "AccessController",
  "abi": [
    {
      "anonymous": false,
      "inputs": [
        {
          "indexed": false,
          "internalType": "address",
          "name": "newContract",
          "type": "address"
        }
      ],
      "name": "ContractUpgrade",
      "type": "event"
    },
    {
      "anonymous": false,
      "inputs": [
        {
          "indexed": false,
          "internalType": "string",
          "name": "enterpriseId",
          "type": "string"
        }
      ],
      "name": "EnterpriseDelete",
      "type": "event"
    },
    {
      "anonymous": false,
      "inputs": [
        {
          "indexed": false,
          "internalType": "string",
          "name": "enterpriseName",
          "type": "string"
        },
        {
          "indexed": false,
          "internalType": "string",
          "name": "enterpriseId",
          "type": "string"
        },
        {
          "indexed": false,
          "internalType": "address",
          "name": "enterpriseAddress",
          "type": "address"
        }
      ],
      "name": "EnterpriseEvent",
      "type": "event"
    },
    {
      "anonymous": false,
      "inputs": [
        {
          "indexed": false,
          "internalType": "string",
          "name": "enterpriseId",
          "type": "string"
        },
        {
          "indexed": false,
          "internalType": "string",
          "name": "enterpriseName",
          "type": "string"
        },
        {
          "indexed": false,
          "internalType": "address",
          "name": "enterpriseAddress",
          "type": "address"
        }
      ],
      "name": "EnterpriseUpdated",
      "type": "event"
    },
    {
      "anonymous": false,
      "inputs": [
        {
          "indexed": false,
          "internalType": "string",
          "name": "storeName",
          "type": "string"
        },
        {
          "indexed": false,
          "internalType": "string",
          "name": "storeId",
          "type": "string"
        },
        {
          "indexed": false,
          "internalType": "address",
          "name": "storeAddress",
          "type": "address"
        }
      ],
      "name": "StoreEvent",
      "type": "event"
    },
    {
      "inputs": [],
      "name": "adminAddress",
      "outputs": [
        {
          "internalType": "address",
          "name": "",
          "type": "address"
        }
      ],
      "stateMutability": "view",
      "type": "function"
    },
    {
      "inputs": [
        {
          "internalType": "uint256",
          "name": "",
          "type": "uint256"
        }
      ],
      "name": "enterpriseAddress",
      "outputs": [
        {
          "internalType": "address",
          "name": "",
          "type": "address"
        }
      ],
      "stateMutability": "view",
      "type": "function"
    },
    {
      "inputs": [
        {
          "internalType": "uint256",
          "name": "",
          "type": "uint256"
        }
      ],
      "name": "enterprises",
      "outputs": [
        {
          "internalType": "string",
          "name": "enterpriseName",
          "type": "string"
        },
        {
          "internalType": "string",
          "name": "enterpriseId",
          "type": "string"
        },
        {
          "internalType": "address",
          "name": "enterpriseAddress",
          "type": "address"
        }
      ],
      "stateMutability": "view",
      "type": "function"
    },
    {
      "inputs": [],
      "name": "feeAddress",
      "outputs": [
        {
          "internalType": "address",
          "name": "",
          "type": "address"
        }
      ],
      "stateMutability": "view",
      "type": "function"
    },
    {
      "inputs": [
        {
          "internalType": "uint256",
          "name": "",
          "type": "uint256"
        }
      ],
      "name": "storeAddress",
      "outputs": [
        {
          "internalType": "address",
          "name": "",
          "type": "address"
        }
      ],
      "stateMutability": "view",
      "type": "function"
    },
    {
      "inputs": [
        {
          "internalType": "uint256",
          "name": "",
          "type": "uint256"
        }
      ],
      "name": "stores",
      "outputs": [
        {
          "internalType": "string",
          "name": "storeName",
          "type": "string"
        },
        {
          "internalType": "string",
          "name": "storeId",
          "type": "string"
        },
        {
          "internalType": "address",
          "name": "storeAddress",
          "type": "address"
        }
      ],
      "stateMutability": "view",
      "type": "function"
    },
    {
      "inputs": [],
      "name": "totalEnterprises",
      "outputs": [
        {
          "internalType": "uint256",
          "name": "",
          "type": "uint256"
        }
      ],
      "stateMutability": "view",
      "type": "function"
    },
    {
      "inputs": [],
      "name": "totalStores",
      "outputs": [
        {
          "internalType": "uint256",
          "name": "",
          "type": "uint256"
        }
      ],
      "stateMutability": "view",
      "type": "function"
    },
    {
      "inputs": [
        {
          "internalType": "string",
          "name": "_newStoreName",
          "type": "string"
        },
        {
          "internalType": "string",
          "name": "_newStoreId",
          "type": "string"
        },
        {
          "internalType": "address",
          "name": "_newStoreAddress",
          "type": "address"
        }
      ],
      "name": "appendStore",
      "outputs": [
        {
          "internalType": "uint256",
          "name": "totalStores",
          "type": "uint256"
        }
      ],
      "stateMutability": "nonpayable",
      "type": "function"
    },
    {
      "inputs": [
        {
          "internalType": "string",
          "name": "_newEnterpriseName",
          "type": "string"
        },
        {
          "internalType": "string",
          "name": "_newEnterpriseId",
          "type": "string"
        },
        {
          "internalType": "address",
          "name": "_newEnterpriseAddress",
          "type": "address"
        }
      ],
      "name": "appendEnterprise",
      "outputs": [
        {
          "internalType": "uint256",
          "name": "totalEnterprises",
          "type": "uint256"
        }
      ],
      "stateMutability": "nonpayable",
      "type": "function"
    },
    {
      "inputs": [
        {
          "internalType": "string",
          "name": "_enterpriseId",
          "type": "string"
        },
        {
          "internalType": "string",
          "name": "_newEnterpriseName",
          "type": "string"
        },
        {
          "internalType": "address",
          "name": "_newEnterpriseAddress",
          "type": "address"
        }
      ],
      "name": "updateEnterprise",
      "outputs": [
        {
          "internalType": "bool",
          "name": "success",
          "type": "bool"
        }
      ],
      "stateMutability": "nonpayable",
      "type": "function"
    },
    {
      "inputs": [
        {
          "internalType": "string",
          "name": "_enterpriseId",
          "type": "string"
        }
      ],
      "name": "deleteEnterprise",
      "outputs": [
        {
          "internalType": "bool",
          "name": "success",
          "type": "bool"
        }
      ],
      "stateMutability": "nonpayable",
      "type": "function"
    },
    {
      "inputs": [
        {
          "internalType": "address",
          "name": "_newAdmin",
          "type": "address"
        }
      ],
      "name": "setAdmin",
      "outputs": [],
      "stateMutability": "nonpayable",
      "type": "function"
    }
  ],
  "bytecode": "0x608060405234801561001057600080fd5b506116a0806100206000396000f3fe608060405234801561001057600080fd5b50600436106100cf5760003560e01c8063704b6c021161008c578063acd8799d11610066578063acd8799d1461023c578063e8a59cd81461026c578063fa9188d11461029e578063fc6f9468146102ce576100cf565b8063704b6c02146101be5780639fbae286146101da578063a221f3b21461020c576100cf565b80631318f45b146100d457806315f063f7146101045780631c9baf65146101225780632eb62461146101525780634127535814610170578063547c07f71461018e575b600080fd5b6100ee60048036038101906100e99190611313565b6102ec565b6040516100fb9190611484565b60405180910390f35b61010c61050e565b6040516101199190611506565b60405180910390f35b61013c600480360381019061013791906112d2565b610514565b6040516101499190611484565b60405180910390f35b61015a610812565b6040516101679190611506565b60405180910390f35b610178610818565b6040516101859190611469565b60405180910390f35b6101a860048036038101906101a39190611392565b61083e565b6040516101b59190611469565b60405180910390f35b6101d860048036038101906101d391906112a9565b61087a565b005b6101f460048036038101906101ef9190611392565b6108f7565b604051610203939291906114c1565b60405180910390f35b61022660048036038101906102219190611392565b610a7e565b6040516102339190611469565b60405180910390f35b61025660048036038101906102519190611313565b610aba565b6040516102639190611506565b60405180910390f35b61028660048036038101906102819190611392565b610c7f565b604051610295939291906114c1565b60405180910390f35b6102b860048036038101906102b39190611313565b610e06565b6040516102c59190611506565b60405180910390f35b6102d6610fcb565b6040516102e39190611469565b60405180910390f35b60008060009054906101000a900473ffffffffffffffffffffffffffffffffffffffff1673ffffffffffffffffffffffffffffffffffffffff163373ffffffffffffffffffffffffffffffffffffffff161461034757600080fd5b60008090505b6005805490508110156105015761041a6005828154811061036a57fe5b90600052602060002090600302016001018054600181600116156101000203166002900480601f01602080910402602001604051908101604052809291908181526020018280546001816001161561010002031660029004801561040f5780601f106103e45761010080835404028352916020019161040f565b820191906000526020600020905b8154815290600101906020018083116103f257829003601f168201915b505050505086610ff0565b156104f457826005828154811061042d57fe5b906000526020600020906003020160020160006101000a81548173ffffffffffffffffffffffffffffffffffffffff021916908373ffffffffffffffffffffffffffffffffffffffff160217905550836005828154811061048a57fe5b906000526020600020906003020160000190805190602001906104ae929190611049565b507fe23e51bb20727e88bdefb30c89c017b3805dde81efc2e2073953eb78e58ea0418585856040516104e2939291906114c1565b60405180910390a16001915050610507565b808060010191505061034d565b50600090505b9392505050565b60065481565b60008060009054906101000a900473ffffffffffffffffffffffffffffffffffffffff1673ffffffffffffffffffffffffffffffffffffffff163373ffffffffffffffffffffffffffffffffffffffff161461056f57600080fd5b60008090505b600580549050811015610807576106426005828154811061059257fe5b90600052602060002090600302016001018054600181600116156101000203166002900480601f0160208091040260200160405190810160405280929190818152602001828054600181600116156101000203166002900480156106375780601f1061060c57610100808354040283529160200191610637565b820191906000526020600020905b81548152906001019060200180831161061a57829003601f168201915b505050505084610ff0565b156107fa5760056001600754038154811061065957fe5b90600052602060002090600302016005828154811061067457fe5b9060005260206000209060030201600082018160000190805460018160011615610100020316600290046106a99291906110c9565b50600182018160010190805460018160011615610100020316600290046106d19291906110c9565b506002820160009054906101000a900473ffffffffffffffffffffffffffffffffffffffff168160020160006101000a81548173ffffffffffffffffffffffffffffffffffffffff021916908373ffffffffffffffffffffffffffffffffffffffff16021790555090505060056001600754038154811061074e57fe5b90600052602060002090600302016000808201600061076d9190611150565b60018201600061077d9190611150565b6002820160006101000a81549073ffffffffffffffffffffffffffffffffffffffff02191690555050600760008154809291906001900391905055507fb478ce3e3e5faf29ee108d51b58b8b76e87b8d3de5b008ea32992b9dd7fdaf8d836040516107e8919061149f565b60405180910390a1600191505061080d565b8080600101915050610575565b50600090505b919050565b60075481565b600160009054906101000a900473ffffffffffffffffffffffffffffffffffffffff1681565b6003818154811061084b57fe5b906000526020600020016000915054906101000a900473ffffffffffffffffffffffffffffffffffffffff1681565b600073ffffffffffffffffffffffffffffffffffffffff168173ffffffffffffffffffffffffffffffffffffffff1614156108b457600080fd5b806000806101000a81548173ffffffffffffffffffffffffffffffffffffffff021916908373ffffffffffffffffffffffffffffffffffffffff16021790555050565b6005818154811061090457fe5b9060005260206000209060030201600091509050806000018054600181600116156101000203166002900480601f0160208091040260200160405190810160405280929190818152602001828054600181600116156101000203166002900480156109b05780601f10610985576101008083540402835291602001916109b0565b820191906000526020600020905b81548152906001019060200180831161099357829003601f168201915b505050505090806001018054600181600116156101000203166002900480601f016020809104026020016040519081016040528092919081815260200182805460018160011615610100020316600290048015610a4e5780601f10610a2357610100808354040283529160200191610a4e565b820191906000526020600020905b815481529060010190602001808311610a3157829003601f168201915b5050505050908060020160009054906101000a900473ffffffffffffffffffffffffffffffffffffffff16905083565b60028181548110610a8b57fe5b906000526020600020016000915054906101000a900473ffffffffffffffffffffffffffffffffffffffff1681565b60008060009054906101000a900473ffffffffffffffffffffffffffffffffffffffff1673ffffffffffffffffffffffffffffffffffffffff163373ffffffffffffffffffffffffffffffffffffffff1614610b1557600080fd5b600073ffffffffffffffffffffffffffffffffffffffff168273ffffffffffffffffffffffffffffffffffffffff161415610b4f57600080fd5b610b57611198565b60405180606001604052808681526020018581526020018473ffffffffffffffffffffffffffffffffffffffff16815250905060058190806001815401808255809150506001900390600052602060002090600302016000909190919091506000820151816000019080519060200190610bd2929190611049565b506020820151816001019080519060200190610bef929190611049565b5060408201518160020160006101000a81548173ffffffffffffffffffffffffffffffffffffffff021916908373ffffffffffffffffffffffffffffffffffffffff16021790555050507f76e630c36dc7ee889d3627230758dd10de8b99036cdf45c645c38716ce9535df858585604051610c6c939291906114c1565b60405180910390a1819150509392505050565b60048181548110610c8c57fe5b9060005260206000209060030201600091509050806000018054600181600116156101000203166002900480601f016020809104026020016040519081016040528092919081815260200182805460018160011615610100020316600290048015610d385780601f10610d0d57610100808354040283529160200191610d38565b820191906000526020600020905b815481529060010190602001808311610d1b57829003601f168201915b505050505090806001018054600181600116156101000203166002900480601f016020809104026020016040519081016040528092919081815260200182805460018160011615610100020316600290048015610dd65780601f10610dab57610100808354040283529160200191610dd6565b820191906000526020600020905b815481529060010190602001808311610db957829003601f168201915b5050505050908060020160009054906101000a900473ffffffffffffffffffffffffffffffffffffffff16905083565b60008060009054906101000a900473ffffffffffffffffffffffffffffffffffffffff1673ffffffffffffffffffffffffffffffffffffffff163373ffffffffffffffffffffffffffffffffffffffff1614610e6157600080fd5b600073ffffffffffffffffffffffffffffffffffffffff168273ffffffffffffffffffffffffffffffffffffffff161415610e9b57600080fd5b610ea36111cf565b60405180606001604052808681526020018581526020018473ffffffffffffffffffffffffffffffffffffffff16815250905060048190806001815401808255809150506001900390600052602060002090600302016000909190919091506000820151816000019080519060200190610f1e929190611049565b506020820151816001019080519060200190610f3b929190611049565b5060408201518160020160006101000a81548173ffffffffffffffffffffffffffffffffffffffff021916908373ffffffffffffffffffffffffffffffffffffffff16021790555050507f6fbd3a99554a60b36b9b2f038f9b80d8d37e9b32806986f43896911e1947bf10858585604051610fb8939291906114c1565b60405180910390a1819150509392505050565b6000809054906101000a900473ffffffffffffffffffffffffffffffffffffffff1681565b6000816040516020016110039190611452565b604051602081830303815290604052805190602001208360405160200161102a9190611452565b6040516020818303038152906040528051906020012014905092915050565b828054600181600116156101000203166002900490600052602060002090601f016020900481019282601f1061108a57805160ff19168380011785556110b8565b828001600101855582156110b8579182015b828111156110b757825182559160200191906001019061109c565b5b5090506110c59190611206565b5090565b828054600181600116156101000203166002900490600052602060002090601f016020900481019282601f10611102578054855561113f565b8280016001018555821561113f57600052602060002091601f016020900482015b8281111561113e578254825591600101919060010190611123565b5b50905061114c9190611206565b5090565b50805460018160011615610100020316600290046000825580601f106111765750611195565b601f0160209004906000526020600020908101906111949190611206565b5b50565b60405180606001604052806060815260200160608152602001600073ffffffffffffffffffffffffffffffffffffffff1681525090565b60405180606001604052806060815260200160608152602001600073ffffffffffffffffffffffffffffffffffffffff1681525090565b61122891905b8082111561122457600081600090555060010161120c565b5090565b90565b60008135905061123a8161163c565b92915050565b600082601f83011261125157600080fd5b813561126461125f8261154e565b611521565b9150808252602083016020830185838301111561128057600080fd5b61128b8382846115e9565b50505092915050565b6000813590506112a381611653565b92915050565b6000602082840312156112bb57600080fd5b60006112c98482850161122b565b91505092915050565b6000602082840312156112e457600080fd5b600082013567ffffffffffffffff8111156112fe57600080fd5b61130a84828501611240565b91505092915050565b60008060006060848603121561132857600080fd5b600084013567ffffffffffffffff81111561134257600080fd5b61134e86828701611240565b935050602084013567ffffffffffffffff81111561136b57600080fd5b61137786828701611240565b92505060406113888682870161122b565b9150509250925092565b6000602082840312156113a457600080fd5b60006113b284828501611294565b91505092915050565b6113c4816115a1565b82525050565b6113d3816115b3565b82525050565b60006113e48261157a565b6113ee8185611585565b93506113fe8185602086016115f8565b6114078161162b565b840191505092915050565b600061141d8261157a565b6114278185611596565b93506114378185602086016115f8565b80840191505092915050565b61144c816115df565b82525050565b600061145e8284611412565b915081905092915050565b600060208201905061147e60008301846113bb565b92915050565b600060208201905061149960008301846113ca565b92915050565b600060208201905081810360008301526114b981846113d9565b905092915050565b600060608201905081810360008301526114db81866113d9565b905081810360208301526114ef81856113d9565b90506114fe60408301846113bb565b949350505050565b600060208201905061151b6000830184611443565b92915050565b6000604051905081810181811067ffffffffffffffff8211171561154457600080fd5b8060405250919050565b600067ffffffffffffffff82111561156557600080fd5b601f19601f8301169050602081019050919050565b600081519050919050565b600082825260208201905092915050565b600081905092915050565b60006115ac826115bf565b9050919050565b60008115159050919050565b600073ffffffffffffffffffffffffffffffffffffffff82169050919050565b6000819050919050565b82818337600083830152505050565b60005b838110156116165780820151818401526020810190506115fb565b83811115611625576000848401525b50505050565b6000601f19601f8301169050919050565b611645816115a1565b811461165057600080fd5b50565b61165c816115df565b811461166757600080fd5b5056fea2646970667358221220cc7c9200ace43a313ce9fc4abe33b7b3e07aab0b5a633dfd2831146c7de0b22464736f6c634300060a0033",
  "immutableReferences": {},
  "source": "// SPDX-License-Identifier: MIT\npragma solidity ^0.6.10;\npragma experimental ABIEncoderV2;\n\ncontract AccessController {\n\n    /// @dev Emited when contract is upgraded - See README.md for updgrade plan\n    event ContractUpgrade(address newContract);\n    // The addresses of the accounts (or contracts) that can execute actions within each roles.\n    address public adminAddress;\n    address public feeAddress;\n    address[] public storeAddress;\n    address[] public enterpriseAddress;\n    \n    event StoreEvent(string storeName , string storeId, address storeAddress);\n    event EnterpriseEvent(string enterpriseName , string enterpriseId, address enterpriseAddress);\n    event EnterpriseUpdated(string enterpriseId , string enterpriseName,address enterpriseAddress);\n    event EnterpriseDelete(string enterpriseId);\n    \n    struct store{\n      string storeName;\n      string storeId;\n      address storeAddress;\n    }\n    \n    struct enterprise{\n      string enterpriseName;\n      string enterpriseId;\n      address enterpriseAddress;\n    }\n    \n   store[] public stores; \n   enterprise[] public enterprises;\n   \n\n   uint256 public totalStores;\n   uint256 public totalEnterprises;\n   \n   \n    function appendStore(string memory _newStoreName, string memory _newStoreId ,address _newStoreAddress) onlyAdmin external returns ( uint256 totalStores) {\n        require(_newStoreAddress != address(0));\n        store memory newStore = store(_newStoreName , _newStoreId, _newStoreAddress);\n        stores.push(newStore);\n        //emit event\n        emit StoreEvent (_newStoreName, _newStoreId, _newStoreAddress);\n        return totalStores;\n    }\n    \n    function appendEnterprise (string memory _newEnterpriseName, string memory _newEnterpriseId ,address  _newEnterpriseAddress ) onlyAdmin external returns ( uint256 totalEnterprises) {\n        require(_newEnterpriseAddress != address(0));\n        enterprise memory newEnterprise = enterprise(_newEnterpriseName , _newEnterpriseId, _newEnterpriseAddress);\n        enterprises.push(newEnterprise);\n        //emit event\n        emit EnterpriseEvent (_newEnterpriseName, _newEnterpriseId, _newEnterpriseAddress);\n        return totalEnterprises;\n    }\n    \n    function updateEnterprise(string memory _enterpriseId, string memory _newEnterpriseName ,address  _newEnterpriseAddress ) onlyAdmin external returns (bool success){\n       //This has a problem we need loop\n       for(uint256 i =0; i< enterprises.length; i++){\n           if(compareStrings(enterprises[i].enterpriseId , _enterpriseId)){\n              enterprises[i].enterpriseAddress = _newEnterpriseAddress;\n              enterprises[i].enterpriseName = _newEnterpriseName;\n              emit EnterpriseUpdated(_enterpriseId,_newEnterpriseName,_newEnterpriseAddress);\n              return true;\n           }\n       }\n       return false;\n    }\n    \n    \n     function deleteEnterprise(string memory _enterpriseId) onlyAdmin external returns(bool success){\n        for(uint256 i =0; i< enterprises.length; i++){\n           if(compareStrings(enterprises[i].enterpriseId , _enterpriseId)){\n              enterprises[i] = enterprises[totalEnterprises-1]; // pushing last into current arrray index which we gonna delete\n              delete enterprises[totalEnterprises-1]; // now deleteing last index\n              totalEnterprises--; //total count decrease\n              // enterprises.length--; // array length decrease\n              //emit event\n              emit EnterpriseDelete(_enterpriseId);\n              return true;\n           }\n       }\n       return false;\n   }\n   \n    \n    \n    function compareStrings (string memory a, string memory b) internal pure returns (bool){\n       return keccak256(abi.encodePacked(a)) == keccak256(abi.encodePacked(b));\n    }\n   \n   \n    function setAdmin(address _newAdmin) external {\n        require(_newAdmin != address(0));\n        adminAddress = _newAdmin;\n    }\n    \n \n    modifier onlyAdmin() {\n        require(msg.sender == adminAddress);\n        _;\n    }\n\n}\n",
  "sourcePath": "/Users/lu/Desktop/ningbojj/JJToken/contracts/access/AccessController_old.sol",
  "compiler": {
    "name": "solc",
    "version": "0.6.10+commit.00c0fcaf.Emscripten.clang"
  },
  "schemaVersion": "3.2.3",
  "updatedAt": "2020-08-20T03:21:16.015Z",
  "devdoc": {
    "methods": {}
  },
  "userdoc": {
    "methods": {}
  }
}