{
  "contractName": "AccessController",
  "abi": [
    {
      "anonymous": false,
      "inputs": [
        {
          "indexed": false,
          "internalType": "address",
          "name": "newContract",
          "type": "address"
        }
      ],
      "name": "ContractUpgrade",
      "type": "event"
    },
    {
      "inputs": [],
      "name": "adminAddress",
      "outputs": [
        {
          "internalType": "address",
          "name": "",
          "type": "address"
        }
      ],
      "stateMutability": "view",
      "type": "function"
    },
    {
      "inputs": [
        {
          "internalType": "uint256",
          "name": "",
          "type": "uint256"
        }
      ],
      "name": "enterpriseAddress",
      "outputs": [
        {
          "internalType": "address",
          "name": "",
          "type": "address"
        }
      ],
      "stateMutability": "view",
      "type": "function"
    },
    {
      "inputs": [],
      "name": "feeAddress",
      "outputs": [
        {
          "internalType": "address",
          "name": "",
          "type": "address"
        }
      ],
      "stateMutability": "view",
      "type": "function"
    },
    {
      "inputs": [
        {
          "internalType": "uint256",
          "name": "",
          "type": "uint256"
        }
      ],
      "name": "storeAddress",
      "outputs": [
        {
          "internalType": "address",
          "name": "",
          "type": "address"
        }
      ],
      "stateMutability": "view",
      "type": "function"
    },
    {
      "inputs": [
        {
          "internalType": "address",
          "name": "_newFeeAddress",
          "type": "address"
        }
      ],
      "name": "setFeeAddress",
      "outputs": [],
      "stateMutability": "nonpayable",
      "type": "function"
    },
    {
      "inputs": [
        {
          "internalType": "address",
          "name": "_newAdmin",
          "type": "address"
        }
      ],
      "name": "setAdmin",
      "outputs": [],
      "stateMutability": "nonpayable",
      "type": "function"
    },
    {
      "inputs": [
        {
          "internalType": "address[]",
          "name": "_newStore",
          "type": "address[]"
        }
      ],
      "name": "setStore",
      "outputs": [],
      "stateMutability": "nonpayable",
      "type": "function"
    },
    {
      "inputs": [
        {
          "internalType": "address[]",
          "name": "_newEnterprise",
          "type": "address[]"
        }
      ],
      "name": "setEnterpeise",
      "outputs": [],
      "stateMutability": "nonpayable",
      "type": "function"
    }
  ],
  "bytecode": "0x608060405234801561001057600080fd5b506108be806100206000396000f3fe608060405234801561001057600080fd5b50600436106100885760003560e01c80638705fcd41161005b5780638705fcd414610113578063a221f3b21461012f578063d4e6ecb91461015f578063fc6f94681461017b57610088565b8063412753581461008d578063547c07f7146100ab578063704b6c02146100db5780637a65f9bc146100f7575b600080fd5b610095610199565b6040516100a291906107ae565b60405180910390f35b6100c560048036038101906100c09190610776565b6101bf565b6040516100d291906107ae565b60405180910390f35b6100f560048036038101906100f0919061070c565b6101fb565b005b610111600480360381019061010c9190610735565b610278565b005b61012d6004803603810190610128919061070c565b610369565b005b61014960048036038101906101449190610776565b610440565b60405161015691906107ae565b60405180910390f35b61017960048036038101906101749190610735565b61047c565b005b61018361056d565b60405161019091906107ae565b60405180910390f35b600160009054906101000a900473ffffffffffffffffffffffffffffffffffffffff1681565b600381815481106101cc57fe5b906000526020600020016000915054906101000a900473ffffffffffffffffffffffffffffffffffffffff1681565b600073ffffffffffffffffffffffffffffffffffffffff168173ffffffffffffffffffffffffffffffffffffffff16141561023557600080fd5b806000806101000a81548173ffffffffffffffffffffffffffffffffffffffff021916908373ffffffffffffffffffffffffffffffffffffffff16021790555050565b6000809054906101000a900473ffffffffffffffffffffffffffffffffffffffff1673ffffffffffffffffffffffffffffffffffffffff163373ffffffffffffffffffffffffffffffffffffffff16146102d157600080fd5b600080905060008090505b825181101561033f57600073ffffffffffffffffffffffffffffffffffffffff1683828151811061030957fe5b602002602001015173ffffffffffffffffffffffffffffffffffffffff16141561033257600191505b80806001019150506102dc565b50600181141561034e57600080fd5b8160039080519060200190610364929190610592565b505050565b6000809054906101000a900473ffffffffffffffffffffffffffffffffffffffff1673ffffffffffffffffffffffffffffffffffffffff163373ffffffffffffffffffffffffffffffffffffffff16146103c257600080fd5b600073ffffffffffffffffffffffffffffffffffffffff168173ffffffffffffffffffffffffffffffffffffffff1614156103fc57600080fd5b80600160006101000a81548173ffffffffffffffffffffffffffffffffffffffff021916908373ffffffffffffffffffffffffffffffffffffffff16021790555050565b6002818154811061044d57fe5b906000526020600020016000915054906101000a900473ffffffffffffffffffffffffffffffffffffffff1681565b6000809054906101000a900473ffffffffffffffffffffffffffffffffffffffff1673ffffffffffffffffffffffffffffffffffffffff163373ffffffffffffffffffffffffffffffffffffffff16146104d557600080fd5b600080905060008090505b825181101561054357600073ffffffffffffffffffffffffffffffffffffffff1683828151811061050d57fe5b602002602001015173ffffffffffffffffffffffffffffffffffffffff16141561053657600191505b80806001019150506104e0565b50600181141561055257600080fd5b8160029080519060200190610568929190610592565b505050565b6000809054906101000a900473ffffffffffffffffffffffffffffffffffffffff1681565b82805482825590600052602060002090810192821561060b579160200282015b8281111561060a5782518260006101000a81548173ffffffffffffffffffffffffffffffffffffffff021916908373ffffffffffffffffffffffffffffffffffffffff160217905550916020019190600101906105b2565b5b509050610618919061061c565b5090565b61065c91905b8082111561065857600081816101000a81549073ffffffffffffffffffffffffffffffffffffffff021916905550600101610622565b5090565b90565b60008135905061066e8161085a565b92915050565b600082601f83011261068557600080fd5b8135610698610693826107f6565b6107c9565b915081818352602084019350602081019050838560208402820111156106bd57600080fd5b60005b838110156106ed57816106d3888261065f565b8452602084019350602083019250506001810190506106c0565b5050505092915050565b60008135905061070681610871565b92915050565b60006020828403121561071e57600080fd5b600061072c8482850161065f565b91505092915050565b60006020828403121561074757600080fd5b600082013567ffffffffffffffff81111561076157600080fd5b61076d84828501610674565b91505092915050565b60006020828403121561078857600080fd5b6000610796848285016106f7565b91505092915050565b6107a88161081e565b82525050565b60006020820190506107c3600083018461079f565b92915050565b6000604051905081810181811067ffffffffffffffff821117156107ec57600080fd5b8060405250919050565b600067ffffffffffffffff82111561080d57600080fd5b602082029050602081019050919050565b600061082982610830565b9050919050565b600073ffffffffffffffffffffffffffffffffffffffff82169050919050565b6000819050919050565b6108638161081e565b811461086e57600080fd5b50565b61087a81610850565b811461088557600080fd5b5056fea26469706673582212204a05b7b9cf514395794702d9d3501126315006a22ae0dbe9abb40ab3168c8c9a64736f6c634300060a0033",
  "immutableReferences": {},
  "source": "// SPDX-License-Identifier: MIT\npragma solidity ^0.6.10;\npragma experimental ABIEncoderV2;\n\ncontract AccessController {\n\n    /// @dev Emited when contract is upgraded - See README.md for updgrade plan\n    event ContractUpgrade(address newContract);\n    // The addresses of the accounts (or contracts) that can execute actions within each roles.\n    address public adminAddress;\n    address public feeAddress;\n    address[] public storeAddress;\n    address[] public enterpriseAddress;\n    \n    modifier onlyEnterprise() {\n        uint flag = 0;\n        for (uint i = 0; i < enterpriseAddress.length; i++) {\n            if ( msg.sender  == enterpriseAddress[i] ) {\n            flag = 1;\n            }\n        }\n        require(flag == 1);\n        _;\n    }\n \n    modifier onlyAdmin() {\n        require(msg.sender == adminAddress);\n        _;\n    }\n\n    modifier onlyStore() {\n        uint flag = 0;\n        for (uint i = 0; i < storeAddress.length; i++) {\n            if ( msg.sender  == storeAddress[i] ) {\n            flag = 1;\n            }\n        }\n        require(flag == 1);\n        _;\n    }\n    \n    function setFeeAddress(address _newFeeAddress) onlyAdmin external{\n        require(_newFeeAddress != address(0));\n        feeAddress = _newFeeAddress;\n    }\n\n    function setAdmin(address _newAdmin) external {\n        require(_newAdmin != address(0));\n        adminAddress = _newAdmin;\n    }\n\n    function setStore(address[] memory _newStore) onlyAdmin external  {\n        // require(_newStore != address(0));\n        uint flag = 0;\n        for (uint i = 0; i < _newStore.length; i++) {\n            if ( _newStore[i]  == address(0) ) {\n              flag = 1;\n            }\n        }\n        require(flag != 1);\n        storeAddress = _newStore;\n    }\n    \n    function setEnterpeise(address[] memory _newEnterprise) onlyAdmin external  {\n        // require(_newStore != address(0));\n        uint flag = 0;\n        for (uint i = 0; i < _newEnterprise.length; i++) {\n            if ( _newEnterprise[i]  == address(0) ) {\n              flag = 1;\n            }\n        }\n        require(flag != 1);\n        enterpriseAddress = _newEnterprise;\n    }\n}\n",
  "sourcePath": "/Users/lu/Desktop/contracts/c2c/JJToken/contracts/access/AccessController.sol",
  "compiler": {
    "name": "solc",
    "version": "0.6.10+commit.00c0fcaf.Emscripten.clang"
  },
  "schemaVersion": "3.2.3",
  "updatedAt": "2020-08-18T07:30:21.555Z",
  "devdoc": {
    "methods": {}
  },
  "userdoc": {
    "methods": {}
  }
}