{
  "contractName": "Coupons",
  "abi": [
    {
      "inputs": [
        {
          "internalType": "string",
          "name": "name",
          "type": "string"
        },
        {
          "internalType": "string",
          "name": "symbol",
          "type": "string"
        },
        {
          "internalType": "string",
          "name": "id",
          "type": "string"
        },
        {
          "internalType": "string[]",
          "name": "storeId",
          "type": "string[]"
        },
        {
          "internalType": "uint256",
          "name": "expireTime",
          "type": "uint256"
        },
        {
          "internalType": "uint256",
          "name": "issueTime",
          "type": "uint256"
        }
      ],
      "stateMutability": "nonpayable",
      "type": "constructor"
    },
    {
      "anonymous": false,
      "inputs": [
        {
          "indexed": true,
          "internalType": "address",
          "name": "owner",
          "type": "address"
        },
        {
          "indexed": true,
          "internalType": "address",
          "name": "spender",
          "type": "address"
        },
        {
          "indexed": false,
          "internalType": "uint256",
          "name": "value",
          "type": "uint256"
        }
      ],
      "name": "Approval",
      "type": "event"
    },
    {
      "anonymous": false,
      "inputs": [
        {
          "indexed": true,
          "internalType": "bytes32",
          "name": "orderHash",
          "type": "bytes32"
        }
      ],
      "name": "Cancel",
      "type": "event"
    },
    {
      "anonymous": false,
      "inputs": [
        {
          "indexed": false,
          "internalType": "address",
          "name": "newContract",
          "type": "address"
        }
      ],
      "name": "ContractUpgrade",
      "type": "event"
    },
    {
      "anonymous": false,
      "inputs": [
        {
          "indexed": false,
          "internalType": "address",
          "name": "token",
          "type": "address"
        },
        {
          "indexed": false,
          "internalType": "address",
          "name": "user",
          "type": "address"
        },
        {
          "indexed": false,
          "internalType": "uint256",
          "name": "amount",
          "type": "uint256"
        },
        {
          "indexed": false,
          "internalType": "uint256",
          "name": "balance",
          "type": "uint256"
        }
      ],
      "name": "Deposit",
      "type": "event"
    },
    {
      "anonymous": false,
      "inputs": [
        {
          "indexed": false,
          "internalType": "address",
          "name": "user",
          "type": "address"
        },
        {
          "indexed": false,
          "internalType": "address",
          "name": "newContract",
          "type": "address"
        }
      ],
      "name": "FundsMigrated",
      "type": "event"
    },
    {
      "anonymous": false,
      "inputs": [
        {
          "indexed": false,
          "internalType": "string",
          "name": "name",
          "type": "string"
        },
        {
          "indexed": false,
          "internalType": "string",
          "name": "symbol",
          "type": "string"
        },
        {
          "indexed": false,
          "internalType": "string",
          "name": "id",
          "type": "string"
        },
        {
          "indexed": false,
          "internalType": "string[]",
          "name": "storeId",
          "type": "string[]"
        },
        {
          "indexed": false,
          "internalType": "uint256",
          "name": "expireTime",
          "type": "uint256"
        },
        {
          "indexed": false,
          "internalType": "uint256",
          "name": "issueTime",
          "type": "uint256"
        }
      ],
      "name": "NewCoupon",
      "type": "event"
    },
    {
      "anonymous": false,
      "inputs": [
        {
          "indexed": false,
          "internalType": "address",
          "name": "tokenGet",
          "type": "address"
        },
        {
          "indexed": false,
          "internalType": "uint256",
          "name": "amountGet",
          "type": "uint256"
        },
        {
          "indexed": false,
          "internalType": "address",
          "name": "tokenGive",
          "type": "address"
        },
        {
          "indexed": false,
          "internalType": "uint256",
          "name": "amountGive",
          "type": "uint256"
        },
        {
          "indexed": false,
          "internalType": "uint256",
          "name": "nonce",
          "type": "uint256"
        },
        {
          "indexed": false,
          "internalType": "address",
          "name": "maker",
          "type": "address"
        },
        {
          "indexed": true,
          "internalType": "bytes32",
          "name": "orderHash",
          "type": "bytes32"
        }
      ],
      "name": "OrderForUser",
      "type": "event"
    },
    {
      "anonymous": false,
      "inputs": [
        {
          "indexed": true,
          "internalType": "bytes32",
          "name": "orderHash",
          "type": "bytes32"
        },
        {
          "indexed": false,
          "internalType": "uint256",
          "name": "amount",
          "type": "uint256"
        },
        {
          "indexed": false,
          "internalType": "address",
          "name": "give",
          "type": "address"
        }
      ],
      "name": "TradeForUser",
      "type": "event"
    },
    {
      "anonymous": false,
      "inputs": [
        {
          "indexed": true,
          "internalType": "address",
          "name": "from",
          "type": "address"
        },
        {
          "indexed": true,
          "internalType": "address",
          "name": "to",
          "type": "address"
        },
        {
          "indexed": false,
          "internalType": "uint256",
          "name": "value",
          "type": "uint256"
        }
      ],
      "name": "Transfer",
      "type": "event"
    },
    {
      "anonymous": false,
      "inputs": [
        {
          "indexed": false,
          "internalType": "address",
          "name": "token",
          "type": "address"
        },
        {
          "indexed": false,
          "internalType": "address",
          "name": "user",
          "type": "address"
        },
        {
          "indexed": false,
          "internalType": "uint256",
          "name": "amount",
          "type": "uint256"
        },
        {
          "indexed": false,
          "internalType": "uint256",
          "name": "balance",
          "type": "uint256"
        }
      ],
      "name": "Withdraw",
      "type": "event"
    },
    {
      "inputs": [],
      "name": "adminAddress",
      "outputs": [
        {
          "internalType": "address",
          "name": "",
          "type": "address"
        }
      ],
      "stateMutability": "view",
      "type": "function"
    },
    {
      "inputs": [
        {
          "internalType": "address",
          "name": "owner",
          "type": "address"
        },
        {
          "internalType": "address",
          "name": "spender",
          "type": "address"
        }
      ],
      "name": "allowance",
      "outputs": [
        {
          "internalType": "uint256",
          "name": "",
          "type": "uint256"
        }
      ],
      "stateMutability": "view",
      "type": "function"
    },
    {
      "inputs": [
        {
          "internalType": "address",
          "name": "spender",
          "type": "address"
        },
        {
          "internalType": "uint256",
          "name": "amount",
          "type": "uint256"
        }
      ],
      "name": "approve",
      "outputs": [
        {
          "internalType": "bool",
          "name": "",
          "type": "bool"
        }
      ],
      "stateMutability": "nonpayable",
      "type": "function"
    },
    {
      "inputs": [
        {
          "internalType": "address",
          "name": "account",
          "type": "address"
        }
      ],
      "name": "balanceOf",
      "outputs": [
        {
          "internalType": "uint256",
          "name": "",
          "type": "uint256"
        }
      ],
      "stateMutability": "view",
      "type": "function"
    },
    {
      "inputs": [
        {
          "internalType": "uint256",
          "name": "",
          "type": "uint256"
        }
      ],
      "name": "coupons",
      "outputs": [
        {
          "internalType": "string",
          "name": "name",
          "type": "string"
        },
        {
          "internalType": "string",
          "name": "symbol",
          "type": "string"
        },
        {
          "internalType": "string",
          "name": "id",
          "type": "string"
        },
        {
          "internalType": "uint256",
          "name": "expireTime",
          "type": "uint256"
        },
        {
          "internalType": "uint256",
          "name": "issueTime",
          "type": "uint256"
        }
      ],
      "stateMutability": "view",
      "type": "function"
    },
    {
      "inputs": [],
      "name": "decimals",
      "outputs": [
        {
          "internalType": "uint8",
          "name": "",
          "type": "uint8"
        }
      ],
      "stateMutability": "view",
      "type": "function"
    },
    {
      "inputs": [
        {
          "internalType": "address",
          "name": "spender",
          "type": "address"
        },
        {
          "internalType": "uint256",
          "name": "subtractedValue",
          "type": "uint256"
        }
      ],
      "name": "decreaseAllowance",
      "outputs": [
        {
          "internalType": "bool",
          "name": "",
          "type": "bool"
        }
      ],
      "stateMutability": "nonpayable",
      "type": "function"
    },
    {
      "inputs": [
        {
          "internalType": "uint256",
          "name": "",
          "type": "uint256"
        }
      ],
      "name": "enterpriseAddress",
      "outputs": [
        {
          "internalType": "address",
          "name": "",
          "type": "address"
        }
      ],
      "stateMutability": "view",
      "type": "function"
    },
    {
      "inputs": [],
      "name": "feeAddress",
      "outputs": [
        {
          "internalType": "address",
          "name": "",
          "type": "address"
        }
      ],
      "stateMutability": "view",
      "type": "function"
    },
    {
      "inputs": [
        {
          "internalType": "address",
          "name": "spender",
          "type": "address"
        },
        {
          "internalType": "uint256",
          "name": "addedValue",
          "type": "uint256"
        }
      ],
      "name": "increaseAllowance",
      "outputs": [
        {
          "internalType": "bool",
          "name": "",
          "type": "bool"
        }
      ],
      "stateMutability": "nonpayable",
      "type": "function"
    },
    {
      "inputs": [],
      "name": "name",
      "outputs": [
        {
          "internalType": "string",
          "name": "",
          "type": "string"
        }
      ],
      "stateMutability": "view",
      "type": "function"
    },
    {
      "inputs": [
        {
          "internalType": "address",
          "name": "_newAdmin",
          "type": "address"
        }
      ],
      "name": "setAdmin",
      "outputs": [],
      "stateMutability": "nonpayable",
      "type": "function"
    },
    {
      "inputs": [
        {
          "internalType": "address[]",
          "name": "_newEnterprise",
          "type": "address[]"
        }
      ],
      "name": "setEnterpeise",
      "outputs": [],
      "stateMutability": "nonpayable",
      "type": "function"
    },
    {
      "inputs": [
        {
          "internalType": "address",
          "name": "_newFeeAddress",
          "type": "address"
        }
      ],
      "name": "setFeeAddress",
      "outputs": [],
      "stateMutability": "nonpayable",
      "type": "function"
    },
    {
      "inputs": [
        {
          "internalType": "address[]",
          "name": "_newStore",
          "type": "address[]"
        }
      ],
      "name": "setStore",
      "outputs": [],
      "stateMutability": "nonpayable",
      "type": "function"
    },
    {
      "inputs": [
        {
          "internalType": "uint256",
          "name": "",
          "type": "uint256"
        }
      ],
      "name": "storeAddress",
      "outputs": [
        {
          "internalType": "address",
          "name": "",
          "type": "address"
        }
      ],
      "stateMutability": "view",
      "type": "function"
    },
    {
      "inputs": [],
      "name": "symbol",
      "outputs": [
        {
          "internalType": "string",
          "name": "",
          "type": "string"
        }
      ],
      "stateMutability": "view",
      "type": "function"
    },
    {
      "inputs": [
        {
          "internalType": "address",
          "name": "",
          "type": "address"
        },
        {
          "internalType": "address",
          "name": "",
          "type": "address"
        }
      ],
      "name": "tokens",
      "outputs": [
        {
          "internalType": "uint256",
          "name": "",
          "type": "uint256"
        }
      ],
      "stateMutability": "view",
      "type": "function"
    },
    {
      "inputs": [],
      "name": "totalSupply",
      "outputs": [
        {
          "internalType": "uint256",
          "name": "",
          "type": "uint256"
        }
      ],
      "stateMutability": "view",
      "type": "function"
    },
    {
      "inputs": [
        {
          "internalType": "address",
          "name": "sender",
          "type": "address"
        },
        {
          "internalType": "address",
          "name": "recipient",
          "type": "address"
        },
        {
          "internalType": "uint256",
          "name": "amount",
          "type": "uint256"
        }
      ],
      "name": "transferFrom",
      "outputs": [
        {
          "internalType": "bool",
          "name": "",
          "type": "bool"
        }
      ],
      "stateMutability": "nonpayable",
      "type": "function"
    },
    {
      "inputs": [],
      "name": "getInfo",
      "outputs": [
        {
          "components": [
            {
              "internalType": "string",
              "name": "name",
              "type": "string"
            },
            {
              "internalType": "string",
              "name": "symbol",
              "type": "string"
            },
            {
              "internalType": "string",
              "name": "id",
              "type": "string"
            },
            {
              "internalType": "string[]",
              "name": "storeId",
              "type": "string[]"
            },
            {
              "internalType": "uint256",
              "name": "expireTime",
              "type": "uint256"
            },
            {
              "internalType": "uint256",
              "name": "issueTime",
              "type": "uint256"
            }
          ],
          "internalType": "struct Coupons.Coupon",
          "name": "cp",
          "type": "tuple"
        }
      ],
      "stateMutability": "view",
      "type": "function"
    },
    {
      "inputs": [
        {
          "internalType": "address",
          "name": "userAddress",
          "type": "address"
        }
      ],
      "name": "getBalance",
      "outputs": [
        {
          "internalType": "uint256",
          "name": "",
          "type": "uint256"
        }
      ],
      "stateMutability": "view",
      "type": "function"
    },
    {
      "inputs": [
        {
          "internalType": "address",
          "name": "tokenAddress",
          "type": "address"
        },
        {
          "internalType": "uint256",
          "name": "amount",
          "type": "uint256"
        }
      ],
      "name": "withdraw",
      "outputs": [
        {
          "internalType": "address",
          "name": "",
          "type": "address"
        }
      ],
      "stateMutability": "payable",
      "type": "function"
    },
    {
      "inputs": [
        {
          "internalType": "address",
          "name": "tokenAddress",
          "type": "address"
        },
        {
          "internalType": "address[]",
          "name": "staff",
          "type": "address[]"
        },
        {
          "internalType": "uint256",
          "name": "amount",
          "type": "uint256"
        }
      ],
      "name": "batchMint",
      "outputs": [],
      "stateMutability": "nonpayable",
      "type": "function"
    },
    {
      "inputs": [
        {
          "internalType": "address",
          "name": "tokenAddress",
          "type": "address"
        },
        {
          "internalType": "address",
          "name": "enterpriseAddress",
          "type": "address"
        },
        {
          "internalType": "uint256",
          "name": "amount",
          "type": "uint256"
        }
      ],
      "name": "issue",
      "outputs": [],
      "stateMutability": "nonpayable",
      "type": "function"
    },
    {
      "inputs": [
        {
          "internalType": "address",
          "name": "tokenAddress",
          "type": "address"
        },
        {
          "internalType": "address",
          "name": "staff",
          "type": "address"
        },
        {
          "internalType": "uint256",
          "name": "amount",
          "type": "uint256"
        }
      ],
      "name": "mint",
      "outputs": [],
      "stateMutability": "nonpayable",
      "type": "function"
    },
    {
      "inputs": [
        {
          "internalType": "address",
          "name": "account",
          "type": "address"
        },
        {
          "internalType": "uint256",
          "name": "amount",
          "type": "uint256"
        }
      ],
      "name": "burn",
      "outputs": [],
      "stateMutability": "nonpayable",
      "type": "function"
    },
    {
      "inputs": [
        {
          "internalType": "address",
          "name": "recipient",
          "type": "address"
        },
        {
          "internalType": "uint256",
          "name": "amount",
          "type": "uint256"
        }
      ],
      "name": "transfer",
      "outputs": [
        {
          "internalType": "bool",
          "name": "",
          "type": "bool"
        }
      ],
      "stateMutability": "nonpayable",
      "type": "function"
    },
    {
      "inputs": [
        {
          "internalType": "address",
          "name": "recipient",
          "type": "address"
        },
        {
          "internalType": "uint256",
          "name": "amount",
          "type": "uint256"
        }
      ],
      "name": "refund",
      "outputs": [
        {
          "internalType": "bool",
          "name": "",
          "type": "bool"
        }
      ],
      "stateMutability": "nonpayable",
      "type": "function"
    }
  ],
  "bytecode": "0x60806040523480156200001157600080fd5b5060405162003f9138038062003f91833981810160405281019062000037919062000692565b85858160039080519060200190620000519291906200040f565b5080600490805190602001906200006a9291906200040f565b506012600560006101000a81548160ff021916908360ff1602179055505050620000b3336200009e620001ec60201b60201c565b60ff16600a0a6000026200020360201b60201c565b600a6040518060c001604052808881526020018781526020018681526020018581526020018481526020018381525090806001815401808255809150506001900390600052602060002090600602016000909190919091506000820151816000019080519060200190620001299291906200040f565b506020820151816001019080519060200190620001489291906200040f565b506040820151816002019080519060200190620001679291906200040f565b5060608201518160030190805190602001906200018692919062000496565b506080820151816004015560a0820151816005015550507f703fca694b65baeb006e0106553897b88844f16761a46e672841b3ee04185446868686868686604051620001d8969594939291906200093a565b60405180910390a150505050505062000b79565b6000600560009054906101000a900460ff16905090565b600073ffffffffffffffffffffffffffffffffffffffff168273ffffffffffffffffffffffffffffffffffffffff16141562000276576040517f08c379a00000000000000000000000000000000000000000000000000000000081526004016200026d90620009e5565b60405180910390fd5b6200028a60008383620003b260201b60201c565b620002a681600254620003b760201b62001c231790919060201c565b60028190555062000304816000808573ffffffffffffffffffffffffffffffffffffffff1673ffffffffffffffffffffffffffffffffffffffff16815260200190815260200160002054620003b760201b62001c231790919060201c565b6000808473ffffffffffffffffffffffffffffffffffffffff1673ffffffffffffffffffffffffffffffffffffffff168152602001908152602001600020819055508173ffffffffffffffffffffffffffffffffffffffff16600073ffffffffffffffffffffffffffffffffffffffff167fddf252ad1be2c89b69c2b068fc378daa952ba7f163c4a11628f55a4df523b3ef83604051620003a6919062000a07565b60405180910390a35050565b505050565b60008082840190508381101562000405576040517f08c379a0000000000000000000000000000000000000000000000000000000008152600401620003fc90620009c3565b60405180910390fd5b8091505092915050565b828054600181600116156101000203166002900490600052602060002090601f016020900481019282601f106200045257805160ff191683800117855562000483565b8280016001018555821562000483579182015b828111156200048257825182559160200191906001019062000465565b5b509050620004929190620004fd565b5090565b828054828255906000526020600020908101928215620004ea579160200282015b82811115620004e9578251829080519060200190620004d89291906200040f565b5091602001919060010190620004b7565b5b509050620004f9919062000525565b5090565b6200052291905b808211156200051e57600081600090555060010162000504565b5090565b90565b6200055391905b808211156200054f576000818162000545919062000556565b506001016200052c565b5090565b90565b50805460018160011615610100020316600290046000825580601f106200057e57506200059f565b601f0160209004906000526020600020908101906200059e9190620004fd565b5b50565b600082601f830112620005b457600080fd5b8151620005cb620005c58262000a52565b62000a24565b9150818183526020840193506020810190508360005b83811015620006155781518601620005fa88826200061f565b845260208401935060208301925050600181019050620005e1565b5050505092915050565b600082601f8301126200063157600080fd5b815162000648620006428262000a7b565b62000a24565b915080825260208301602083018583830111156200066557600080fd5b6200067283828462000b18565b50505092915050565b6000815190506200068c8162000b5f565b92915050565b60008060008060008060c08789031215620006ac57600080fd5b600087015167ffffffffffffffff811115620006c757600080fd5b620006d589828a016200061f565b965050602087015167ffffffffffffffff811115620006f357600080fd5b6200070189828a016200061f565b955050604087015167ffffffffffffffff8111156200071f57600080fd5b6200072d89828a016200061f565b945050606087015167ffffffffffffffff8111156200074b57600080fd5b6200075989828a01620005a2565b93505060806200076c89828a016200067b565b92505060a06200077f89828a016200067b565b9150509295509295509295565b60006200079a838362000823565b905092915050565b6000620007af8262000ab8565b620007bb818562000adb565b935083602082028501620007cf8562000aa8565b8060005b85811015620008115784840389528151620007ef85826200078c565b9450620007fc8362000ace565b925060208a01995050600181019050620007d3565b50829750879550505050505092915050565b6000620008308262000ac3565b6200083c818562000aec565b93506200084e81856020860162000b18565b620008598162000b4e565b840191505092915050565b6000620008718262000ac3565b6200087d818562000afd565b93506200088f81856020860162000b18565b6200089a8162000b4e565b840191505092915050565b6000620008b4601b8362000afd565b91507f536166654d6174683a206164646974696f6e206f766572666c6f7700000000006000830152602082019050919050565b6000620008f6601f8362000afd565b91507f45524332303a206d696e7420746f20746865207a65726f2061646472657373006000830152602082019050919050565b620009348162000b0e565b82525050565b600060c082019050818103600083015262000956818962000864565b905081810360208301526200096c818862000864565b9050818103604083015262000982818762000864565b90508181036060830152620009988186620007a2565b9050620009a9608083018562000929565b620009b860a083018462000929565b979650505050505050565b60006020820190508181036000830152620009de81620008a5565b9050919050565b6000602082019050818103600083015262000a0081620008e7565b9050919050565b600060208201905062000a1e600083018462000929565b92915050565b6000604051905081810181811067ffffffffffffffff8211171562000a4857600080fd5b8060405250919050565b600067ffffffffffffffff82111562000a6a57600080fd5b602082029050602081019050919050565b600067ffffffffffffffff82111562000a9357600080fd5b601f19601f8301169050602081019050919050565b6000819050602082019050919050565b600081519050919050565b600081519050919050565b6000602082019050919050565b600082825260208201905092915050565b600082825260208201905092915050565b600082825260208201905092915050565b6000819050919050565b60005b8381101562000b3857808201518184015260208101905062000b1b565b8381111562000b48576000848401525b50505050565b6000601f19601f8301169050919050565b62000b6a8162000b0e565b811462000b7657600080fd5b50565b6134088062000b896000396000f3fe6080604052600436106101c25760003560e01c80637a65f9bc116100f7578063a9059cbb11610095578063dd62ed3e11610064578063dd62ed3e146106b4578063f3fef3a3146106f1578063f8b2cb4f14610721578063fc6f94681461075e576101c2565b8063a9059cbb146105fc578063b613999214610639578063c6c3bbe614610662578063d4e6ecb91461068b576101c2565b80639717e746116100d15780639717e746146105305780639dc29fac14610559578063a221f3b214610582578063a457c2d7146105bf576101c2565b80637a65f9bc146104b35780638705fcd4146104dc57806395d89b4114610505576101c2565b8063410085df11610164578063547c07f71161013e578063547c07f7146103e55780635a9b0b8914610422578063704b6c021461044d57806370a0823114610476576101c2565b8063410085df14610340578063412753581461037d578063508493bc146103a8576101c2565b806323b872dd116101a057806323b872dd1461025a57806330828e9214610297578063313ce567146102d85780633950935114610303576101c2565b806306fdde03146101c7578063095ea7b3146101f257806318160ddd1461022f575b600080fd5b3480156101d357600080fd5b506101dc610789565b6040516101e99190612f6c565b60405180910390f35b3480156101fe57600080fd5b50610219600480360381019061021491906128c7565b61082b565b6040516102269190612f51565b60405180910390f35b34801561023b57600080fd5b50610244610849565b6040516102519190613138565b60405180910390f35b34801561026657600080fd5b50610281600480360381019061027c9190612811565b610853565b60405161028e9190612f51565b60405180910390f35b3480156102a357600080fd5b506102be60048036038101906102b9919061296d565b61092c565b6040516102cf959493929190612f8e565b60405180910390f35b3480156102e457600080fd5b506102ed610b37565b6040516102fa9190613153565b60405180910390f35b34801561030f57600080fd5b5061032a600480360381019061032591906128c7565b610b4e565b6040516103379190612f51565b60405180910390f35b34801561034c57600080fd5b50610367600480360381019061036291906128c7565b610c01565b6040516103749190612f51565b60405180910390f35b34801561038957600080fd5b50610392610cbc565b60405161039f9190612ead565b60405180910390f35b3480156103b457600080fd5b506103cf60048036038101906103ca91906127d5565b610ce2565b6040516103dc9190613138565b60405180910390f35b3480156103f157600080fd5b5061040c6004803603810190610407919061296d565b610d07565b6040516104199190612ead565b60405180910390f35b34801561042e57600080fd5b50610437610d43565b6040516104449190613116565b60405180910390f35b34801561045957600080fd5b50610474600480360381019061046f91906127ac565b61105a565b005b34801561048257600080fd5b5061049d600480360381019061049891906127ac565b6110d8565b6040516104aa9190613138565b60405180910390f35b3480156104bf57600080fd5b506104da60048036038101906104d59190612903565b611120565b005b3480156104e857600080fd5b5061050360048036038101906104fe91906127ac565b611212565b005b34801561051157600080fd5b5061051a6112ea565b6040516105279190612f6c565b60405180910390f35b34801561053c57600080fd5b5061055760048036038101906105529190612860565b61138c565b005b34801561056557600080fd5b50610580600480360381019061057b91906128c7565b611498565b005b34801561058e57600080fd5b506105a960048036038101906105a4919061296d565b61154a565b6040516105b69190612ead565b60405180910390f35b3480156105cb57600080fd5b506105e660048036038101906105e191906128c7565b611586565b6040516105f39190612f51565b60405180910390f35b34801561060857600080fd5b50610623600480360381019061061e91906128c7565b611653565b6040516106309190612f51565b60405180910390f35b34801561064557600080fd5b50610660600480360381019061065b9190612811565b61166a565b005b34801561066e57600080fd5b5061068960048036038101906106849190612811565b61173c565b005b34801561069757600080fd5b506106b260048036038101906106ad9190612903565b611885565b005b3480156106c057600080fd5b506106db60048036038101906106d691906127d5565b611977565b6040516106e89190613138565b60405180910390f35b61070b600480360381019061070691906128c7565b6119fe565b6040516107189190612ead565b60405180910390f35b34801561072d57600080fd5b50610748600480360381019061074391906127ac565b611beb565b6040516107559190613138565b60405180910390f35b34801561076a57600080fd5b50610773611bfd565b6040516107809190612ead565b60405180910390f35b606060038054600181600116156101000203166002900480601f0160208091040260200160405190810160405280929190818152602001828054600181600116156101000203166002900480156108215780601f106107f657610100808354040283529160200191610821565b820191906000526020600020905b81548152906001019060200180831161080457829003601f168201915b5050505050905090565b600061083f610838611c78565b8484611c80565b6001905092915050565b6000600254905090565b6000610860848484611e4b565b6109218461086c611c78565b61091c8560405180606001604052806028815260200161338660289139600160008b73ffffffffffffffffffffffffffffffffffffffff1673ffffffffffffffffffffffffffffffffffffffff16815260200190815260200160002060006108d2611c78565b73ffffffffffffffffffffffffffffffffffffffff1673ffffffffffffffffffffffffffffffffffffffff168152602001908152602001600020546120e09092919063ffffffff16565b611c80565b600190509392505050565b600a818154811061093957fe5b9060005260206000209060060201600091509050806000018054600181600116156101000203166002900480601f0160208091040260200160405190810160405280929190818152602001828054600181600116156101000203166002900480156109e55780601f106109ba576101008083540402835291602001916109e5565b820191906000526020600020905b8154815290600101906020018083116109c857829003601f168201915b505050505090806001018054600181600116156101000203166002900480601f016020809104026020016040519081016040528092919081815260200182805460018160011615610100020316600290048015610a835780601f10610a5857610100808354040283529160200191610a83565b820191906000526020600020905b815481529060010190602001808311610a6657829003601f168201915b505050505090806002018054600181600116156101000203166002900480601f016020809104026020016040519081016040528092919081815260200182805460018160011615610100020316600290048015610b215780601f10610af657610100808354040283529160200191610b21565b820191906000526020600020905b815481529060010190602001808311610b0457829003601f168201915b5050505050908060040154908060050154905085565b6000600560009054906101000a900460ff16905090565b6000610bf7610b5b611c78565b84610bf28560016000610b6c611c78565b73ffffffffffffffffffffffffffffffffffffffff1673ffffffffffffffffffffffffffffffffffffffff16815260200190815260200160002060008973ffffffffffffffffffffffffffffffffffffffff1673ffffffffffffffffffffffffffffffffffffffff16815260200190815260200160002054611c2390919063ffffffff16565b611c80565b6001905092915050565b6000806000905060008090505b600780549050811015610c985760078181548110610c2857fe5b9060005260206000200160009054906101000a900473ffffffffffffffffffffffffffffffffffffffff1673ffffffffffffffffffffffffffffffffffffffff163373ffffffffffffffffffffffffffffffffffffffff161415610c8b57600191505b8080600101915050610c0e565b5060018114610ca657600080fd5b610cb1338585611e4b565b600191505092915050565b600660009054906101000a900473ffffffffffffffffffffffffffffffffffffffff1681565b6009602052816000526040600020602052806000526040600020600091509150505481565b60088181548110610d1457fe5b906000526020600020016000915054906101000a900473ffffffffffffffffffffffffffffffffffffffff1681565b610d4b6125e7565b600a600081548110610d5957fe5b90600052602060002090600602016040518060c0016040529081600082018054600181600116156101000203166002900480601f016020809104026020016040519081016040528092919081815260200182805460018160011615610100020316600290048015610e0b5780601f10610de057610100808354040283529160200191610e0b565b820191906000526020600020905b815481529060010190602001808311610dee57829003601f168201915b50505050508152602001600182018054600181600116156101000203166002900480601f016020809104026020016040519081016040528092919081815260200182805460018160011615610100020316600290048015610ead5780601f10610e8257610100808354040283529160200191610ead565b820191906000526020600020905b815481529060010190602001808311610e9057829003601f168201915b50505050508152602001600282018054600181600116156101000203166002900480601f016020809104026020016040519081016040528092919081815260200182805460018160011615610100020316600290048015610f4f5780601f10610f2457610100808354040283529160200191610f4f565b820191906000526020600020905b815481529060010190602001808311610f3257829003601f168201915b5050505050815260200160038201805480602002602001604051908101604052809291908181526020016000905b82821015611039578382906000526020600020018054600181600116156101000203166002900480601f0160208091040260200160405190810160405280929190818152602001828054600181600116156101000203166002900480156110255780601f10610ffa57610100808354040283529160200191611025565b820191906000526020600020905b81548152906001019060200180831161100857829003601f168201915b505050505081526020019060010190610f7d565b50505050815260200160048201548152602001600582015481525050905090565b600073ffffffffffffffffffffffffffffffffffffffff168173ffffffffffffffffffffffffffffffffffffffff16141561109457600080fd5b80600560016101000a81548173ffffffffffffffffffffffffffffffffffffffff021916908373ffffffffffffffffffffffffffffffffffffffff16021790555050565b60008060008373ffffffffffffffffffffffffffffffffffffffff1673ffffffffffffffffffffffffffffffffffffffff168152602001908152602001600020549050919050565b600560019054906101000a900473ffffffffffffffffffffffffffffffffffffffff1673ffffffffffffffffffffffffffffffffffffffff163373ffffffffffffffffffffffffffffffffffffffff161461117a57600080fd5b600080905060008090505b82518110156111e857600073ffffffffffffffffffffffffffffffffffffffff168382815181106111b257fe5b602002602001015173ffffffffffffffffffffffffffffffffffffffff1614156111db57600191505b8080600101915050611185565b5060018114156111f757600080fd5b816008908051906020019061120d92919061261d565b505050565b600560019054906101000a900473ffffffffffffffffffffffffffffffffffffffff1673ffffffffffffffffffffffffffffffffffffffff163373ffffffffffffffffffffffffffffffffffffffff161461126c57600080fd5b600073ffffffffffffffffffffffffffffffffffffffff168173ffffffffffffffffffffffffffffffffffffffff1614156112a657600080fd5b80600660006101000a81548173ffffffffffffffffffffffffffffffffffffffff021916908373ffffffffffffffffffffffffffffffffffffffff16021790555050565b606060048054600181600116156101000203166002900480601f0160208091040260200160405190810160405280929190818152602001828054600181600116156101000203166002900480156113825780601f1061135757610100808354040283529160200191611382565b820191906000526020600020905b81548152906001019060200180831161136557829003601f168201915b5050505050905090565b600560019054906101000a900473ffffffffffffffffffffffffffffffffffffffff1673ffffffffffffffffffffffffffffffffffffffff163373ffffffffffffffffffffffffffffffffffffffff16146113e657600080fd5b60008090505b82518110156114925760008490508073ffffffffffffffffffffffffffffffffffffffff166340c10f1930856040518363ffffffff1660e01b8152600401611435929190612f28565b600060405180830381600087803b15801561144f57600080fd5b505af1158015611463573d6000803e3d6000fd5b5050505061148484838151811061147657fe5b60200260200101518461213b565b5080806001019150506113ec565b50505050565b600080905060008090505b60078054905081101561152d57600781815481106114bd57fe5b9060005260206000200160009054906101000a900473ffffffffffffffffffffffffffffffffffffffff1673ffffffffffffffffffffffffffffffffffffffff163373ffffffffffffffffffffffffffffffffffffffff16141561152057600191505b80806001019150506114a3565b506001811461153b57600080fd5b61154583836122cf565b505050565b6007818154811061155757fe5b906000526020600020016000915054906101000a900473ffffffffffffffffffffffffffffffffffffffff1681565b6000611649611593611c78565b84611644856040518060600160405280602581526020016133ae60259139600160006115bd611c78565b73ffffffffffffffffffffffffffffffffffffffff1673ffffffffffffffffffffffffffffffffffffffff16815260200190815260200160002060008a73ffffffffffffffffffffffffffffffffffffffff1673ffffffffffffffffffffffffffffffffffffffff168152602001908152602001600020546120e09092919063ffffffff16565b611c80565b6001905092915050565b6000611660338484611e4b565b6001905092915050565b600560019054906101000a900473ffffffffffffffffffffffffffffffffffffffff1673ffffffffffffffffffffffffffffffffffffffff163373ffffffffffffffffffffffffffffffffffffffff16146116c457600080fd5b60008390508073ffffffffffffffffffffffffffffffffffffffff166340c10f1984846040518363ffffffff1660e01b8152600401611704929190612f28565b600060405180830381600087803b15801561171e57600080fd5b505af1158015611732573d6000803e3d6000fd5b5050505050505050565b600080905060008090505b6008805490508110156117d1576008818154811061176157fe5b9060005260206000200160009054906101000a900473ffffffffffffffffffffffffffffffffffffffff1673ffffffffffffffffffffffffffffffffffffffff163373ffffffffffffffffffffffffffffffffffffffff1614156117c457600191505b8080600101915050611747565b50600181146117df57600080fd5b60008490508073ffffffffffffffffffffffffffffffffffffffff166323b872dd3330866040518463ffffffff1660e01b815260040161182193929190612ec8565b602060405180830381600087803b15801561183b57600080fd5b505af115801561184f573d6000803e3d6000fd5b505050506040513d601f19601f820116820180604052508101906118739190612944565b5061187e848461213b565b5050505050565b600560019054906101000a900473ffffffffffffffffffffffffffffffffffffffff1673ffffffffffffffffffffffffffffffffffffffff163373ffffffffffffffffffffffffffffffffffffffff16146118df57600080fd5b600080905060008090505b825181101561194d57600073ffffffffffffffffffffffffffffffffffffffff1683828151811061191757fe5b602002602001015173ffffffffffffffffffffffffffffffffffffffff16141561194057600191505b80806001019150506118ea565b50600181141561195c57600080fd5b816007908051906020019061197292919061261d565b505050565b6000600160008473ffffffffffffffffffffffffffffffffffffffff1673ffffffffffffffffffffffffffffffffffffffff16815260200190815260200160002060008373ffffffffffffffffffffffffffffffffffffffff1673ffffffffffffffffffffffffffffffffffffffff16815260200190815260200160002054905092915050565b600081611a0a33611beb565b1015611a4b576040517f08c379a0000000000000000000000000000000000000000000000000000000008152600401611a4290613056565b60405180910390fd5b611a553383611498565b60008390508073ffffffffffffffffffffffffffffffffffffffff1663a9059cbb33611a9e600a611a9060098961247d90919063ffffffff16565b6124ed90919063ffffffff16565b6040518363ffffffff1660e01b8152600401611abb929190612eff565b602060405180830381600087803b158015611ad557600080fd5b505af1158015611ae9573d6000803e3d6000fd5b505050506040513d601f19601f82011682018060405250810190611b0d9190612944565b508073ffffffffffffffffffffffffffffffffffffffff1663a9059cbb600660009054906101000a900473ffffffffffffffffffffffffffffffffffffffff16611b74600a611b6660018961247d90919063ffffffff16565b6124ed90919063ffffffff16565b6040518363ffffffff1660e01b8152600401611b91929190612f28565b602060405180830381600087803b158015611bab57600080fd5b505af1158015611bbf573d6000803e3d6000fd5b505050506040513d601f19601f82011682018060405250810190611be39190612944565b505092915050565b6000611bf6826110d8565b9050919050565b600560019054906101000a900473ffffffffffffffffffffffffffffffffffffffff1681565b600080828401905083811015611c6e576040517f08c379a0000000000000000000000000000000000000000000000000000000008152600401611c6590613036565b60405180910390fd5b8091505092915050565b600033905090565b600073ffffffffffffffffffffffffffffffffffffffff168373ffffffffffffffffffffffffffffffffffffffff161415611cf0576040517f08c379a0000000000000000000000000000000000000000000000000000000008152600401611ce7906130d6565b60405180910390fd5b600073ffffffffffffffffffffffffffffffffffffffff168273ffffffffffffffffffffffffffffffffffffffff161415611d60576040517f08c379a0000000000000000000000000000000000000000000000000000000008152600401611d5790613016565b60405180910390fd5b80600160008573ffffffffffffffffffffffffffffffffffffffff1673ffffffffffffffffffffffffffffffffffffffff16815260200190815260200160002060008473ffffffffffffffffffffffffffffffffffffffff1673ffffffffffffffffffffffffffffffffffffffff168152602001908152602001600020819055508173ffffffffffffffffffffffffffffffffffffffff168373ffffffffffffffffffffffffffffffffffffffff167f8c5be1e5ebec7d5bd14f71427d1e84f3dd0314c0f7b2291e5b200ac8c7c3b92583604051611e3e9190613138565b60405180910390a3505050565b600073ffffffffffffffffffffffffffffffffffffffff168373ffffffffffffffffffffffffffffffffffffffff161415611ebb576040517f08c379a0000000000000000000000000000000000000000000000000000000008152600401611eb2906130b6565b60405180910390fd5b600073ffffffffffffffffffffffffffffffffffffffff168273ffffffffffffffffffffffffffffffffffffffff161415611f2b576040517f08c379a0000000000000000000000000000000000000000000000000000000008152600401611f2290612ff6565b60405180910390fd5b611f36838383612537565b611fa181604051806060016040528060268152602001613360602691396000808773ffffffffffffffffffffffffffffffffffffffff1673ffffffffffffffffffffffffffffffffffffffff168152602001908152602001600020546120e09092919063ffffffff16565b6000808573ffffffffffffffffffffffffffffffffffffffff1673ffffffffffffffffffffffffffffffffffffffff16815260200190815260200160002081905550612034816000808573ffffffffffffffffffffffffffffffffffffffff1673ffffffffffffffffffffffffffffffffffffffff16815260200190815260200160002054611c2390919063ffffffff16565b6000808473ffffffffffffffffffffffffffffffffffffffff1673ffffffffffffffffffffffffffffffffffffffff168152602001908152602001600020819055508173ffffffffffffffffffffffffffffffffffffffff168373ffffffffffffffffffffffffffffffffffffffff167fddf252ad1be2c89b69c2b068fc378daa952ba7f163c4a11628f55a4df523b3ef836040516120d39190613138565b60405180910390a3505050565b6000838311158290612128576040517f08c379a000000000000000000000000000000000000000000000000000000000815260040161211f9190612f6c565b60405180910390fd5b5060008385039050809150509392505050565b600073ffffffffffffffffffffffffffffffffffffffff168273ffffffffffffffffffffffffffffffffffffffff1614156121ab576040517f08c379a00000000000000000000000000000000000000000000000000000000081526004016121a2906130f6565b60405180910390fd5b6121b760008383612537565b6121cc81600254611c2390919063ffffffff16565b600281905550612223816000808573ffffffffffffffffffffffffffffffffffffffff1673ffffffffffffffffffffffffffffffffffffffff16815260200190815260200160002054611c2390919063ffffffff16565b6000808473ffffffffffffffffffffffffffffffffffffffff1673ffffffffffffffffffffffffffffffffffffffff168152602001908152602001600020819055508173ffffffffffffffffffffffffffffffffffffffff16600073ffffffffffffffffffffffffffffffffffffffff167fddf252ad1be2c89b69c2b068fc378daa952ba7f163c4a11628f55a4df523b3ef836040516122c39190613138565b60405180910390a35050565b600073ffffffffffffffffffffffffffffffffffffffff168273ffffffffffffffffffffffffffffffffffffffff16141561233f576040517f08c379a000000000000000000000000000000000000000000000000000000000815260040161233690613096565b60405180910390fd5b61234b82600083612537565b6123b68160405180606001604052806022815260200161333e602291396000808673ffffffffffffffffffffffffffffffffffffffff1673ffffffffffffffffffffffffffffffffffffffff168152602001908152602001600020546120e09092919063ffffffff16565b6000808473ffffffffffffffffffffffffffffffffffffffff1673ffffffffffffffffffffffffffffffffffffffff1681526020019081526020016000208190555061240d8160025461253c90919063ffffffff16565b600281905550600073ffffffffffffffffffffffffffffffffffffffff168273ffffffffffffffffffffffffffffffffffffffff167fddf252ad1be2c89b69c2b068fc378daa952ba7f163c4a11628f55a4df523b3ef836040516124719190613138565b60405180910390a35050565b60008083141561249057600090506124e7565b60008284029050828482816124a157fe5b04146124e2576040517f08c379a00000000000000000000000000000000000000000000000000000000081526004016124d990613076565b60405180910390fd5b809150505b92915050565b600061252f83836040518060400160405280601a81526020017f536166654d6174683a206469766973696f6e206279207a65726f000000000000815250612586565b905092915050565b505050565b600061257e83836040518060400160405280601e81526020017f536166654d6174683a207375627472616374696f6e206f766572666c6f7700008152506120e0565b905092915050565b600080831182906125cd576040517f08c379a00000000000000000000000000000000000000000000000000000000081526004016125c49190612f6c565b60405180910390fd5b5060008385816125d957fe5b049050809150509392505050565b6040518060c001604052806060815260200160608152602001606081526020016060815260200160008152602001600081525090565b828054828255906000526020600020908101928215612696579160200282015b828111156126955782518260006101000a81548173ffffffffffffffffffffffffffffffffffffffff021916908373ffffffffffffffffffffffffffffffffffffffff1602179055509160200191906001019061263d565b5b5090506126a391906126a7565b5090565b6126e791905b808211156126e357600081816101000a81549073ffffffffffffffffffffffffffffffffffffffff0219169055506001016126ad565b5090565b90565b6000813590506126f9816132f8565b92915050565b600082601f83011261271057600080fd5b813561272361271e8261319b565b61316e565b9150818183526020840193506020810190508385602084028201111561274857600080fd5b60005b83811015612778578161275e88826126ea565b84526020840193506020830192505060018101905061274b565b5050505092915050565b6000815190506127918161330f565b92915050565b6000813590506127a681613326565b92915050565b6000602082840312156127be57600080fd5b60006127cc848285016126ea565b91505092915050565b600080604083850312156127e857600080fd5b60006127f6858286016126ea565b9250506020612807858286016126ea565b9150509250929050565b60008060006060848603121561282657600080fd5b6000612834868287016126ea565b9350506020612845868287016126ea565b925050604061285686828701612797565b9150509250925092565b60008060006060848603121561287557600080fd5b6000612883868287016126ea565b935050602084013567ffffffffffffffff8111156128a057600080fd5b6128ac868287016126ff565b92505060406128bd86828701612797565b9150509250925092565b600080604083850312156128da57600080fd5b60006128e8858286016126ea565b92505060206128f985828601612797565b9150509250929050565b60006020828403121561291557600080fd5b600082013567ffffffffffffffff81111561292f57600080fd5b61293b848285016126ff565b91505092915050565b60006020828403121561295657600080fd5b600061296484828501612782565b91505092915050565b60006020828403121561297f57600080fd5b600061298d84828501612797565b91505092915050565b60006129a28383612a4c565b905092915050565b6129b38161327e565b82525050565b6129c281613229565b82525050565b60006129d3826131d3565b6129dd81856131f6565b9350836020820285016129ef856131c3565b8060005b85811015612a2b5784840389528151612a0c8582612996565b9450612a17836131e9565b925060208a019950506001810190506129f3565b50829750879550505050505092915050565b612a468161323b565b82525050565b6000612a57826131de565b612a618185613207565b9350612a718185602086016132b4565b612a7a816132e7565b840191505092915050565b6000612a90826131de565b612a9a8185613218565b9350612aaa8185602086016132b4565b612ab3816132e7565b840191505092915050565b6000612acb602383613218565b91507f45524332303a207472616e7366657220746f20746865207a65726f206164647260008301527f65737300000000000000000000000000000000000000000000000000000000006020830152604082019050919050565b6000612b31602283613218565b91507f45524332303a20617070726f766520746f20746865207a65726f20616464726560008301527f73730000000000000000000000000000000000000000000000000000000000006020830152604082019050919050565b6000612b97601b83613218565b91507f536166654d6174683a206164646974696f6e206f766572666c6f7700000000006000830152602082019050919050565b6000612bd7601683613218565b91507f6e6f74206c6172676572207468616e20616d6f756e74000000000000000000006000830152602082019050919050565b6000612c17602183613218565b91507f536166654d6174683a206d756c7469706c69636174696f6e206f766572666c6f60008301527f77000000000000000000000000000000000000000000000000000000000000006020830152604082019050919050565b6000612c7d602183613218565b91507f45524332303a206275726e2066726f6d20746865207a65726f2061646472657360008301527f73000000000000000000000000000000000000000000000000000000000000006020830152604082019050919050565b6000612ce3602583613218565b91507f45524332303a207472616e736665722066726f6d20746865207a65726f20616460008301527f64726573730000000000000000000000000000000000000000000000000000006020830152604082019050919050565b6000612d49602483613218565b91507f45524332303a20617070726f76652066726f6d20746865207a65726f2061646460008301527f72657373000000000000000000000000000000000000000000000000000000006020830152604082019050919050565b6000612daf601f83613218565b91507f45524332303a206d696e7420746f20746865207a65726f2061646472657373006000830152602082019050919050565b600060c0830160008301518482036000860152612dff8282612a4c565b91505060208301518482036020860152612e198282612a4c565b91505060408301518482036040860152612e338282612a4c565b91505060608301518482036060860152612e4d82826129c8565b9150506080830151612e626080860182612e80565b5060a0830151612e7560a0860182612e80565b508091505092915050565b612e8981613267565b82525050565b612e9881613267565b82525050565b612ea781613271565b82525050565b6000602082019050612ec260008301846129b9565b92915050565b6000606082019050612edd60008301866129aa565b612eea60208301856129b9565b612ef76040830184612e8f565b949350505050565b6000604082019050612f1460008301856129aa565b612f216020830184612e8f565b9392505050565b6000604082019050612f3d60008301856129b9565b612f4a6020830184612e8f565b9392505050565b6000602082019050612f666000830184612a3d565b92915050565b60006020820190508181036000830152612f868184612a85565b905092915050565b600060a0820190508181036000830152612fa88188612a85565b90508181036020830152612fbc8187612a85565b90508181036040830152612fd08186612a85565b9050612fdf6060830185612e8f565b612fec6080830184612e8f565b9695505050505050565b6000602082019050818103600083015261300f81612abe565b9050919050565b6000602082019050818103600083015261302f81612b24565b9050919050565b6000602082019050818103600083015261304f81612b8a565b9050919050565b6000602082019050818103600083015261306f81612bca565b9050919050565b6000602082019050818103600083015261308f81612c0a565b9050919050565b600060208201905081810360008301526130af81612c70565b9050919050565b600060208201905081810360008301526130cf81612cd6565b9050919050565b600060208201905081810360008301526130ef81612d3c565b9050919050565b6000602082019050818103600083015261310f81612da2565b9050919050565b600060208201905081810360008301526131308184612de2565b905092915050565b600060208201905061314d6000830184612e8f565b92915050565b60006020820190506131686000830184612e9e565b92915050565b6000604051905081810181811067ffffffffffffffff8211171561319157600080fd5b8060405250919050565b600067ffffffffffffffff8211156131b257600080fd5b602082029050602081019050919050565b6000819050602082019050919050565b600081519050919050565b600081519050919050565b6000602082019050919050565b600082825260208201905092915050565b600082825260208201905092915050565b600082825260208201905092915050565b600061323482613247565b9050919050565b60008115159050919050565b600073ffffffffffffffffffffffffffffffffffffffff82169050919050565b6000819050919050565b600060ff82169050919050565b600061328982613290565b9050919050565b600061329b826132a2565b9050919050565b60006132ad82613247565b9050919050565b60005b838110156132d25780820151818401526020810190506132b7565b838111156132e1576000848401525b50505050565b6000601f19601f8301169050919050565b61330181613229565b811461330c57600080fd5b50565b6133188161323b565b811461332357600080fd5b50565b61332f81613267565b811461333a57600080fd5b5056fe45524332303a206275726e20616d6f756e7420657863656564732062616c616e636545524332303a207472616e7366657220616d6f756e7420657863656564732062616c616e636545524332303a207472616e7366657220616d6f756e74206578636565647320616c6c6f77616e636545524332303a2064656372656173656420616c6c6f77616e63652062656c6f77207a65726fa2646970667358221220da7690ee18c735cdb8d127671accbbb980ff407bc985fd35b7f072484cd8636864736f6c634300060a0033",
  "immutableReferences": {},
  "source": "// SPDX-License-Identifier: MIT\npragma solidity ^0.6.10;\npragma experimental ABIEncoderV2;\n\nimport \"../../access/AccessController.sol\";\nimport \"./JJToken.sol\";\n\nimport \"./ERC20.sol\";\nimport \"./IERC20.sol\";\nimport \"../../math/SafeMath.sol\";\n\ncontract Coupons is ERC20, AccessController {\n    \n    mapping (address => mapping (address => uint)) public tokens; // mapping of token addresses to mapping of account balances (token=0 means Ether)\n\n    event OrderForUser(address tokenGet, uint amountGet, address tokenGive, uint amountGive, uint nonce, address maker, bytes32 indexed orderHash);\n    event TradeForUser(bytes32 indexed orderHash, uint amount, address give);\n    event Cancel(bytes32 indexed orderHash);\n    event Deposit(address token, address user, uint amount, uint balance);\n    event Withdraw(address token, address user, uint amount, uint balance);\n    event FundsMigrated(address user, address newContract);\n\n    struct Coupon {\n        string name;\n        string symbol;\n        string id;\n        string[] storeId;\n        uint256 expireTime;\n        uint256 issueTime;\n    }\n\n    event NewCoupon(string name ,string symbol, string id, string[] storeId, uint256 expireTime, uint256 issueTime);\n\n    constructor (string memory name, string memory symbol, string memory id, string[] memory storeId, uint256 expireTime, uint256 issueTime )\n        ERC20(name, symbol)\n        public\n    {\n        _mint(msg.sender, 0 * 10 ** uint(decimals()));\n        // begin recording message here.\n        // setAdmin(msg.sender);\n        coupons.push(Coupon(name, symbol ,id ,storeId ,expireTime,issueTime));\n        emit NewCoupon(name, symbol ,id ,storeId ,expireTime,issueTime);\n        \n    }\n    Coupon[] public coupons;\n\n    function getInfo() public view returns (Coupon memory cp){\n        return coupons[0];\n    }\n    \n    function getBalance(address userAddress) public view returns(uint256) {\n        return balanceOf(userAddress);\n    }\n\n    function withdraw(address tokenAddress, uint256 amount) public payable returns(address) {\n        require(getBalance(msg.sender) >= amount, \"not larger than amount\");\n        burn(msg.sender,amount);\n        JJToken jToken = JJToken(tokenAddress);\n        // 90%\n        jToken.transfer(msg.sender, amount.mul(9).div(10));\n        // 10%\n        jToken.transfer(feeAddress, amount.mul(1).div(10));\n    }\n    \n    function batchMint(address tokenAddress, address[] memory staff,uint256 amount) onlyAdmin public {\n        for (uint i = 0; i < staff.length; i++) {\n            JJToken jToken = JJToken(tokenAddress);\n            jToken.mint(address(this),amount);\n            _mint(staff[i], amount);\n        }\n    }\n    \n    function issue(address tokenAddress, address enterpriseAddress,uint256 amount) onlyAdmin public{\n        JJToken jToken = JJToken(tokenAddress);\n        jToken.mint(enterpriseAddress,amount);\n    }\n    \n    function mint(address tokenAddress, address staff, uint256 amount) onlyEnterprise public  {\n        JJToken jToken = JJToken(tokenAddress);\n        jToken.transferFrom(msg.sender, address(this), amount);\n        _mint(staff, amount);\n    }\n\n    function burn(address account, uint256 amount) onlyStore public  {\n        _burn(account, amount);\n    }\n\n    function transfer(address recipient, uint256 amount) public virtual override returns (bool) {\n        _transfer(msg.sender, recipient, amount);\n        return true;\n    }\n\n    function refund(address recipient, uint256 amount) onlyStore public virtual returns (bool) {\n        _transfer(msg.sender, recipient, amount);\n        return true;\n    }\n}\n",
  "sourcePath": "/Users/lu/Desktop/contracts/c2c/JJToken/contracts/token/ERC20/Coupons.sol",
  "compiler": {
    "name": "solc",
    "version": "0.6.10+commit.00c0fcaf.Emscripten.clang"
  },
  "schemaVersion": "3.2.3",
  "updatedAt": "2020-08-18T07:30:21.948Z",
  "devdoc": {
    "methods": {
      "allowance(address,address)": {
        "details": "See {IERC20-allowance}."
      },
      "approve(address,uint256)": {
        "details": "See {IERC20-approve}. Requirements: - `spender` cannot be the zero address."
      },
      "balanceOf(address)": {
        "details": "See {IERC20-balanceOf}."
      },
      "decimals()": {
        "details": "Returns the number of decimals used to get its user representation. For example, if `decimals` equals `2`, a balance of `505` tokens should be displayed to a user as `5,05` (`505 / 10 ** 2`). Tokens usually opt for a value of 18, imitating the relationship between Ether and Wei. This is the value {ERC20} uses, unless {_setupDecimals} is called. NOTE: This information is only used for _display_ purposes: it in no way affects any of the arithmetic of the contract, including {IERC20-balanceOf} and {IERC20-transfer}."
      },
      "decreaseAllowance(address,uint256)": {
        "details": "Atomically decreases the allowance granted to `spender` by the caller. This is an alternative to {approve} that can be used as a mitigation for problems described in {IERC20-approve}. Emits an {Approval} event indicating the updated allowance. Requirements: - `spender` cannot be the zero address. - `spender` must have allowance for the caller of at least `subtractedValue`."
      },
      "increaseAllowance(address,uint256)": {
        "details": "Atomically increases the allowance granted to `spender` by the caller. This is an alternative to {approve} that can be used as a mitigation for problems described in {IERC20-approve}. Emits an {Approval} event indicating the updated allowance. Requirements: - `spender` cannot be the zero address."
      },
      "name()": {
        "details": "Returns the name of the token."
      },
      "symbol()": {
        "details": "Returns the symbol of the token, usually a shorter version of the name."
      },
      "totalSupply()": {
        "details": "See {IERC20-totalSupply}."
      },
      "transferFrom(address,address,uint256)": {
        "details": "See {IERC20-transferFrom}. Emits an {Approval} event indicating the updated allowance. This is not required by the EIP. See the note at the beginning of {ERC20}; Requirements: - `sender` and `recipient` cannot be the zero address. - `sender` must have a balance of at least `amount`. - the caller must have allowance for ``sender``'s tokens of at least `amount`."
      }
    }
  },
  "userdoc": {
    "methods": {}
  }
}