{
  "contractName": "Coupons",
  "abi": [
    {
      "inputs": [
        {
          "internalType": "string",
          "name": "name",
          "type": "string"
        },
        {
          "internalType": "string",
          "name": "symbol",
          "type": "string"
        },
        {
          "internalType": "string",
          "name": "id",
          "type": "string"
        },
        {
          "internalType": "string[]",
          "name": "storeId",
          "type": "string[]"
        },
        {
          "internalType": "uint256",
          "name": "expireTime",
          "type": "uint256"
        },
        {
          "internalType": "uint256",
          "name": "issueTime",
          "type": "uint256"
        }
      ],
      "stateMutability": "nonpayable",
      "type": "constructor"
    },
    {
      "anonymous": false,
      "inputs": [
        {
          "indexed": true,
          "internalType": "address",
          "name": "owner",
          "type": "address"
        },
        {
          "indexed": true,
          "internalType": "address",
          "name": "spender",
          "type": "address"
        },
        {
          "indexed": false,
          "internalType": "uint256",
          "name": "value",
          "type": "uint256"
        }
      ],
      "name": "Approval",
      "type": "event"
    },
    {
      "anonymous": false,
      "inputs": [
        {
          "indexed": true,
          "internalType": "bytes32",
          "name": "orderHash",
          "type": "bytes32"
        }
      ],
      "name": "Cancel",
      "type": "event"
    },
    {
      "anonymous": false,
      "inputs": [
        {
          "indexed": false,
          "internalType": "address",
          "name": "token",
          "type": "address"
        },
        {
          "indexed": false,
          "internalType": "address",
          "name": "user",
          "type": "address"
        },
        {
          "indexed": false,
          "internalType": "uint256",
          "name": "amount",
          "type": "uint256"
        },
        {
          "indexed": false,
          "internalType": "uint256",
          "name": "balance",
          "type": "uint256"
        }
      ],
      "name": "Deposit",
      "type": "event"
    },
    {
      "anonymous": false,
      "inputs": [
        {
          "indexed": false,
          "internalType": "address",
          "name": "user",
          "type": "address"
        },
        {
          "indexed": false,
          "internalType": "address",
          "name": "newContract",
          "type": "address"
        }
      ],
      "name": "FundsMigrated",
      "type": "event"
    },
    {
      "anonymous": false,
      "inputs": [
        {
          "indexed": false,
          "internalType": "string",
          "name": "name",
          "type": "string"
        },
        {
          "indexed": false,
          "internalType": "string",
          "name": "symbol",
          "type": "string"
        },
        {
          "indexed": false,
          "internalType": "string",
          "name": "id",
          "type": "string"
        },
        {
          "indexed": false,
          "internalType": "string[]",
          "name": "storeId",
          "type": "string[]"
        },
        {
          "indexed": false,
          "internalType": "uint256",
          "name": "expireTime",
          "type": "uint256"
        },
        {
          "indexed": false,
          "internalType": "uint256",
          "name": "issueTime",
          "type": "uint256"
        }
      ],
      "name": "NewCoupon",
      "type": "event"
    },
    {
      "anonymous": false,
      "inputs": [
        {
          "indexed": false,
          "internalType": "address",
          "name": "tokenGet",
          "type": "address"
        },
        {
          "indexed": false,
          "internalType": "uint256",
          "name": "amountGet",
          "type": "uint256"
        },
        {
          "indexed": false,
          "internalType": "address",
          "name": "tokenGive",
          "type": "address"
        },
        {
          "indexed": false,
          "internalType": "uint256",
          "name": "amountGive",
          "type": "uint256"
        },
        {
          "indexed": false,
          "internalType": "uint256",
          "name": "nonce",
          "type": "uint256"
        },
        {
          "indexed": false,
          "internalType": "address",
          "name": "maker",
          "type": "address"
        },
        {
          "indexed": true,
          "internalType": "bytes32",
          "name": "orderHash",
          "type": "bytes32"
        }
      ],
      "name": "OrderForUser",
      "type": "event"
    },
    {
      "anonymous": false,
      "inputs": [
        {
          "indexed": true,
          "internalType": "bytes32",
          "name": "orderHash",
          "type": "bytes32"
        },
        {
          "indexed": false,
          "internalType": "uint256",
          "name": "amount",
          "type": "uint256"
        },
        {
          "indexed": false,
          "internalType": "address",
          "name": "give",
          "type": "address"
        }
      ],
      "name": "TradeForUser",
      "type": "event"
    },
    {
      "anonymous": false,
      "inputs": [
        {
          "indexed": true,
          "internalType": "address",
          "name": "from",
          "type": "address"
        },
        {
          "indexed": true,
          "internalType": "address",
          "name": "to",
          "type": "address"
        },
        {
          "indexed": false,
          "internalType": "uint256",
          "name": "value",
          "type": "uint256"
        }
      ],
      "name": "Transfer",
      "type": "event"
    },
    {
      "anonymous": false,
      "inputs": [
        {
          "indexed": false,
          "internalType": "address",
          "name": "token",
          "type": "address"
        },
        {
          "indexed": false,
          "internalType": "address",
          "name": "user",
          "type": "address"
        },
        {
          "indexed": false,
          "internalType": "uint256",
          "name": "amount",
          "type": "uint256"
        },
        {
          "indexed": false,
          "internalType": "uint256",
          "name": "balance",
          "type": "uint256"
        }
      ],
      "name": "Withdraw",
      "type": "event"
    },
    {
      "inputs": [
        {
          "internalType": "address",
          "name": "owner",
          "type": "address"
        },
        {
          "internalType": "address",
          "name": "spender",
          "type": "address"
        }
      ],
      "name": "allowance",
      "outputs": [
        {
          "internalType": "uint256",
          "name": "",
          "type": "uint256"
        }
      ],
      "stateMutability": "view",
      "type": "function"
    },
    {
      "inputs": [
        {
          "internalType": "address",
          "name": "spender",
          "type": "address"
        },
        {
          "internalType": "uint256",
          "name": "amount",
          "type": "uint256"
        }
      ],
      "name": "approve",
      "outputs": [
        {
          "internalType": "bool",
          "name": "",
          "type": "bool"
        }
      ],
      "stateMutability": "nonpayable",
      "type": "function"
    },
    {
      "inputs": [
        {
          "internalType": "address",
          "name": "account",
          "type": "address"
        }
      ],
      "name": "balanceOf",
      "outputs": [
        {
          "internalType": "uint256",
          "name": "",
          "type": "uint256"
        }
      ],
      "stateMutability": "view",
      "type": "function"
    },
    {
      "inputs": [
        {
          "internalType": "uint256",
          "name": "",
          "type": "uint256"
        }
      ],
      "name": "coupons",
      "outputs": [
        {
          "internalType": "string",
          "name": "name",
          "type": "string"
        },
        {
          "internalType": "string",
          "name": "symbol",
          "type": "string"
        },
        {
          "internalType": "string",
          "name": "id",
          "type": "string"
        },
        {
          "internalType": "uint256",
          "name": "expireTime",
          "type": "uint256"
        },
        {
          "internalType": "uint256",
          "name": "issueTime",
          "type": "uint256"
        }
      ],
      "stateMutability": "view",
      "type": "function"
    },
    {
      "inputs": [],
      "name": "decimals",
      "outputs": [
        {
          "internalType": "uint8",
          "name": "",
          "type": "uint8"
        }
      ],
      "stateMutability": "view",
      "type": "function"
    },
    {
      "inputs": [
        {
          "internalType": "address",
          "name": "spender",
          "type": "address"
        },
        {
          "internalType": "uint256",
          "name": "subtractedValue",
          "type": "uint256"
        }
      ],
      "name": "decreaseAllowance",
      "outputs": [
        {
          "internalType": "bool",
          "name": "",
          "type": "bool"
        }
      ],
      "stateMutability": "nonpayable",
      "type": "function"
    },
    {
      "inputs": [],
      "name": "getFeeAddress",
      "outputs": [
        {
          "internalType": "address",
          "name": "fAddress",
          "type": "address"
        }
      ],
      "stateMutability": "view",
      "type": "function"
    },
    {
      "inputs": [
        {
          "internalType": "address",
          "name": "spender",
          "type": "address"
        },
        {
          "internalType": "uint256",
          "name": "addedValue",
          "type": "uint256"
        }
      ],
      "name": "increaseAllowance",
      "outputs": [
        {
          "internalType": "bool",
          "name": "",
          "type": "bool"
        }
      ],
      "stateMutability": "nonpayable",
      "type": "function"
    },
    {
      "inputs": [],
      "name": "name",
      "outputs": [
        {
          "internalType": "string",
          "name": "",
          "type": "string"
        }
      ],
      "stateMutability": "view",
      "type": "function"
    },
    {
      "inputs": [],
      "name": "symbol",
      "outputs": [
        {
          "internalType": "string",
          "name": "",
          "type": "string"
        }
      ],
      "stateMutability": "view",
      "type": "function"
    },
    {
      "inputs": [
        {
          "internalType": "address",
          "name": "",
          "type": "address"
        },
        {
          "internalType": "address",
          "name": "",
          "type": "address"
        }
      ],
      "name": "tokens",
      "outputs": [
        {
          "internalType": "uint256",
          "name": "",
          "type": "uint256"
        }
      ],
      "stateMutability": "view",
      "type": "function"
    },
    {
      "inputs": [],
      "name": "totalSupply",
      "outputs": [
        {
          "internalType": "uint256",
          "name": "",
          "type": "uint256"
        }
      ],
      "stateMutability": "view",
      "type": "function"
    },
    {
      "inputs": [
        {
          "internalType": "address",
          "name": "sender",
          "type": "address"
        },
        {
          "internalType": "address",
          "name": "recipient",
          "type": "address"
        },
        {
          "internalType": "uint256",
          "name": "amount",
          "type": "uint256"
        }
      ],
      "name": "transferFrom",
      "outputs": [
        {
          "internalType": "bool",
          "name": "",
          "type": "bool"
        }
      ],
      "stateMutability": "nonpayable",
      "type": "function"
    },
    {
      "inputs": [],
      "name": "getInfo",
      "outputs": [
        {
          "components": [
            {
              "internalType": "string",
              "name": "name",
              "type": "string"
            },
            {
              "internalType": "string",
              "name": "symbol",
              "type": "string"
            },
            {
              "internalType": "string",
              "name": "id",
              "type": "string"
            },
            {
              "internalType": "string[]",
              "name": "storeId",
              "type": "string[]"
            },
            {
              "internalType": "uint256",
              "name": "expireTime",
              "type": "uint256"
            },
            {
              "internalType": "uint256",
              "name": "issueTime",
              "type": "uint256"
            }
          ],
          "internalType": "struct Coupons.Coupon",
          "name": "cp",
          "type": "tuple"
        }
      ],
      "stateMutability": "view",
      "type": "function"
    },
    {
      "inputs": [
        {
          "internalType": "address",
          "name": "userAddress",
          "type": "address"
        }
      ],
      "name": "getBalance",
      "outputs": [
        {
          "internalType": "uint256",
          "name": "",
          "type": "uint256"
        }
      ],
      "stateMutability": "view",
      "type": "function"
    },
    {
      "inputs": [
        {
          "internalType": "address",
          "name": "tokenAddress",
          "type": "address"
        },
        {
          "internalType": "uint256",
          "name": "amount",
          "type": "uint256"
        }
      ],
      "name": "withdraw",
      "outputs": [
        {
          "internalType": "address",
          "name": "",
          "type": "address"
        }
      ],
      "stateMutability": "payable",
      "type": "function"
    },
    {
      "inputs": [
        {
          "internalType": "address",
          "name": "tokenAddress",
          "type": "address"
        },
        {
          "internalType": "address[]",
          "name": "staff",
          "type": "address[]"
        },
        {
          "internalType": "uint256",
          "name": "amount",
          "type": "uint256"
        }
      ],
      "name": "batchMint",
      "outputs": [],
      "stateMutability": "nonpayable",
      "type": "function"
    },
    {
      "inputs": [
        {
          "internalType": "address",
          "name": "tokenAddress",
          "type": "address"
        },
        {
          "internalType": "address",
          "name": "enterpriseAddress",
          "type": "address"
        },
        {
          "internalType": "uint256",
          "name": "amount",
          "type": "uint256"
        }
      ],
      "name": "issue",
      "outputs": [],
      "stateMutability": "nonpayable",
      "type": "function"
    },
    {
      "inputs": [
        {
          "internalType": "address",
          "name": "tokenAddress",
          "type": "address"
        },
        {
          "internalType": "address",
          "name": "staff",
          "type": "address"
        },
        {
          "internalType": "uint256",
          "name": "amount",
          "type": "uint256"
        }
      ],
      "name": "mint",
      "outputs": [],
      "stateMutability": "nonpayable",
      "type": "function"
    },
    {
      "inputs": [
        {
          "internalType": "address",
          "name": "account",
          "type": "address"
        },
        {
          "internalType": "uint256",
          "name": "amount",
          "type": "uint256"
        }
      ],
      "name": "burn",
      "outputs": [],
      "stateMutability": "nonpayable",
      "type": "function"
    },
    {
      "inputs": [
        {
          "internalType": "address",
          "name": "recipient",
          "type": "address"
        },
        {
          "internalType": "uint256",
          "name": "amount",
          "type": "uint256"
        }
      ],
      "name": "transfer",
      "outputs": [
        {
          "internalType": "bool",
          "name": "",
          "type": "bool"
        }
      ],
      "stateMutability": "nonpayable",
      "type": "function"
    },
    {
      "inputs": [
        {
          "internalType": "address",
          "name": "recipient",
          "type": "address"
        },
        {
          "internalType": "uint256",
          "name": "amount",
          "type": "uint256"
        }
      ],
      "name": "refund",
      "outputs": [
        {
          "internalType": "bool",
          "name": "",
          "type": "bool"
        }
      ],
      "stateMutability": "nonpayable",
      "type": "function"
    }
  ],
  "bytecode": "0x60806040523480156200001157600080fd5b5060405162003fa038038062003fa0833981810160405281019062000037919062000692565b85858160039080519060200190620000519291906200040f565b5080600490805190602001906200006a9291906200040f565b506012600560006101000a81548160ff021916908360ff1602179055505050620000b3336200009e620001ec60201b60201c565b60ff16600a0a6000026200020360201b60201c565b60076040518060c001604052808881526020018781526020018681526020018581526020018481526020018381525090806001815401808255809150506001900390600052602060002090600602016000909190919091506000820151816000019080519060200190620001299291906200040f565b506020820151816001019080519060200190620001489291906200040f565b506040820151816002019080519060200190620001679291906200040f565b5060608201518160030190805190602001906200018692919062000496565b506080820151816004015560a0820151816005015550507f703fca694b65baeb006e0106553897b88844f16761a46e672841b3ee04185446868686868686604051620001d8969594939291906200093a565b60405180910390a150505050505062000b79565b6000600560009054906101000a900460ff16905090565b600073ffffffffffffffffffffffffffffffffffffffff168273ffffffffffffffffffffffffffffffffffffffff16141562000276576040517f08c379a00000000000000000000000000000000000000000000000000000000081526004016200026d90620009e5565b60405180910390fd5b6200028a60008383620003b260201b60201c565b620002a681600254620003b760201b62001aa21790919060201c565b60028190555062000304816000808573ffffffffffffffffffffffffffffffffffffffff1673ffffffffffffffffffffffffffffffffffffffff16815260200190815260200160002054620003b760201b62001aa21790919060201c565b6000808473ffffffffffffffffffffffffffffffffffffffff1673ffffffffffffffffffffffffffffffffffffffff168152602001908152602001600020819055508173ffffffffffffffffffffffffffffffffffffffff16600073ffffffffffffffffffffffffffffffffffffffff167fddf252ad1be2c89b69c2b068fc378daa952ba7f163c4a11628f55a4df523b3ef83604051620003a6919062000a07565b60405180910390a35050565b505050565b60008082840190508381101562000405576040517f08c379a0000000000000000000000000000000000000000000000000000000008152600401620003fc90620009c3565b60405180910390fd5b8091505092915050565b828054600181600116156101000203166002900490600052602060002090601f016020900481019282601f106200045257805160ff191683800117855562000483565b8280016001018555821562000483579182015b828111156200048257825182559160200191906001019062000465565b5b509050620004929190620004fd565b5090565b828054828255906000526020600020908101928215620004ea579160200282015b82811115620004e9578251829080519060200190620004d89291906200040f565b5091602001919060010190620004b7565b5b509050620004f9919062000525565b5090565b6200052291905b808211156200051e57600081600090555060010162000504565b5090565b90565b6200055391905b808211156200054f576000818162000545919062000556565b506001016200052c565b5090565b90565b50805460018160011615610100020316600290046000825580601f106200057e57506200059f565b601f0160209004906000526020600020908101906200059e9190620004fd565b5b50565b600082601f830112620005b457600080fd5b8151620005cb620005c58262000a52565b62000a24565b9150818183526020840193506020810190508360005b83811015620006155781518601620005fa88826200061f565b845260208401935060208301925050600181019050620005e1565b5050505092915050565b600082601f8301126200063157600080fd5b815162000648620006428262000a7b565b62000a24565b915080825260208301602083018583830111156200066557600080fd5b6200067283828462000b18565b50505092915050565b6000815190506200068c8162000b5f565b92915050565b60008060008060008060c08789031215620006ac57600080fd5b600087015167ffffffffffffffff811115620006c757600080fd5b620006d589828a016200061f565b965050602087015167ffffffffffffffff811115620006f357600080fd5b6200070189828a016200061f565b955050604087015167ffffffffffffffff8111156200071f57600080fd5b6200072d89828a016200061f565b945050606087015167ffffffffffffffff8111156200074b57600080fd5b6200075989828a01620005a2565b93505060806200076c89828a016200067b565b92505060a06200077f89828a016200067b565b9150509295509295509295565b60006200079a838362000823565b905092915050565b6000620007af8262000ab8565b620007bb818562000adb565b935083602082028501620007cf8562000aa8565b8060005b85811015620008115784840389528151620007ef85826200078c565b9450620007fc8362000ace565b925060208a01995050600181019050620007d3565b50829750879550505050505092915050565b6000620008308262000ac3565b6200083c818562000aec565b93506200084e81856020860162000b18565b620008598162000b4e565b840191505092915050565b6000620008718262000ac3565b6200087d818562000afd565b93506200088f81856020860162000b18565b6200089a8162000b4e565b840191505092915050565b6000620008b4601b8362000afd565b91507f536166654d6174683a206164646974696f6e206f766572666c6f7700000000006000830152602082019050919050565b6000620008f6601f8362000afd565b91507f45524332303a206d696e7420746f20746865207a65726f2061646472657373006000830152602082019050919050565b620009348162000b0e565b82525050565b600060c082019050818103600083015262000956818962000864565b905081810360208301526200096c818862000864565b9050818103604083015262000982818762000864565b90508181036060830152620009988186620007a2565b9050620009a9608083018562000929565b620009b860a083018462000929565b979650505050505050565b60006020820190508181036000830152620009de81620008a5565b9050919050565b6000602082019050818103600083015262000a0081620008e7565b9050919050565b600060208201905062000a1e600083018462000929565b92915050565b6000604051905081810181811067ffffffffffffffff8211171562000a4857600080fd5b8060405250919050565b600067ffffffffffffffff82111562000a6a57600080fd5b602082029050602081019050919050565b600067ffffffffffffffff82111562000a9357600080fd5b601f19601f8301169050602081019050919050565b6000819050602082019050919050565b600081519050919050565b600081519050919050565b6000602082019050919050565b600082825260208201905092915050565b600082825260208201905092915050565b600082825260208201905092915050565b6000819050919050565b60005b8381101562000b3857808201518184015260208101905062000b1b565b8381111562000b48576000848401525b50505050565b6000601f19601f8301169050919050565b62000b6a8162000b0e565b811462000b7657600080fd5b50565b6134178062000b896000396000f3fe6080604052600436106101355760003560e01c806370a08231116100ab578063a9059cbb1161006f578063a9059cbb1461047a578063b6139992146104b7578063c6c3bbe6146104e0578063dd62ed3e14610509578063f3fef3a314610546578063f8b2cb4f1461057657610135565b806370a082311461038357806395d89b41146103c05780639717e746146103eb5780639dc29fac14610414578063a457c2d71461043d57610135565b8063313ce567116100fd578063313ce5671461024b5780633950935114610276578063410085df146102b35780634e7ceacb146102f0578063508493bc1461031b5780635a9b0b891461035857610135565b806306fdde031461013a578063095ea7b31461016557806318160ddd146101a257806323b872dd146101cd57806330828e921461020a575b600080fd5b34801561014657600080fd5b5061014f6105b3565b60405161015c9190612f4f565b60405180910390f35b34801561017157600080fd5b5061018c60048036038101906101879190612840565b610655565b6040516101999190612f34565b60405180910390f35b3480156101ae57600080fd5b506101b7610673565b6040516101c4919061311b565b60405180910390f35b3480156101d957600080fd5b506101f460048036038101906101ef919061278a565b61067d565b6040516102019190612f34565b60405180910390f35b34801561021657600080fd5b50610231600480360381019061022c9190612927565b610756565b604051610242959493929190612f71565b60405180910390f35b34801561025757600080fd5b50610260610961565b60405161026d9190613136565b60405180910390f35b34801561028257600080fd5b5061029d60048036038101906102989190612840565b610978565b6040516102aa9190612f34565b60405180910390f35b3480156102bf57600080fd5b506102da60048036038101906102d59190612840565b610a2b565b6040516102e79190612f34565b60405180910390f35b3480156102fc57600080fd5b50610305610bd1565b6040516103129190612e90565b60405180910390f35b34801561032757600080fd5b50610342600480360381019061033d919061274e565b610c6f565b60405161034f919061311b565b60405180910390f35b34801561036457600080fd5b5061036d610c94565b60405161037a91906130f9565b60405180910390f35b34801561038f57600080fd5b506103aa60048036038101906103a591906126fc565b610fab565b6040516103b7919061311b565b60405180910390f35b3480156103cc57600080fd5b506103d5610ff3565b6040516103e29190612f4f565b60405180910390f35b3480156103f757600080fd5b50610412600480360381019061040d91906127d9565b611095565b005b34801561042057600080fd5b5061043b60048036038101906104369190612840565b611239565b005b34801561044957600080fd5b50610464600480360381019061045f9190612840565b6113d7565b6040516104719190612f34565b60405180910390f35b34801561048657600080fd5b506104a1600480360381019061049c9190612840565b6114a4565b6040516104ae9190612f34565b60405180910390f35b3480156104c357600080fd5b506104de60048036038101906104d9919061278a565b6114bb565b005b3480156104ec57600080fd5b506105076004803603810190610502919061278a565b611602565b005b34801561051557600080fd5b50610530600480360381019061052b919061274e565b611837565b60405161053d919061311b565b60405180910390f35b610560600480360381019061055b9190612840565b6118be565b60405161056d9190612e90565b60405180910390f35b34801561058257600080fd5b5061059d600480360381019061059891906126fc565b611a90565b6040516105aa919061311b565b60405180910390f35b606060038054600181600116156101000203166002900480601f01602080910402602001604051908101604052809291908181526020018280546001816001161561010002031660029004801561064b5780601f106106205761010080835404028352916020019161064b565b820191906000526020600020905b81548152906001019060200180831161062e57829003601f168201915b5050505050905090565b6000610669610662611af7565b8484611aff565b6001905092915050565b6000600254905090565b600061068a848484611cca565b61074b84610696611af7565b6107468560405180606001604052806028815260200161339560289139600160008b73ffffffffffffffffffffffffffffffffffffffff1673ffffffffffffffffffffffffffffffffffffffff16815260200190815260200160002060006106fc611af7565b73ffffffffffffffffffffffffffffffffffffffff1673ffffffffffffffffffffffffffffffffffffffff16815260200190815260200160002054611f5f9092919063ffffffff16565b611aff565b600190509392505050565b6007818154811061076357fe5b9060005260206000209060060201600091509050806000018054600181600116156101000203166002900480601f01602080910402602001604051908101604052809291908181526020018280546001816001161561010002031660029004801561080f5780601f106107e45761010080835404028352916020019161080f565b820191906000526020600020905b8154815290600101906020018083116107f257829003601f168201915b505050505090806001018054600181600116156101000203166002900480601f0160208091040260200160405190810160405280929190818152602001828054600181600116156101000203166002900480156108ad5780601f10610882576101008083540402835291602001916108ad565b820191906000526020600020905b81548152906001019060200180831161089057829003601f168201915b505050505090806002018054600181600116156101000203166002900480601f01602080910402602001604051908101604052809291908181526020018280546001816001161561010002031660029004801561094b5780601f106109205761010080835404028352916020019161094b565b820191906000526020600020905b81548152906001019060200180831161092e57829003601f168201915b5050505050908060040154908060050154905085565b6000600560009054906101000a900460ff16905090565b6000610a21610985611af7565b84610a1c8560016000610996611af7565b73ffffffffffffffffffffffffffffffffffffffff1673ffffffffffffffffffffffffffffffffffffffff16815260200190815260200160002060008973ffffffffffffffffffffffffffffffffffffffff1673ffffffffffffffffffffffffffffffffffffffff16815260200190815260200160002054611aa290919063ffffffff16565b611aff565b6001905092915050565b6000807322e7dd9b7c2708de833b880ef9804d3e31689fa69050600080905060008090505b8273ffffffffffffffffffffffffffffffffffffffff1663aa0cd2b86040518163ffffffff1660e01b815260040160206040518083038186803b158015610a9657600080fd5b505afa158015610aaa573d6000803e3d6000fd5b505050506040513d601f19601f82011682018060405250810190610ace9190612950565b811015610bac578273ffffffffffffffffffffffffffffffffffffffff1663335499e5826040518263ffffffff1660e01b8152600401610b0e919061311b565b60006040518083038186803b158015610b2657600080fd5b505afa158015610b3a573d6000803e3d6000fd5b505050506040513d6000823e3d601f19601f82011682018060405250810190610b6391906128e6565b6040015173ffffffffffffffffffffffffffffffffffffffff163373ffffffffffffffffffffffffffffffffffffffff161415610b9f57600191505b8080600101915050610a50565b5060018114610bba57600080fd5b610bc5338686611cca565b60019250505092915050565b6000807322e7dd9b7c2708de833b880ef9804d3e31689fa690508073ffffffffffffffffffffffffffffffffffffffff1663412753586040518163ffffffff1660e01b815260040160206040518083038186803b158015610c3157600080fd5b505afa158015610c45573d6000803e3d6000fd5b505050506040513d601f19601f82011682018060405250810190610c699190612725565b91505090565b6006602052816000526040600020602052806000526040600020600091509150505481565b610c9c612466565b6007600081548110610caa57fe5b90600052602060002090600602016040518060c0016040529081600082018054600181600116156101000203166002900480601f016020809104026020016040519081016040528092919081815260200182805460018160011615610100020316600290048015610d5c5780601f10610d3157610100808354040283529160200191610d5c565b820191906000526020600020905b815481529060010190602001808311610d3f57829003601f168201915b50505050508152602001600182018054600181600116156101000203166002900480601f016020809104026020016040519081016040528092919081815260200182805460018160011615610100020316600290048015610dfe5780601f10610dd357610100808354040283529160200191610dfe565b820191906000526020600020905b815481529060010190602001808311610de157829003601f168201915b50505050508152602001600282018054600181600116156101000203166002900480601f016020809104026020016040519081016040528092919081815260200182805460018160011615610100020316600290048015610ea05780601f10610e7557610100808354040283529160200191610ea0565b820191906000526020600020905b815481529060010190602001808311610e8357829003601f168201915b5050505050815260200160038201805480602002602001604051908101604052809291908181526020016000905b82821015610f8a578382906000526020600020018054600181600116156101000203166002900480601f016020809104026020016040519081016040528092919081815260200182805460018160011615610100020316600290048015610f765780601f10610f4b57610100808354040283529160200191610f76565b820191906000526020600020905b815481529060010190602001808311610f5957829003601f168201915b505050505081526020019060010190610ece565b50505050815260200160048201548152602001600582015481525050905090565b60008060008373ffffffffffffffffffffffffffffffffffffffff1673ffffffffffffffffffffffffffffffffffffffff168152602001908152602001600020549050919050565b606060048054600181600116156101000203166002900480601f01602080910402602001604051908101604052809291908181526020018280546001816001161561010002031660029004801561108b5780601f106110605761010080835404028352916020019161108b565b820191906000526020600020905b81548152906001019060200180831161106e57829003601f168201915b5050505050905090565b60007322e7dd9b7c2708de833b880ef9804d3e31689fa690508073ffffffffffffffffffffffffffffffffffffffff1663fc6f94686040518163ffffffff1660e01b815260040160206040518083038186803b1580156110f457600080fd5b505afa158015611108573d6000803e3d6000fd5b505050506040513d601f19601f8201168201806040525081019061112c9190612725565b73ffffffffffffffffffffffffffffffffffffffff163373ffffffffffffffffffffffffffffffffffffffff161461116357600080fd5b60008090505b83518110156112325760008590508073ffffffffffffffffffffffffffffffffffffffff166323b872dd3330876040518463ffffffff1660e01b81526004016111b493929190612eab565b602060405180830381600087803b1580156111ce57600080fd5b505af11580156111e2573d6000803e3d6000fd5b505050506040513d601f19601f82011682018060405250810190611206919061287c565b5061122485838151811061121657fe5b602002602001015185611fba565b508080600101915050611169565b5050505050565b60007322e7dd9b7c2708de833b880ef9804d3e31689fa69050600080905060008090505b8273ffffffffffffffffffffffffffffffffffffffff1663aa0cd2b86040518163ffffffff1660e01b815260040160206040518083038186803b1580156112a357600080fd5b505afa1580156112b7573d6000803e3d6000fd5b505050506040513d601f19601f820116820180604052508101906112db9190612950565b8110156113b9578273ffffffffffffffffffffffffffffffffffffffff1663335499e5826040518263ffffffff1660e01b815260040161131b919061311b565b60006040518083038186803b15801561133357600080fd5b505afa158015611347573d6000803e3d6000fd5b505050506040513d6000823e3d601f19601f8201168201806040525081019061137091906128e6565b6040015173ffffffffffffffffffffffffffffffffffffffff163373ffffffffffffffffffffffffffffffffffffffff1614156113ac57600191505b808060010191505061125d565b50600181146113c757600080fd5b6113d1848461214e565b50505050565b600061149a6113e4611af7565b84611495856040518060600160405280602581526020016133bd602591396001600061140e611af7565b73ffffffffffffffffffffffffffffffffffffffff1673ffffffffffffffffffffffffffffffffffffffff16815260200190815260200160002060008a73ffffffffffffffffffffffffffffffffffffffff1673ffffffffffffffffffffffffffffffffffffffff16815260200190815260200160002054611f5f9092919063ffffffff16565b611aff565b6001905092915050565b60006114b1338484611cca565b6001905092915050565b60007322e7dd9b7c2708de833b880ef9804d3e31689fa690508073ffffffffffffffffffffffffffffffffffffffff1663fc6f94686040518163ffffffff1660e01b815260040160206040518083038186803b15801561151a57600080fd5b505afa15801561152e573d6000803e3d6000fd5b505050506040513d601f19601f820116820180604052508101906115529190612725565b73ffffffffffffffffffffffffffffffffffffffff163373ffffffffffffffffffffffffffffffffffffffff161461158957600080fd5b60008490508073ffffffffffffffffffffffffffffffffffffffff166340c10f1985856040518363ffffffff1660e01b81526004016115c9929190612f0b565b600060405180830381600087803b1580156115e357600080fd5b505af11580156115f7573d6000803e3d6000fd5b505050505050505050565b60007322e7dd9b7c2708de833b880ef9804d3e31689fa69050600080905060008090505b8273ffffffffffffffffffffffffffffffffffffffff1663662cc7156040518163ffffffff1660e01b815260040160206040518083038186803b15801561166c57600080fd5b505afa158015611680573d6000803e3d6000fd5b505050506040513d601f19601f820116820180604052508101906116a49190612950565b811015611782578273ffffffffffffffffffffffffffffffffffffffff16632182a562826040518263ffffffff1660e01b81526004016116e4919061311b565b60006040518083038186803b1580156116fc57600080fd5b505afa158015611710573d6000803e3d6000fd5b505050506040513d6000823e3d601f19601f8201168201806040525081019061173991906128a5565b6040015173ffffffffffffffffffffffffffffffffffffffff163373ffffffffffffffffffffffffffffffffffffffff16141561177557600191505b8080600101915050611626565b506001811461179057600080fd5b60008590508073ffffffffffffffffffffffffffffffffffffffff166323b872dd3330876040518463ffffffff1660e01b81526004016117d293929190612eab565b602060405180830381600087803b1580156117ec57600080fd5b505af1158015611800573d6000803e3d6000fd5b505050506040513d601f19601f82011682018060405250810190611824919061287c565b5061182f8585611fba565b505050505050565b6000600160008473ffffffffffffffffffffffffffffffffffffffff1673ffffffffffffffffffffffffffffffffffffffff16815260200190815260200160002060008373ffffffffffffffffffffffffffffffffffffffff1673ffffffffffffffffffffffffffffffffffffffff16815260200190815260200160002054905092915050565b6000816118ca33611a90565b101561190b576040517f08c379a000000000000000000000000000000000000000000000000000000000815260040161190290613039565b60405180910390fd5b6119153383611239565b60008390508073ffffffffffffffffffffffffffffffffffffffff1663a9059cbb3361195e600a6119506009896122fc90919063ffffffff16565b61236c90919063ffffffff16565b6040518363ffffffff1660e01b815260040161197b929190612ee2565b602060405180830381600087803b15801561199557600080fd5b505af11580156119a9573d6000803e3d6000fd5b505050506040513d601f19601f820116820180604052508101906119cd919061287c565b508073ffffffffffffffffffffffffffffffffffffffff1663a9059cbb6119f2610bd1565b611a19600a611a0b6001896122fc90919063ffffffff16565b61236c90919063ffffffff16565b6040518363ffffffff1660e01b8152600401611a36929190612f0b565b602060405180830381600087803b158015611a5057600080fd5b505af1158015611a64573d6000803e3d6000fd5b505050506040513d601f19601f82011682018060405250810190611a88919061287c565b505092915050565b6000611a9b82610fab565b9050919050565b600080828401905083811015611aed576040517f08c379a0000000000000000000000000000000000000000000000000000000008152600401611ae490613019565b60405180910390fd5b8091505092915050565b600033905090565b600073ffffffffffffffffffffffffffffffffffffffff168373ffffffffffffffffffffffffffffffffffffffff161415611b6f576040517f08c379a0000000000000000000000000000000000000000000000000000000008152600401611b66906130b9565b60405180910390fd5b600073ffffffffffffffffffffffffffffffffffffffff168273ffffffffffffffffffffffffffffffffffffffff161415611bdf576040517f08c379a0000000000000000000000000000000000000000000000000000000008152600401611bd690612ff9565b60405180910390fd5b80600160008573ffffffffffffffffffffffffffffffffffffffff1673ffffffffffffffffffffffffffffffffffffffff16815260200190815260200160002060008473ffffffffffffffffffffffffffffffffffffffff1673ffffffffffffffffffffffffffffffffffffffff168152602001908152602001600020819055508173ffffffffffffffffffffffffffffffffffffffff168373ffffffffffffffffffffffffffffffffffffffff167f8c5be1e5ebec7d5bd14f71427d1e84f3dd0314c0f7b2291e5b200ac8c7c3b92583604051611cbd919061311b565b60405180910390a3505050565b600073ffffffffffffffffffffffffffffffffffffffff168373ffffffffffffffffffffffffffffffffffffffff161415611d3a576040517f08c379a0000000000000000000000000000000000000000000000000000000008152600401611d3190613099565b60405180910390fd5b600073ffffffffffffffffffffffffffffffffffffffff168273ffffffffffffffffffffffffffffffffffffffff161415611daa576040517f08c379a0000000000000000000000000000000000000000000000000000000008152600401611da190612fd9565b60405180910390fd5b611db58383836123b6565b611e208160405180606001604052806026815260200161336f602691396000808773ffffffffffffffffffffffffffffffffffffffff1673ffffffffffffffffffffffffffffffffffffffff16815260200190815260200160002054611f5f9092919063ffffffff16565b6000808573ffffffffffffffffffffffffffffffffffffffff1673ffffffffffffffffffffffffffffffffffffffff16815260200190815260200160002081905550611eb3816000808573ffffffffffffffffffffffffffffffffffffffff1673ffffffffffffffffffffffffffffffffffffffff16815260200190815260200160002054611aa290919063ffffffff16565b6000808473ffffffffffffffffffffffffffffffffffffffff1673ffffffffffffffffffffffffffffffffffffffff168152602001908152602001600020819055508173ffffffffffffffffffffffffffffffffffffffff168373ffffffffffffffffffffffffffffffffffffffff167fddf252ad1be2c89b69c2b068fc378daa952ba7f163c4a11628f55a4df523b3ef83604051611f52919061311b565b60405180910390a3505050565b6000838311158290611fa7576040517f08c379a0000000000000000000000000000000000000000000000000000000008152600401611f9e9190612f4f565b60405180910390fd5b5060008385039050809150509392505050565b600073ffffffffffffffffffffffffffffffffffffffff168273ffffffffffffffffffffffffffffffffffffffff16141561202a576040517f08c379a0000000000000000000000000000000000000000000000000000000008152600401612021906130d9565b60405180910390fd5b612036600083836123b6565b61204b81600254611aa290919063ffffffff16565b6002819055506120a2816000808573ffffffffffffffffffffffffffffffffffffffff1673ffffffffffffffffffffffffffffffffffffffff16815260200190815260200160002054611aa290919063ffffffff16565b6000808473ffffffffffffffffffffffffffffffffffffffff1673ffffffffffffffffffffffffffffffffffffffff168152602001908152602001600020819055508173ffffffffffffffffffffffffffffffffffffffff16600073ffffffffffffffffffffffffffffffffffffffff167fddf252ad1be2c89b69c2b068fc378daa952ba7f163c4a11628f55a4df523b3ef83604051612142919061311b565b60405180910390a35050565b600073ffffffffffffffffffffffffffffffffffffffff168273ffffffffffffffffffffffffffffffffffffffff1614156121be576040517f08c379a00000000000000000000000000000000000000000000000000000000081526004016121b590613079565b60405180910390fd5b6121ca826000836123b6565b6122358160405180606001604052806022815260200161334d602291396000808673ffffffffffffffffffffffffffffffffffffffff1673ffffffffffffffffffffffffffffffffffffffff16815260200190815260200160002054611f5f9092919063ffffffff16565b6000808473ffffffffffffffffffffffffffffffffffffffff1673ffffffffffffffffffffffffffffffffffffffff1681526020019081526020016000208190555061228c816002546123bb90919063ffffffff16565b600281905550600073ffffffffffffffffffffffffffffffffffffffff168273ffffffffffffffffffffffffffffffffffffffff167fddf252ad1be2c89b69c2b068fc378daa952ba7f163c4a11628f55a4df523b3ef836040516122f0919061311b565b60405180910390a35050565b60008083141561230f5760009050612366565b600082840290508284828161232057fe5b0414612361576040517f08c379a000000000000000000000000000000000000000000000000000000000815260040161235890613059565b60405180910390fd5b809150505b92915050565b60006123ae83836040518060400160405280601a81526020017f536166654d6174683a206469766973696f6e206279207a65726f000000000000815250612405565b905092915050565b505050565b60006123fd83836040518060400160405280601e81526020017f536166654d6174683a207375627472616374696f6e206f766572666c6f770000815250611f5f565b905092915050565b6000808311829061244c576040517f08c379a00000000000000000000000000000000000000000000000000000000081526004016124439190612f4f565b60405180910390fd5b50600083858161245857fe5b049050809150509392505050565b6040518060c001604052806060815260200160608152602001606081526020016060815260200160008152602001600081525090565b6000813590506124ab81613307565b92915050565b6000815190506124c081613307565b92915050565b600082601f8301126124d757600080fd5b81356124ea6124e58261317e565b613151565b9150818183526020840193506020810190508385602084028201111561250f57600080fd5b60005b8381101561253f5781612525888261249c565b845260208401935060208301925050600181019050612512565b5050505092915050565b6000815190506125588161331e565b92915050565b600082601f83011261256f57600080fd5b815161258261257d826131a6565b613151565b9150808252602083016020830185838301111561259e57600080fd5b6125a98382846132c3565b50505092915050565b6000606082840312156125c457600080fd5b6125ce6060613151565b9050600082015167ffffffffffffffff8111156125ea57600080fd5b6125f68482850161255e565b600083015250602082015167ffffffffffffffff81111561261657600080fd5b6126228482850161255e565b6020830152506040612636848285016124b1565b60408301525092915050565b60006060828403121561265457600080fd5b61265e6060613151565b9050600082015167ffffffffffffffff81111561267a57600080fd5b6126868482850161255e565b600083015250602082015167ffffffffffffffff8111156126a657600080fd5b6126b28482850161255e565b60208301525060406126c6848285016124b1565b60408301525092915050565b6000813590506126e181613335565b92915050565b6000815190506126f681613335565b92915050565b60006020828403121561270e57600080fd5b600061271c8482850161249c565b91505092915050565b60006020828403121561273757600080fd5b6000612745848285016124b1565b91505092915050565b6000806040838503121561276157600080fd5b600061276f8582860161249c565b92505060206127808582860161249c565b9150509250929050565b60008060006060848603121561279f57600080fd5b60006127ad8682870161249c565b93505060206127be8682870161249c565b92505060406127cf868287016126d2565b9150509250925092565b6000806000606084860312156127ee57600080fd5b60006127fc8682870161249c565b935050602084013567ffffffffffffffff81111561281957600080fd5b612825868287016124c6565b9250506040612836868287016126d2565b9150509250925092565b6000806040838503121561285357600080fd5b60006128618582860161249c565b9250506020612872858286016126d2565b9150509250929050565b60006020828403121561288e57600080fd5b600061289c84828501612549565b91505092915050565b6000602082840312156128b757600080fd5b600082015167ffffffffffffffff8111156128d157600080fd5b6128dd848285016125b2565b91505092915050565b6000602082840312156128f857600080fd5b600082015167ffffffffffffffff81111561291257600080fd5b61291e84828501612642565b91505092915050565b60006020828403121561293957600080fd5b6000612947848285016126d2565b91505092915050565b60006020828403121561296257600080fd5b6000612970848285016126e7565b91505092915050565b60006129858383612a2f565b905092915050565b6129968161328d565b82525050565b6129a581613238565b82525050565b60006129b6826131e2565b6129c08185613205565b9350836020820285016129d2856131d2565b8060005b85811015612a0e57848403895281516129ef8582612979565b94506129fa836131f8565b925060208a019950506001810190506129d6565b50829750879550505050505092915050565b612a298161324a565b82525050565b6000612a3a826131ed565b612a448185613216565b9350612a548185602086016132c3565b612a5d816132f6565b840191505092915050565b6000612a73826131ed565b612a7d8185613227565b9350612a8d8185602086016132c3565b612a96816132f6565b840191505092915050565b6000612aae602383613227565b91507f45524332303a207472616e7366657220746f20746865207a65726f206164647260008301527f65737300000000000000000000000000000000000000000000000000000000006020830152604082019050919050565b6000612b14602283613227565b91507f45524332303a20617070726f766520746f20746865207a65726f20616464726560008301527f73730000000000000000000000000000000000000000000000000000000000006020830152604082019050919050565b6000612b7a601b83613227565b91507f536166654d6174683a206164646974696f6e206f766572666c6f7700000000006000830152602082019050919050565b6000612bba601683613227565b91507f6e6f74206c6172676572207468616e20616d6f756e74000000000000000000006000830152602082019050919050565b6000612bfa602183613227565b91507f536166654d6174683a206d756c7469706c69636174696f6e206f766572666c6f60008301527f77000000000000000000000000000000000000000000000000000000000000006020830152604082019050919050565b6000612c60602183613227565b91507f45524332303a206275726e2066726f6d20746865207a65726f2061646472657360008301527f73000000000000000000000000000000000000000000000000000000000000006020830152604082019050919050565b6000612cc6602583613227565b91507f45524332303a207472616e736665722066726f6d20746865207a65726f20616460008301527f64726573730000000000000000000000000000000000000000000000000000006020830152604082019050919050565b6000612d2c602483613227565b91507f45524332303a20617070726f76652066726f6d20746865207a65726f2061646460008301527f72657373000000000000000000000000000000000000000000000000000000006020830152604082019050919050565b6000612d92601f83613227565b91507f45524332303a206d696e7420746f20746865207a65726f2061646472657373006000830152602082019050919050565b600060c0830160008301518482036000860152612de28282612a2f565b91505060208301518482036020860152612dfc8282612a2f565b91505060408301518482036040860152612e168282612a2f565b91505060608301518482036060860152612e3082826129ab565b9150506080830151612e456080860182612e63565b5060a0830151612e5860a0860182612e63565b508091505092915050565b612e6c81613276565b82525050565b612e7b81613276565b82525050565b612e8a81613280565b82525050565b6000602082019050612ea5600083018461299c565b92915050565b6000606082019050612ec0600083018661298d565b612ecd602083018561299c565b612eda6040830184612e72565b949350505050565b6000604082019050612ef7600083018561298d565b612f046020830184612e72565b9392505050565b6000604082019050612f20600083018561299c565b612f2d6020830184612e72565b9392505050565b6000602082019050612f496000830184612a20565b92915050565b60006020820190508181036000830152612f698184612a68565b905092915050565b600060a0820190508181036000830152612f8b8188612a68565b90508181036020830152612f9f8187612a68565b90508181036040830152612fb38186612a68565b9050612fc26060830185612e72565b612fcf6080830184612e72565b9695505050505050565b60006020820190508181036000830152612ff281612aa1565b9050919050565b6000602082019050818103600083015261301281612b07565b9050919050565b6000602082019050818103600083015261303281612b6d565b9050919050565b6000602082019050818103600083015261305281612bad565b9050919050565b6000602082019050818103600083015261307281612bed565b9050919050565b6000602082019050818103600083015261309281612c53565b9050919050565b600060208201905081810360008301526130b281612cb9565b9050919050565b600060208201905081810360008301526130d281612d1f565b9050919050565b600060208201905081810360008301526130f281612d85565b9050919050565b600060208201905081810360008301526131138184612dc5565b905092915050565b60006020820190506131306000830184612e72565b92915050565b600060208201905061314b6000830184612e81565b92915050565b6000604051905081810181811067ffffffffffffffff8211171561317457600080fd5b8060405250919050565b600067ffffffffffffffff82111561319557600080fd5b602082029050602081019050919050565b600067ffffffffffffffff8211156131bd57600080fd5b601f19601f8301169050602081019050919050565b6000819050602082019050919050565b600081519050919050565b600081519050919050565b6000602082019050919050565b600082825260208201905092915050565b600082825260208201905092915050565b600082825260208201905092915050565b600061324382613256565b9050919050565b60008115159050919050565b600073ffffffffffffffffffffffffffffffffffffffff82169050919050565b6000819050919050565b600060ff82169050919050565b60006132988261329f565b9050919050565b60006132aa826132b1565b9050919050565b60006132bc82613256565b9050919050565b60005b838110156132e15780820151818401526020810190506132c6565b838111156132f0576000848401525b50505050565b6000601f19601f8301169050919050565b61331081613238565b811461331b57600080fd5b50565b6133278161324a565b811461333257600080fd5b50565b61333e81613276565b811461334957600080fd5b5056fe45524332303a206275726e20616d6f756e7420657863656564732062616c616e636545524332303a207472616e7366657220616d6f756e7420657863656564732062616c616e636545524332303a207472616e7366657220616d6f756e74206578636565647320616c6c6f77616e636545524332303a2064656372656173656420616c6c6f77616e63652062656c6f77207a65726fa2646970667358221220621cd62f05f19f800073623961eb050d6a5a5b9dd1ca311d4df6f41d413518c464736f6c634300060a0033",
  "immutableReferences": {},
  "source": "// SPDX-License-Identifier: MIT\npragma solidity ^0.6.10;\npragma experimental ABIEncoderV2;\n\nimport \"../../access/ACL.sol\";\nimport \"./JJToken.sol\";\n\nimport \"./ERC20.sol\";\nimport \"./IERC20.sol\";\nimport \"../../math/SafeMath.sol\";\n\ncontract Coupons is ERC20, ACL {\n\n    mapping (address => mapping (address => uint)) public tokens; // mapping of token addresses to mapping of account balances (token=0 means Ether)\n\n    event OrderForUser(address tokenGet, uint amountGet, address tokenGive, uint amountGive, uint nonce, address maker, bytes32 indexed orderHash);\n    event TradeForUser(bytes32 indexed orderHash, uint amount, address give);\n    event Cancel(bytes32 indexed orderHash);\n    event Deposit(address token, address user, uint amount, uint balance);\n    event Withdraw(address token, address user, uint amount, uint balance);\n    event FundsMigrated(address user, address newContract);\n\n    struct Coupon {\n        string name;\n        string symbol;\n        string id;\n        string[] storeId;\n        uint256 expireTime;\n        uint256 issueTime;\n    }\n\n    event NewCoupon(string name ,string symbol, string id, string[] storeId, uint256 expireTime, uint256 issueTime);\n\n    constructor (string memory name, string memory symbol, string memory id, string[] memory storeId, uint256 expireTime, uint256 issueTime )\n        ERC20(name, symbol)\n        public\n    {\n        _mint(msg.sender, 0 * 10 ** uint(decimals()));\n        // begin recording message here.\n        // setAdmin(msg.sender);\n        coupons.push(Coupon(name, symbol ,id ,storeId ,expireTime,issueTime));\n        emit NewCoupon(name, symbol ,id ,storeId ,expireTime,issueTime);\n\n    }\n    Coupon[] public coupons;\n\n    function getInfo() public view returns (Coupon memory cp){\n        return coupons[0];\n    }\n\n    function getBalance(address userAddress) public view returns(uint256) {\n        return balanceOf(userAddress);\n    }\n\n    function withdraw(address tokenAddress, uint256 amount) public payable returns(address) {\n        require(getBalance(msg.sender) >= amount, \"not larger than amount\");\n        burn(msg.sender,amount);\n        JJToken jToken = JJToken(tokenAddress);\n        // 90%\n        jToken.transfer(msg.sender, amount.mul(9).div(10));\n        // 10%\n        jToken.transfer(getFeeAddress(), amount.mul(1).div(10));\n    }\n\n    function batchMint(address tokenAddress, address[] memory staff,uint256 amount) onlyAdmin public {\n        for (uint i = 0; i < staff.length; i++) {\n            JJToken jToken = JJToken(tokenAddress);\n            jToken.transferFrom(msg.sender, address(this), amount);\n            _mint(staff[i], amount);\n        }\n    }\n\n    function issue(address tokenAddress, address enterpriseAddress,uint256 amount) onlyAdmin public{\n        JJToken jToken = JJToken(tokenAddress);\n        jToken.mint(enterpriseAddress,amount);\n    }\n\n    function mint(address tokenAddress, address staff, uint256 amount) onlyEnterprise public  {\n        JJToken jToken = JJToken(tokenAddress);\n        jToken.transferFrom(msg.sender, address(this), amount);\n        _mint(staff, amount);\n    }\n\n    function burn(address account, uint256 amount) onlyStore public  {\n        _burn(account, amount);\n    }\n\n    function transfer(address recipient, uint256 amount) public virtual override returns (bool) {\n        _transfer(msg.sender, recipient, amount);\n        return true;\n    }\n\n    function refund(address recipient, uint256 amount) onlyStore public virtual returns (bool) {\n        _transfer(msg.sender, recipient, amount);\n        return true;\n    }\n}\n",
  "sourcePath": "/Users/lu/Desktop/contracts/JJToken/contracts/token/ERC20/Coupons.sol",
  "compiler": {
    "name": "solc",
    "version": "0.6.10+commit.00c0fcaf.Emscripten.clang"
  },
  "schemaVersion": "3.2.3",
  "updatedAt": "2020-08-18T13:18:06.110Z",
  "devdoc": {
    "methods": {
      "allowance(address,address)": {
        "details": "See {IERC20-allowance}."
      },
      "approve(address,uint256)": {
        "details": "See {IERC20-approve}. Requirements: - `spender` cannot be the zero address."
      },
      "balanceOf(address)": {
        "details": "See {IERC20-balanceOf}."
      },
      "decimals()": {
        "details": "Returns the number of decimals used to get its user representation. For example, if `decimals` equals `2`, a balance of `505` tokens should be displayed to a user as `5,05` (`505 / 10 ** 2`). Tokens usually opt for a value of 18, imitating the relationship between Ether and Wei. This is the value {ERC20} uses, unless {_setupDecimals} is called. NOTE: This information is only used for _display_ purposes: it in no way affects any of the arithmetic of the contract, including {IERC20-balanceOf} and {IERC20-transfer}."
      },
      "decreaseAllowance(address,uint256)": {
        "details": "Atomically decreases the allowance granted to `spender` by the caller. This is an alternative to {approve} that can be used as a mitigation for problems described in {IERC20-approve}. Emits an {Approval} event indicating the updated allowance. Requirements: - `spender` cannot be the zero address. - `spender` must have allowance for the caller of at least `subtractedValue`."
      },
      "increaseAllowance(address,uint256)": {
        "details": "Atomically increases the allowance granted to `spender` by the caller. This is an alternative to {approve} that can be used as a mitigation for problems described in {IERC20-approve}. Emits an {Approval} event indicating the updated allowance. Requirements: - `spender` cannot be the zero address."
      },
      "name()": {
        "details": "Returns the name of the token."
      },
      "symbol()": {
        "details": "Returns the symbol of the token, usually a shorter version of the name."
      },
      "totalSupply()": {
        "details": "See {IERC20-totalSupply}."
      },
      "transferFrom(address,address,uint256)": {
        "details": "See {IERC20-transferFrom}. Emits an {Approval} event indicating the updated allowance. This is not required by the EIP. See the note at the beginning of {ERC20}; Requirements: - `sender` and `recipient` cannot be the zero address. - `sender` must have a balance of at least `amount`. - the caller must have allowance for ``sender``'s tokens of at least `amount`."
      }
    }
  },
  "userdoc": {
    "methods": {}
  }
}