{
  "contractName": "ECDSAMock",
  "abi": [
    {
      "inputs": [
        {
          "internalType": "bytes32",
          "name": "hash",
          "type": "bytes32"
        },
        {
          "internalType": "bytes",
          "name": "signature",
          "type": "bytes"
        }
      ],
      "name": "recover",
      "outputs": [
        {
          "internalType": "address",
          "name": "",
          "type": "address"
        }
      ],
      "stateMutability": "pure",
      "type": "function"
    },
    {
      "inputs": [
        {
          "internalType": "bytes32",
          "name": "hash",
          "type": "bytes32"
        }
      ],
      "name": "toEthSignedMessageHash",
      "outputs": [
        {
          "internalType": "bytes32",
          "name": "",
          "type": "bytes32"
        }
      ],
      "stateMutability": "pure",
      "type": "function"
    }
  ],
  "bytecode": "0x608060405234801561001057600080fd5b5061051e806100206000396000f3fe608060405234801561001057600080fd5b50600436106100365760003560e01c806319045a251461003b578063918a15cf14610140575b600080fd5b6100fe6004803603604081101561005157600080fd5b81019080803590602001909291908035906020019064010000000081111561007857600080fd5b82018360208201111561008a57600080fd5b803590602001918460018302840111640100000000831117156100ac57600080fd5b91908080601f016020809104026020016040519081016040528093929190818152602001838380828437600081840152601f19601f820116905080830192505050505050509192919290505050610182565b604051808273ffffffffffffffffffffffffffffffffffffffff1673ffffffffffffffffffffffffffffffffffffffff16815260200191505060405180910390f35b61016c6004803603602081101561015657600080fd5b810190808035906020019092919050505061019f565b6040518082815260200191505060405180910390f35b600061019782846101b190919063ffffffff16565b905092915050565b60006101aa8261044c565b9050919050565b6000604182511461022a576040517f08c379a000000000000000000000000000000000000000000000000000000000815260040180806020018281038252601f8152602001807f45434453413a20696e76616c6964207369676e6174757265206c656e6774680081525060200191505060405180910390fd5b60008060006020850151925060408501519150606085015160001a90507f7fffffffffffffffffffffffffffffff5d576e7357a4501ddfe92f46681b20a08260001c11156102c3576040517f08c379a00000000000000000000000000000000000000000000000000000000081526004018080602001828103825260228152602001806104a56022913960400191505060405180910390fd5b601b8160ff16141580156102db5750601c8160ff1614155b15610331576040517f08c379a00000000000000000000000000000000000000000000000000000000081526004018080602001828103825260228152602001806104c76022913960400191505060405180910390fd5b600060018783868660405160008152602001604052604051808581526020018460ff1660ff1681526020018381526020018281526020019450505050506020604051602081039080840390855afa158015610390573d6000803e3d6000fd5b505050602060405103519050600073ffffffffffffffffffffffffffffffffffffffff168173ffffffffffffffffffffffffffffffffffffffff16141561043f576040517f08c379a00000000000000000000000000000000000000000000000000000000081526004018080602001828103825260188152602001807f45434453413a20696e76616c6964207369676e6174757265000000000000000081525060200191505060405180910390fd5b8094505050505092915050565b60008160405160200180807f19457468657265756d205369676e6564204d6573736167653a0a333200000000815250601c0182815260200191505060405160208183030381529060405280519060200120905091905056fe45434453413a20696e76616c6964207369676e6174757265202773272076616c756545434453413a20696e76616c6964207369676e6174757265202776272076616c7565a2646970667358221220302950bc9bacd465bd65dcb0545f48bed0785fe9ea008da1ff006fc98800618c64736f6c634300060a0033",
  "immutableReferences": {},
  "source": "// SPDX-License-Identifier: MIT\n\npragma solidity ^0.6.0;\n\nimport \"../cryptography/ECDSA.sol\";\n\ncontract ECDSAMock {\n    using ECDSA for bytes32;\n\n    function recover(bytes32 hash, bytes memory signature) public pure returns (address) {\n        return hash.recover(signature);\n    }\n\n    function toEthSignedMessageHash(bytes32 hash) public pure returns (bytes32) {\n        return hash.toEthSignedMessageHash();\n    }\n}\n",
  "sourcePath": "/Users/lu/Desktop/contracts/JJToken/contracts/mocks/ECDSAMock.sol",
  "compiler": {
    "name": "solc",
    "version": "0.6.10+commit.00c0fcaf.Emscripten.clang"
  },
  "schemaVersion": "3.2.3",
  "updatedAt": "2020-08-18T13:18:05.986Z",
  "devdoc": {
    "methods": {}
  },
  "userdoc": {
    "methods": {}
  }
}