{
  "contractName": "ERC721PresetMinterPauserAutoId",
  "abi": [
    {
      "inputs": [
        {
          "internalType": "string",
          "name": "name",
          "type": "string"
        },
        {
          "internalType": "string",
          "name": "symbol",
          "type": "string"
        },
        {
          "internalType": "string",
          "name": "baseURI",
          "type": "string"
        }
      ],
      "stateMutability": "nonpayable",
      "type": "constructor"
    },
    {
      "anonymous": false,
      "inputs": [
        {
          "indexed": true,
          "internalType": "address",
          "name": "owner",
          "type": "address"
        },
        {
          "indexed": true,
          "internalType": "address",
          "name": "approved",
          "type": "address"
        },
        {
          "indexed": true,
          "internalType": "uint256",
          "name": "tokenId",
          "type": "uint256"
        }
      ],
      "name": "Approval",
      "type": "event"
    },
    {
      "anonymous": false,
      "inputs": [
        {
          "indexed": true,
          "internalType": "address",
          "name": "owner",
          "type": "address"
        },
        {
          "indexed": true,
          "internalType": "address",
          "name": "operator",
          "type": "address"
        },
        {
          "indexed": false,
          "internalType": "bool",
          "name": "approved",
          "type": "bool"
        }
      ],
      "name": "ApprovalForAll",
      "type": "event"
    },
    {
      "anonymous": false,
      "inputs": [
        {
          "indexed": false,
          "internalType": "address",
          "name": "account",
          "type": "address"
        }
      ],
      "name": "Paused",
      "type": "event"
    },
    {
      "anonymous": false,
      "inputs": [
        {
          "indexed": true,
          "internalType": "bytes32",
          "name": "role",
          "type": "bytes32"
        },
        {
          "indexed": true,
          "internalType": "bytes32",
          "name": "previousAdminRole",
          "type": "bytes32"
        },
        {
          "indexed": true,
          "internalType": "bytes32",
          "name": "newAdminRole",
          "type": "bytes32"
        }
      ],
      "name": "RoleAdminChanged",
      "type": "event"
    },
    {
      "anonymous": false,
      "inputs": [
        {
          "indexed": true,
          "internalType": "bytes32",
          "name": "role",
          "type": "bytes32"
        },
        {
          "indexed": true,
          "internalType": "address",
          "name": "account",
          "type": "address"
        },
        {
          "indexed": true,
          "internalType": "address",
          "name": "sender",
          "type": "address"
        }
      ],
      "name": "RoleGranted",
      "type": "event"
    },
    {
      "anonymous": false,
      "inputs": [
        {
          "indexed": true,
          "internalType": "bytes32",
          "name": "role",
          "type": "bytes32"
        },
        {
          "indexed": true,
          "internalType": "address",
          "name": "account",
          "type": "address"
        },
        {
          "indexed": true,
          "internalType": "address",
          "name": "sender",
          "type": "address"
        }
      ],
      "name": "RoleRevoked",
      "type": "event"
    },
    {
      "anonymous": false,
      "inputs": [
        {
          "indexed": true,
          "internalType": "address",
          "name": "from",
          "type": "address"
        },
        {
          "indexed": true,
          "internalType": "address",
          "name": "to",
          "type": "address"
        },
        {
          "indexed": true,
          "internalType": "uint256",
          "name": "tokenId",
          "type": "uint256"
        }
      ],
      "name": "Transfer",
      "type": "event"
    },
    {
      "anonymous": false,
      "inputs": [
        {
          "indexed": false,
          "internalType": "address",
          "name": "account",
          "type": "address"
        }
      ],
      "name": "Unpaused",
      "type": "event"
    },
    {
      "inputs": [],
      "name": "DEFAULT_ADMIN_ROLE",
      "outputs": [
        {
          "internalType": "bytes32",
          "name": "",
          "type": "bytes32"
        }
      ],
      "stateMutability": "view",
      "type": "function"
    },
    {
      "inputs": [],
      "name": "MINTER_ROLE",
      "outputs": [
        {
          "internalType": "bytes32",
          "name": "",
          "type": "bytes32"
        }
      ],
      "stateMutability": "view",
      "type": "function"
    },
    {
      "inputs": [],
      "name": "PAUSER_ROLE",
      "outputs": [
        {
          "internalType": "bytes32",
          "name": "",
          "type": "bytes32"
        }
      ],
      "stateMutability": "view",
      "type": "function"
    },
    {
      "inputs": [
        {
          "internalType": "address",
          "name": "to",
          "type": "address"
        },
        {
          "internalType": "uint256",
          "name": "tokenId",
          "type": "uint256"
        }
      ],
      "name": "approve",
      "outputs": [],
      "stateMutability": "nonpayable",
      "type": "function"
    },
    {
      "inputs": [
        {
          "internalType": "address",
          "name": "owner",
          "type": "address"
        }
      ],
      "name": "balanceOf",
      "outputs": [
        {
          "internalType": "uint256",
          "name": "",
          "type": "uint256"
        }
      ],
      "stateMutability": "view",
      "type": "function"
    },
    {
      "inputs": [],
      "name": "baseURI",
      "outputs": [
        {
          "internalType": "string",
          "name": "",
          "type": "string"
        }
      ],
      "stateMutability": "view",
      "type": "function"
    },
    {
      "inputs": [
        {
          "internalType": "uint256",
          "name": "tokenId",
          "type": "uint256"
        }
      ],
      "name": "burn",
      "outputs": [],
      "stateMutability": "nonpayable",
      "type": "function"
    },
    {
      "inputs": [
        {
          "internalType": "uint256",
          "name": "tokenId",
          "type": "uint256"
        }
      ],
      "name": "getApproved",
      "outputs": [
        {
          "internalType": "address",
          "name": "",
          "type": "address"
        }
      ],
      "stateMutability": "view",
      "type": "function"
    },
    {
      "inputs": [
        {
          "internalType": "bytes32",
          "name": "role",
          "type": "bytes32"
        }
      ],
      "name": "getRoleAdmin",
      "outputs": [
        {
          "internalType": "bytes32",
          "name": "",
          "type": "bytes32"
        }
      ],
      "stateMutability": "view",
      "type": "function"
    },
    {
      "inputs": [
        {
          "internalType": "bytes32",
          "name": "role",
          "type": "bytes32"
        },
        {
          "internalType": "uint256",
          "name": "index",
          "type": "uint256"
        }
      ],
      "name": "getRoleMember",
      "outputs": [
        {
          "internalType": "address",
          "name": "",
          "type": "address"
        }
      ],
      "stateMutability": "view",
      "type": "function"
    },
    {
      "inputs": [
        {
          "internalType": "bytes32",
          "name": "role",
          "type": "bytes32"
        }
      ],
      "name": "getRoleMemberCount",
      "outputs": [
        {
          "internalType": "uint256",
          "name": "",
          "type": "uint256"
        }
      ],
      "stateMutability": "view",
      "type": "function"
    },
    {
      "inputs": [
        {
          "internalType": "bytes32",
          "name": "role",
          "type": "bytes32"
        },
        {
          "internalType": "address",
          "name": "account",
          "type": "address"
        }
      ],
      "name": "grantRole",
      "outputs": [],
      "stateMutability": "nonpayable",
      "type": "function"
    },
    {
      "inputs": [
        {
          "internalType": "bytes32",
          "name": "role",
          "type": "bytes32"
        },
        {
          "internalType": "address",
          "name": "account",
          "type": "address"
        }
      ],
      "name": "hasRole",
      "outputs": [
        {
          "internalType": "bool",
          "name": "",
          "type": "bool"
        }
      ],
      "stateMutability": "view",
      "type": "function"
    },
    {
      "inputs": [
        {
          "internalType": "address",
          "name": "owner",
          "type": "address"
        },
        {
          "internalType": "address",
          "name": "operator",
          "type": "address"
        }
      ],
      "name": "isApprovedForAll",
      "outputs": [
        {
          "internalType": "bool",
          "name": "",
          "type": "bool"
        }
      ],
      "stateMutability": "view",
      "type": "function"
    },
    {
      "inputs": [],
      "name": "name",
      "outputs": [
        {
          "internalType": "string",
          "name": "",
          "type": "string"
        }
      ],
      "stateMutability": "view",
      "type": "function"
    },
    {
      "inputs": [
        {
          "internalType": "uint256",
          "name": "tokenId",
          "type": "uint256"
        }
      ],
      "name": "ownerOf",
      "outputs": [
        {
          "internalType": "address",
          "name": "",
          "type": "address"
        }
      ],
      "stateMutability": "view",
      "type": "function"
    },
    {
      "inputs": [],
      "name": "paused",
      "outputs": [
        {
          "internalType": "bool",
          "name": "",
          "type": "bool"
        }
      ],
      "stateMutability": "view",
      "type": "function"
    },
    {
      "inputs": [
        {
          "internalType": "bytes32",
          "name": "role",
          "type": "bytes32"
        },
        {
          "internalType": "address",
          "name": "account",
          "type": "address"
        }
      ],
      "name": "renounceRole",
      "outputs": [],
      "stateMutability": "nonpayable",
      "type": "function"
    },
    {
      "inputs": [
        {
          "internalType": "bytes32",
          "name": "role",
          "type": "bytes32"
        },
        {
          "internalType": "address",
          "name": "account",
          "type": "address"
        }
      ],
      "name": "revokeRole",
      "outputs": [],
      "stateMutability": "nonpayable",
      "type": "function"
    },
    {
      "inputs": [
        {
          "internalType": "address",
          "name": "from",
          "type": "address"
        },
        {
          "internalType": "address",
          "name": "to",
          "type": "address"
        },
        {
          "internalType": "uint256",
          "name": "tokenId",
          "type": "uint256"
        }
      ],
      "name": "safeTransferFrom",
      "outputs": [],
      "stateMutability": "nonpayable",
      "type": "function"
    },
    {
      "inputs": [
        {
          "internalType": "address",
          "name": "from",
          "type": "address"
        },
        {
          "internalType": "address",
          "name": "to",
          "type": "address"
        },
        {
          "internalType": "uint256",
          "name": "tokenId",
          "type": "uint256"
        },
        {
          "internalType": "bytes",
          "name": "_data",
          "type": "bytes"
        }
      ],
      "name": "safeTransferFrom",
      "outputs": [],
      "stateMutability": "nonpayable",
      "type": "function"
    },
    {
      "inputs": [
        {
          "internalType": "address",
          "name": "operator",
          "type": "address"
        },
        {
          "internalType": "bool",
          "name": "approved",
          "type": "bool"
        }
      ],
      "name": "setApprovalForAll",
      "outputs": [],
      "stateMutability": "nonpayable",
      "type": "function"
    },
    {
      "inputs": [
        {
          "internalType": "bytes4",
          "name": "interfaceId",
          "type": "bytes4"
        }
      ],
      "name": "supportsInterface",
      "outputs": [
        {
          "internalType": "bool",
          "name": "",
          "type": "bool"
        }
      ],
      "stateMutability": "view",
      "type": "function"
    },
    {
      "inputs": [],
      "name": "symbol",
      "outputs": [
        {
          "internalType": "string",
          "name": "",
          "type": "string"
        }
      ],
      "stateMutability": "view",
      "type": "function"
    },
    {
      "inputs": [
        {
          "internalType": "uint256",
          "name": "index",
          "type": "uint256"
        }
      ],
      "name": "tokenByIndex",
      "outputs": [
        {
          "internalType": "uint256",
          "name": "",
          "type": "uint256"
        }
      ],
      "stateMutability": "view",
      "type": "function"
    },
    {
      "inputs": [
        {
          "internalType": "address",
          "name": "owner",
          "type": "address"
        },
        {
          "internalType": "uint256",
          "name": "index",
          "type": "uint256"
        }
      ],
      "name": "tokenOfOwnerByIndex",
      "outputs": [
        {
          "internalType": "uint256",
          "name": "",
          "type": "uint256"
        }
      ],
      "stateMutability": "view",
      "type": "function"
    },
    {
      "inputs": [
        {
          "internalType": "uint256",
          "name": "tokenId",
          "type": "uint256"
        }
      ],
      "name": "tokenURI",
      "outputs": [
        {
          "internalType": "string",
          "name": "",
          "type": "string"
        }
      ],
      "stateMutability": "view",
      "type": "function"
    },
    {
      "inputs": [],
      "name": "totalSupply",
      "outputs": [
        {
          "internalType": "uint256",
          "name": "",
          "type": "uint256"
        }
      ],
      "stateMutability": "view",
      "type": "function"
    },
    {
      "inputs": [
        {
          "internalType": "address",
          "name": "from",
          "type": "address"
        },
        {
          "internalType": "address",
          "name": "to",
          "type": "address"
        },
        {
          "internalType": "uint256",
          "name": "tokenId",
          "type": "uint256"
        }
      ],
      "name": "transferFrom",
      "outputs": [],
      "stateMutability": "nonpayable",
      "type": "function"
    },
    {
      "inputs": [
        {
          "internalType": "address",
          "name": "to",
          "type": "address"
        }
      ],
      "name": "mint",
      "outputs": [],
      "stateMutability": "nonpayable",
      "type": "function"
    },
    {
      "inputs": [],
      "name": "pause",
      "outputs": [],
      "stateMutability": "nonpayable",
      "type": "function"
    },
    {
      "inputs": [],
      "name": "unpause",
      "outputs": [],
      "stateMutability": "nonpayable",
      "type": "function"
    }
  ],
  "bytecode": "0x60806040523480156200001157600080fd5b506040516200432938038062004329833981810160405260608110156200003757600080fd5b81019080805160405193929190846401000000008211156200005857600080fd5b838201915060208201858111156200006f57600080fd5b82518660018202830111640100000000821117156200008d57600080fd5b8083526020830192505050908051906020019080838360005b83811015620000c3578082015181840152602081019050620000a6565b50505050905090810190601f168015620000f15780820380516001836020036101000a031916815260200191505b50604052602001805160405193929190846401000000008211156200011557600080fd5b838201915060208201858111156200012c57600080fd5b82518660018202830111640100000000821117156200014a57600080fd5b8083526020830192505050908051906020019080838360005b838110156200018057808201518184015260208101905062000163565b50505050905090810190601f168015620001ae5780820380516001836020036101000a031916815260200191505b5060405260200180516040519392919084640100000000821115620001d257600080fd5b83820191506020820185811115620001e957600080fd5b82518660018202830111640100000000821117156200020757600080fd5b8083526020830192505050908051906020019080838360005b838110156200023d57808201518184015260208101905062000220565b50505050905090810190601f1680156200026b5780820380516001836020036101000a031916815260200191505b5060405250505082826200028c6301ffc9a760e01b6200040d60201b60201c565b8160079080519060200190620002a4929190620006c8565b508060089080519060200190620002bd929190620006c8565b50620002d66380ac58cd60e01b6200040d60201b60201c565b620002ee635b5e139f60e01b6200040d60201b60201c565b6200030663780e9d6360e01b6200040d60201b60201c565b50506000600b60006101000a81548160ff021916908315150217905550620003476000801b6200033b6200051660201b60201c565b6200051e60201b60201c565b6200039d60405180807f4d494e5445525f524f4c45000000000000000000000000000000000000000000815250600b0190506040518091039020620003916200051660201b60201c565b6200051e60201b60201c565b620003f360405180807f5041555345525f524f4c45000000000000000000000000000000000000000000815250600b0190506040518091039020620003e76200051660201b60201c565b6200051e60201b60201c565b62000404816200053460201b60201c565b50505062000777565b63ffffffff60e01b817bffffffffffffffffffffffffffffffffffffffffffffffffffffffff19161415620004aa576040517f08c379a000000000000000000000000000000000000000000000000000000000815260040180806020018281038252601c8152602001807f4552433136353a20696e76616c696420696e746572666163652069640000000081525060200191505060405180910390fd5b6001806000837bffffffffffffffffffffffffffffffffffffffffffffffffffffffff19167bffffffffffffffffffffffffffffffffffffffffffffffffffffffff1916815260200190815260200160002060006101000a81548160ff02191690831515021790555050565b600033905090565b6200053082826200055060201b60201c565b5050565b80600a90805190602001906200054c929190620006c8565b5050565b6200057e81600080858152602001908152602001600020600001620005f360201b62001e2d1790919060201c565b15620005ef57620005946200051660201b60201c565b73ffffffffffffffffffffffffffffffffffffffff168173ffffffffffffffffffffffffffffffffffffffff16837f2f8788117e7eff1d82e926ec794901d17c78024a50270940304540a733656f0d60405160405180910390a45b5050565b600062000623836000018373ffffffffffffffffffffffffffffffffffffffff1660001b6200062b60201b60201c565b905092915050565b60006200063f8383620006a560201b60201c565b6200069a5782600001829080600181540180825580915050600190039060005260206000200160009091909190915055826000018054905083600101600084815260200190815260200160002081905550600190506200069f565b600090505b92915050565b600080836001016000848152602001908152602001600020541415905092915050565b828054600181600116156101000203166002900490600052602060002090601f016020900481019282601f106200070b57805160ff19168380011785556200073c565b828001600101855582156200073c579182015b828111156200073b5782518255916020019190600101906200071e565b5b5090506200074b91906200074f565b5090565b6200077491905b808211156200077057600081600090555060010162000756565b5090565b90565b613ba280620007876000396000f3fe608060405234801561001057600080fd5b50600436106101f05760003560e01c80636a6278421161010f578063a22cb465116100a2578063d539139311610071578063d539139314610bc3578063d547741f14610be1578063e63ab1e914610c2f578063e985e9c514610c4d576101f0565b8063a22cb46514610985578063b88d4fde146109d5578063c87b56dd14610ada578063ca15c87314610b81576101f0565b80639010d07c116100de5780639010d07c1461080657806391d148541461087e57806395d89b41146108e4578063a217fddf14610967576101f0565b80636a627842146106dd5780636c0360eb1461072157806370a08231146107a45780638456cb59146107fc576101f0565b80632f745c591161018757806342966c681161015657806342966c68146105dd5780634f6ccce71461060b5780635c975abb1461064d5780636352211e1461066f576101f0565b80632f745c59146104b557806336568abe146105175780633f4ba83a1461056557806342842e0e1461056f576101f0565b806318160ddd116101c357806318160ddd1461039957806323b872dd146103b7578063248a9ca3146104255780632f2ff15d14610467576101f0565b806301ffc9a7146101f557806306fdde031461025a578063081812fc146102dd578063095ea7b31461034b575b600080fd5b6102406004803603602081101561020b57600080fd5b8101908080357bffffffffffffffffffffffffffffffffffffffffffffffffffffffff19169060200190929190505050610cc9565b604051808215151515815260200191505060405180910390f35b610262610d31565b6040518080602001828103825283818151815260200191508051906020019080838360005b838110156102a2578082015181840152602081019050610287565b50505050905090810190601f1680156102cf5780820380516001836020036101000a031916815260200191505b509250505060405180910390f35b610309600480360360208110156102f357600080fd5b8101908080359060200190929190505050610dd3565b604051808273ffffffffffffffffffffffffffffffffffffffff1673ffffffffffffffffffffffffffffffffffffffff16815260200191505060405180910390f35b6103976004803603604081101561036157600080fd5b81019080803573ffffffffffffffffffffffffffffffffffffffff16906020019092919080359060200190929190505050610e6e565b005b6103a1610fb2565b6040518082815260200191505060405180910390f35b610423600480360360608110156103cd57600080fd5b81019080803573ffffffffffffffffffffffffffffffffffffffff169060200190929190803573ffffffffffffffffffffffffffffffffffffffff16906020019092919080359060200190929190505050610fc3565b005b6104516004803603602081101561043b57600080fd5b8101908080359060200190929190505050611039565b6040518082815260200191505060405180910390f35b6104b36004803603604081101561047d57600080fd5b8101908080359060200190929190803573ffffffffffffffffffffffffffffffffffffffff169060200190929190505050611058565b005b610501600480360360408110156104cb57600080fd5b81019080803573ffffffffffffffffffffffffffffffffffffffff169060200190929190803590602001909291905050506110e1565b6040518082815260200191505060405180910390f35b6105636004803603604081101561052d57600080fd5b8101908080359060200190929190803573ffffffffffffffffffffffffffffffffffffffff16906020019092919050505061113c565b005b61056d6111d5565b005b6105db6004803603606081101561058557600080fd5b81019080803573ffffffffffffffffffffffffffffffffffffffff169060200190929190803573ffffffffffffffffffffffffffffffffffffffff1690602001909291908035906020019092919050505061127a565b005b610609600480360360208110156105f357600080fd5b810190808035906020019092919050505061129a565b005b6106376004803603602081101561062157600080fd5b810190808035906020019092919050505061130c565b6040518082815260200191505060405180910390f35b61065561132f565b604051808215151515815260200191505060405180910390f35b61069b6004803603602081101561068557600080fd5b8101908080359060200190929190505050611346565b604051808273ffffffffffffffffffffffffffffffffffffffff1673ffffffffffffffffffffffffffffffffffffffff16815260200191505060405180910390f35b61071f600480360360208110156106f357600080fd5b81019080803573ffffffffffffffffffffffffffffffffffffffff16906020019092919050505061137d565b005b610729611438565b6040518080602001828103825283818151815260200191508051906020019080838360005b8381101561076957808201518184015260208101905061074e565b50505050905090810190601f1680156107965780820380516001836020036101000a031916815260200191505b509250505060405180910390f35b6107e6600480360360208110156107ba57600080fd5b81019080803573ffffffffffffffffffffffffffffffffffffffff1690602001909291905050506114da565b6040518082815260200191505060405180910390f35b6108046115af565b005b61083c6004803603604081101561081c57600080fd5b810190808035906020019092919080359060200190929190505050611654565b604051808273ffffffffffffffffffffffffffffffffffffffff1673ffffffffffffffffffffffffffffffffffffffff16815260200191505060405180910390f35b6108ca6004803603604081101561089457600080fd5b8101908080359060200190929190803573ffffffffffffffffffffffffffffffffffffffff169060200190929190505050611685565b604051808215151515815260200191505060405180910390f35b6108ec6116b6565b6040518080602001828103825283818151815260200191508051906020019080838360005b8381101561092c578082015181840152602081019050610911565b50505050905090810190601f1680156109595780820380516001836020036101000a031916815260200191505b509250505060405180910390f35b61096f611758565b6040518082815260200191505060405180910390f35b6109d36004803603604081101561099b57600080fd5b81019080803573ffffffffffffffffffffffffffffffffffffffff16906020019092919080351515906020019092919050505061175f565b005b610ad8600480360360808110156109eb57600080fd5b81019080803573ffffffffffffffffffffffffffffffffffffffff169060200190929190803573ffffffffffffffffffffffffffffffffffffffff1690602001909291908035906020019092919080359060200190640100000000811115610a5257600080fd5b820183602082011115610a6457600080fd5b80359060200191846001830284011164010000000083111715610a8657600080fd5b91908080601f016020809104026020016040519081016040528093929190818152602001838380828437600081840152601f19601f820116905080830192505050505050509192919290505050611917565b005b610b0660048036036020811015610af057600080fd5b810190808035906020019092919050505061198f565b6040518080602001828103825283818151815260200191508051906020019080838360005b83811015610b46578082015181840152602081019050610b2b565b50505050905090810190601f168015610b735780820380516001836020036101000a031916815260200191505b509250505060405180910390f35b610bad60048036036020811015610b9757600080fd5b8101908080359060200190929190505050611c78565b6040518082815260200191505060405180910390f35b610bcb611c9e565b6040518082815260200191505060405180910390f35b610c2d60048036036040811015610bf757600080fd5b8101908080359060200190929190803573ffffffffffffffffffffffffffffffffffffffff169060200190929190505050611cd7565b005b610c37611d60565b6040518082815260200191505060405180910390f35b610caf60048036036040811015610c6357600080fd5b81019080803573ffffffffffffffffffffffffffffffffffffffff169060200190929190803573ffffffffffffffffffffffffffffffffffffffff169060200190929190505050611d99565b604051808215151515815260200191505060405180910390f35b600060016000837bffffffffffffffffffffffffffffffffffffffffffffffffffffffff19167bffffffffffffffffffffffffffffffffffffffffffffffffffffffff1916815260200190815260200160002060009054906101000a900460ff169050919050565b606060078054600181600116156101000203166002900480601f016020809104026020016040519081016040528092919081815260200182805460018160011615610100020316600290048015610dc95780601f10610d9e57610100808354040283529160200191610dc9565b820191906000526020600020905b815481529060010190602001808311610dac57829003601f168201915b5050505050905090565b6000610dde82611e5d565b610e33576040517f08c379a000000000000000000000000000000000000000000000000000000000815260040180806020018281038252602c8152602001806139bb602c913960400191505060405180910390fd5b6005600083815260200190815260200160002060009054906101000a900473ffffffffffffffffffffffffffffffffffffffff169050919050565b6000610e7982611346565b90508073ffffffffffffffffffffffffffffffffffffffff168373ffffffffffffffffffffffffffffffffffffffff161415610f00576040517f08c379a0000000000000000000000000000000000000000000000000000000008152600401808060200182810382526021815260200180613a3f6021913960400191505060405180910390fd5b8073ffffffffffffffffffffffffffffffffffffffff16610f1f611e7a565b73ffffffffffffffffffffffffffffffffffffffff161480610f4e5750610f4d81610f48611e7a565b611d99565b5b610fa3576040517f08c379a000000000000000000000000000000000000000000000000000000000815260040180806020018281038252603881526020018061390e6038913960400191505060405180910390fd5b610fad8383611e82565b505050565b6000610fbe6003611f3b565b905090565b610fd4610fce611e7a565b82611f50565b611029576040517f08c379a0000000000000000000000000000000000000000000000000000000008152600401808060200182810382526031815260200180613a606031913960400191505060405180910390fd5b611034838383612044565b505050565b6000806000838152602001908152602001600020600201549050919050565b61107e60008084815260200190815260200160002060020154611079611e7a565b611685565b6110d3576040517f08c379a000000000000000000000000000000000000000000000000000000000815260040180806020018281038252602f8152602001806137ef602f913960400191505060405180910390fd5b6110dd8282612287565b5050565b600061113482600260008673ffffffffffffffffffffffffffffffffffffffff1673ffffffffffffffffffffffffffffffffffffffff16815260200190815260200160002061231a90919063ffffffff16565b905092915050565b611144611e7a565b73ffffffffffffffffffffffffffffffffffffffff168173ffffffffffffffffffffffffffffffffffffffff16146111c7576040517f08c379a000000000000000000000000000000000000000000000000000000000815260040180806020018281038252602f815260200180613b3e602f913960400191505060405180910390fd5b6111d18282612334565b5050565b61121b60405180807f5041555345525f524f4c45000000000000000000000000000000000000000000815250600b0190506040518091039020611216611e7a565b611685565b611270576040517f08c379a0000000000000000000000000000000000000000000000000000000008152600401808060200182810382526040815260200180613afe6040913960400191505060405180910390fd5b6112786123c7565b565b61129583838360405180602001604052806000815250611917565b505050565b6112ab6112a5611e7a565b82611f50565b611300576040517f08c379a0000000000000000000000000000000000000000000000000000000008152600401808060200182810382526030815260200180613ace6030913960400191505060405180910390fd5b611309816124d0565b50565b60008061132383600361260a90919063ffffffff16565b50905080915050919050565b6000600b60009054906101000a900460ff16905090565b6000611376826040518060600160405280602981526020016139706029913960036126399092919063ffffffff16565b9050919050565b6113c360405180807f4d494e5445525f524f4c45000000000000000000000000000000000000000000815250600b01905060405180910390206113be611e7a565b611685565b611418576040517f08c379a000000000000000000000000000000000000000000000000000000000815260040180806020018281038252603d815260200180613a91603d913960400191505060405180910390fd5b61142b81611426600c612658565b612666565b611435600c61285a565b50565b6060600a8054600181600116156101000203166002900480601f0160208091040260200160405190810160405280929190818152602001828054600181600116156101000203166002900480156114d05780601f106114a5576101008083540402835291602001916114d0565b820191906000526020600020905b8154815290600101906020018083116114b357829003601f168201915b5050505050905090565b60008073ffffffffffffffffffffffffffffffffffffffff168273ffffffffffffffffffffffffffffffffffffffff161415611561576040517f08c379a000000000000000000000000000000000000000000000000000000000815260040180806020018281038252602a815260200180613946602a913960400191505060405180910390fd5b6115a8600260008473ffffffffffffffffffffffffffffffffffffffff1673ffffffffffffffffffffffffffffffffffffffff168152602001908152602001600020612870565b9050919050565b6115f560405180807f5041555345525f524f4c45000000000000000000000000000000000000000000815250600b01905060405180910390206115f0611e7a565b611685565b61164a576040517f08c379a000000000000000000000000000000000000000000000000000000000815260040180806020018281038252603e815260200180613850603e913960400191505060405180910390fd5b611652612885565b565b600061167d8260008086815260200190815260200160002060000161298f90919063ffffffff16565b905092915050565b60006116ae826000808681526020019081526020016000206000016129a990919063ffffffff16565b905092915050565b606060088054600181600116156101000203166002900480601f01602080910402602001604051908101604052809291908181526020018280546001816001161561010002031660029004801561174e5780601f106117235761010080835404028352916020019161174e565b820191906000526020600020905b81548152906001019060200180831161173157829003601f168201915b5050505050905090565b6000801b81565b611767611e7a565b73ffffffffffffffffffffffffffffffffffffffff168273ffffffffffffffffffffffffffffffffffffffff161415611808576040517f08c379a00000000000000000000000000000000000000000000000000000000081526004018080602001828103825260198152602001807f4552433732313a20617070726f766520746f2063616c6c65720000000000000081525060200191505060405180910390fd5b8060066000611815611e7a565b73ffffffffffffffffffffffffffffffffffffffff1673ffffffffffffffffffffffffffffffffffffffff16815260200190815260200160002060008473ffffffffffffffffffffffffffffffffffffffff1673ffffffffffffffffffffffffffffffffffffffff16815260200190815260200160002060006101000a81548160ff0219169083151502179055508173ffffffffffffffffffffffffffffffffffffffff166118c2611e7a565b73ffffffffffffffffffffffffffffffffffffffff167f17307eab39ab6107e8899845ad3d59bd9653f200f220920489ca2b5937696c3183604051808215151515815260200191505060405180910390a35050565b611928611922611e7a565b83611f50565b61197d576040517f08c379a0000000000000000000000000000000000000000000000000000000008152600401808060200182810382526031815260200180613a606031913960400191505060405180910390fd5b611989848484846129d9565b50505050565b606061199a82611e5d565b6119ef576040517f08c379a000000000000000000000000000000000000000000000000000000000815260040180806020018281038252602f815260200180613a10602f913960400191505060405180910390fd5b6060600960008481526020019081526020016000208054600181600116156101000203166002900480601f016020809104026020016040519081016040528092919081815260200182805460018160011615610100020316600290048015611a985780601f10611a6d57610100808354040283529160200191611a98565b820191906000526020600020905b815481529060010190602001808311611a7b57829003601f168201915b505050505090506000600a8054600181600116156101000203166002900490501415611ac75780915050611c73565b600081511115611ba057600a816040516020018083805460018160011615610100020316600290048015611b325780601f10611b10576101008083540402835291820191611b32565b820191906000526020600020905b815481529060010190602001808311611b1e575b505082805190602001908083835b60208310611b635780518252602082019150602081019050602083039250611b40565b6001836020036101000a03801982511681845116808217855250505050505090500192505050604051602081830303815290604052915050611c73565b600a611bab84612a4b565b6040516020018083805460018160011615610100020316600290048015611c095780601f10611be7576101008083540402835291820191611c09565b820191906000526020600020905b815481529060010190602001808311611bf5575b505082805190602001908083835b60208310611c3a5780518252602082019150602081019050602083039250611c17565b6001836020036101000a038019825116818451168082178552505050505050905001925050506040516020818303038152906040529150505b919050565b6000611c97600080848152602001908152602001600020600001612b92565b9050919050565b60405180807f4d494e5445525f524f4c45000000000000000000000000000000000000000000815250600b019050604051809103902081565b611cfd60008084815260200190815260200160002060020154611cf8611e7a565b611685565b611d52576040517f08c379a00000000000000000000000000000000000000000000000000000000081526004018080602001828103825260308152602001806138de6030913960400191505060405180910390fd5b611d5c8282612334565b5050565b60405180807f5041555345525f524f4c45000000000000000000000000000000000000000000815250600b019050604051809103902081565b6000600660008473ffffffffffffffffffffffffffffffffffffffff1673ffffffffffffffffffffffffffffffffffffffff16815260200190815260200160002060008373ffffffffffffffffffffffffffffffffffffffff1673ffffffffffffffffffffffffffffffffffffffff16815260200190815260200160002060009054906101000a900460ff16905092915050565b6000611e55836000018373ffffffffffffffffffffffffffffffffffffffff1660001b612ba7565b905092915050565b6000611e73826003612c1790919063ffffffff16565b9050919050565b600033905090565b816005600083815260200190815260200160002060006101000a81548173ffffffffffffffffffffffffffffffffffffffff021916908373ffffffffffffffffffffffffffffffffffffffff160217905550808273ffffffffffffffffffffffffffffffffffffffff16611ef583611346565b73ffffffffffffffffffffffffffffffffffffffff167f8c5be1e5ebec7d5bd14f71427d1e84f3dd0314c0f7b2291e5b200ac8c7c3b92560405160405180910390a45050565b6000611f4982600001612c31565b9050919050565b6000611f5b82611e5d565b611fb0576040517f08c379a000000000000000000000000000000000000000000000000000000000815260040180806020018281038252602c8152602001806138b2602c913960400191505060405180910390fd5b6000611fbb83611346565b90508073ffffffffffffffffffffffffffffffffffffffff168473ffffffffffffffffffffffffffffffffffffffff16148061202a57508373ffffffffffffffffffffffffffffffffffffffff1661201284610dd3565b73ffffffffffffffffffffffffffffffffffffffff16145b8061203b575061203a8185611d99565b5b91505092915050565b8273ffffffffffffffffffffffffffffffffffffffff1661206482611346565b73ffffffffffffffffffffffffffffffffffffffff16146120d0576040517f08c379a00000000000000000000000000000000000000000000000000000000081526004018080602001828103825260298152602001806139e76029913960400191505060405180910390fd5b600073ffffffffffffffffffffffffffffffffffffffff168273ffffffffffffffffffffffffffffffffffffffff161415612156576040517f08c379a000000000000000000000000000000000000000000000000000000000815260040180806020018281038252602481526020018061388e6024913960400191505060405180910390fd5b612161838383612c42565b61216c600082611e82565b6121bd81600260008673ffffffffffffffffffffffffffffffffffffffff1673ffffffffffffffffffffffffffffffffffffffff168152602001908152602001600020612c5290919063ffffffff16565b5061220f81600260008573ffffffffffffffffffffffffffffffffffffffff1673ffffffffffffffffffffffffffffffffffffffff168152602001908152602001600020612c6c90919063ffffffff16565b5061222681836003612c869092919063ffffffff16565b50808273ffffffffffffffffffffffffffffffffffffffff168473ffffffffffffffffffffffffffffffffffffffff167fddf252ad1be2c89b69c2b068fc378daa952ba7f163c4a11628f55a4df523b3ef60405160405180910390a4505050565b6122ae81600080858152602001908152602001600020600001611e2d90919063ffffffff16565b15612316576122bb611e7a565b73ffffffffffffffffffffffffffffffffffffffff168173ffffffffffffffffffffffffffffffffffffffff16837f2f8788117e7eff1d82e926ec794901d17c78024a50270940304540a733656f0d60405160405180910390a45b5050565b60006123298360000183612cbb565b60001c905092915050565b61235b81600080858152602001908152602001600020600001612d3e90919063ffffffff16565b156123c357612368611e7a565b73ffffffffffffffffffffffffffffffffffffffff168173ffffffffffffffffffffffffffffffffffffffff16837ff6391f5c32d9c69d2a47ea670b442974b53935d1edc7fd64eb21e047a839171b60405160405180910390a45b5050565b600b60009054906101000a900460ff16612449576040517f08c379a00000000000000000000000000000000000000000000000000000000081526004018080602001828103825260148152602001807f5061757361626c653a206e6f742070617573656400000000000000000000000081525060200191505060405180910390fd5b6000600b60006101000a81548160ff0219169083151502179055507f5db9ee0a495bf2e6ff9c91a7834c1ba4fdd244a5e8aa4e537bd38aeae4b073aa61248d611e7a565b604051808273ffffffffffffffffffffffffffffffffffffffff1673ffffffffffffffffffffffffffffffffffffffff16815260200191505060405180910390a1565b60006124db82611346565b90506124e981600084612c42565b6124f4600083611e82565b60006009600084815260200190815260200160002080546001816001161561010002031660029004905014612543576009600083815260200190815260200160002060006125429190613734565b5b61259482600260008473ffffffffffffffffffffffffffffffffffffffff1673ffffffffffffffffffffffffffffffffffffffff168152602001908152602001600020612c5290919063ffffffff16565b506125a9826003612d6e90919063ffffffff16565b5081600073ffffffffffffffffffffffffffffffffffffffff168273ffffffffffffffffffffffffffffffffffffffff167fddf252ad1be2c89b69c2b068fc378daa952ba7f163c4a11628f55a4df523b3ef60405160405180910390a45050565b60008060008061261d8660000186612d88565b915091508160001c8160001c8090509350935050509250929050565b600061264c846000018460001b84612e21565b60001c90509392505050565b600081600001549050919050565b600073ffffffffffffffffffffffffffffffffffffffff168273ffffffffffffffffffffffffffffffffffffffff161415612709576040517f08c379a00000000000000000000000000000000000000000000000000000000081526004018080602001828103825260208152602001807f4552433732313a206d696e7420746f20746865207a65726f206164647265737381525060200191505060405180910390fd5b61271281611e5d565b15612785576040517f08c379a000000000000000000000000000000000000000000000000000000000815260040180806020018281038252601c8152602001807f4552433732313a20746f6b656e20616c7265616479206d696e7465640000000081525060200191505060405180910390fd5b61279160008383612c42565b6127e281600260008573ffffffffffffffffffffffffffffffffffffffff1673ffffffffffffffffffffffffffffffffffffffff168152602001908152602001600020612c6c90919063ffffffff16565b506127f981836003612c869092919063ffffffff16565b50808273ffffffffffffffffffffffffffffffffffffffff16600073ffffffffffffffffffffffffffffffffffffffff167fddf252ad1be2c89b69c2b068fc378daa952ba7f163c4a11628f55a4df523b3ef60405160405180910390a45050565b6001816000016000828254019250508190555050565b600061287e82600001612f17565b9050919050565b600b60009054906101000a900460ff1615612908576040517f08c379a00000000000000000000000000000000000000000000000000000000081526004018080602001828103825260108152602001807f5061757361626c653a207061757365640000000000000000000000000000000081525060200191505060405180910390fd5b6001600b60006101000a81548160ff0219169083151502179055507f62e78cea01bee320cd4e420270b5ea74000d11b0c9f74754ebdbfc544b05a25861294c611e7a565b604051808273ffffffffffffffffffffffffffffffffffffffff1673ffffffffffffffffffffffffffffffffffffffff16815260200191505060405180910390a1565b600061299e8360000183612cbb565b60001c905092915050565b60006129d1836000018373ffffffffffffffffffffffffffffffffffffffff1660001b612f28565b905092915050565b6129e4848484612044565b6129f084848484612f4b565b612a45576040517f08c379a000000000000000000000000000000000000000000000000000000000815260040180806020018281038252603281526020018061381e6032913960400191505060405180910390fd5b50505050565b60606000821415612a93576040518060400160405280600181526020017f30000000000000000000000000000000000000000000000000000000000000008152509050612b8d565b600082905060005b60008214612abd578080600101915050600a8281612ab557fe5b049150612a9b565b60608167ffffffffffffffff81118015612ad657600080fd5b506040519080825280601f01601f191660200182016040528015612b095781602001600182028036833780820191505090505b50905060006001830390508593505b60008414612b8557600a8481612b2a57fe5b0660300160f81b82828060019003935081518110612b4457fe5b60200101907effffffffffffffffffffffffffffffffffffffffffffffffffffffffffffff1916908160001a905350600a8481612b7d57fe5b049350612b18565b819450505050505b919050565b6000612ba082600001612f17565b9050919050565b6000612bb38383612f28565b612c0c578260000182908060018154018082558091505060019003906000526020600020016000909190919091505582600001805490508360010160008481526020019081526020016000208190555060019050612c11565b600090505b92915050565b6000612c29836000018360001b613190565b905092915050565b600081600001805490509050919050565b612c4d8383836131b3565b505050565b6000612c64836000018360001b613221565b905092915050565b6000612c7e836000018360001b612ba7565b905092915050565b6000612cb2846000018460001b8473ffffffffffffffffffffffffffffffffffffffff1660001b613309565b90509392505050565b600081836000018054905011612d1c576040517f08c379a00000000000000000000000000000000000000000000000000000000081526004018080602001828103825260228152602001806137a26022913960400191505060405180910390fd5b826000018281548110612d2b57fe5b9060005260206000200154905092915050565b6000612d66836000018373ffffffffffffffffffffffffffffffffffffffff1660001b613221565b905092915050565b6000612d80836000018360001b6133e5565b905092915050565b60008082846000018054905011612dea576040517f08c379a00000000000000000000000000000000000000000000000000000000081526004018080602001828103825260228152602001806139996022913960400191505060405180910390fd5b6000846000018481548110612dfb57fe5b906000526020600020906002020190508060000154816001015492509250509250929050565b60008084600101600085815260200190815260200160002054905060008114158390612ee8576040517f08c379a00000000000000000000000000000000000000000000000000000000081526004018080602001828103825283818151815260200191508051906020019080838360005b83811015612ead578082015181840152602081019050612e92565b50505050905090810190601f168015612eda5780820380516001836020036101000a031916815260200191505b509250505060405180910390fd5b50846000016001820381548110612efb57fe5b9060005260206000209060020201600101549150509392505050565b600081600001805490509050919050565b600080836001016000848152602001908152602001600020541415905092915050565b6000612f6c8473ffffffffffffffffffffffffffffffffffffffff166134fe565b612f795760019050613188565b606061310f63150b7a0260e01b612f8e611e7a565b888787604051602401808573ffffffffffffffffffffffffffffffffffffffff1673ffffffffffffffffffffffffffffffffffffffff1681526020018473ffffffffffffffffffffffffffffffffffffffff1673ffffffffffffffffffffffffffffffffffffffff16815260200183815260200180602001828103825283818151815260200191508051906020019080838360005b8381101561303e578082015181840152602081019050613023565b50505050905090810190601f16801561306b5780820380516001836020036101000a031916815260200191505b5095505050505050604051602081830303815290604052907bffffffffffffffffffffffffffffffffffffffffffffffffffffffff19166020820180517bffffffffffffffffffffffffffffffffffffffffffffffffffffffff838183161783525050505060405180606001604052806032815260200161381e603291398773ffffffffffffffffffffffffffffffffffffffff166135119092919063ffffffff16565b9050600081806020019051602081101561312857600080fd5b8101908080519060200190929190505050905063150b7a0260e01b7bffffffffffffffffffffffffffffffffffffffffffffffffffffffff1916817bffffffffffffffffffffffffffffffffffffffffffffffffffffffff191614925050505b949350505050565b600080836001016000848152602001908152602001600020541415905092915050565b6131be838383613529565b6131c661132f565b1561321c576040517f08c379a000000000000000000000000000000000000000000000000000000000815260040180806020018281038252602b8152602001806137c4602b913960400191505060405180910390fd5b505050565b600080836001016000848152602001908152602001600020549050600081146132fd576000600182039050600060018660000180549050039050600086600001828154811061326c57fe5b906000526020600020015490508087600001848154811061328957fe5b90600052602060002001819055506001830187600101600083815260200190815260200160002081905550866000018054806132c157fe5b60019003818190600052602060002001600090559055866001016000878152602001908152602001600020600090556001945050505050613303565b60009150505b92915050565b60008084600101600085815260200190815260200160002054905060008114156133b0578460000160405180604001604052808681526020018581525090806001815401808255809150506001900390600052602060002090600202016000909190919091506000820151816000015560208201518160010155505084600001805490508560010160008681526020019081526020016000208190555060019150506133de565b828560000160018303815481106133c357fe5b90600052602060002090600202016001018190555060009150505b9392505050565b600080836001016000848152602001908152602001600020549050600081146134f2576000600182039050600060018660000180549050039050600086600001828154811061343057fe5b906000526020600020906002020190508087600001848154811061345057fe5b90600052602060002090600202016000820154816000015560018201548160010155905050600183018760010160008360000154815260200190815260200160002081905550866000018054806134a357fe5b60019003818190600052602060002090600202016000808201600090556001820160009055505090558660010160008781526020019081526020016000206000905560019450505050506134f8565b60009150505b92915050565b600080823b905060008111915050919050565b6060613520848460008561352e565b90509392505050565b505050565b6060613539856134fe565b6135ab576040517f08c379a000000000000000000000000000000000000000000000000000000000815260040180806020018281038252601d8152602001807f416464726573733a2063616c6c20746f206e6f6e2d636f6e747261637400000081525060200191505060405180910390fd5b600060608673ffffffffffffffffffffffffffffffffffffffff1685876040518082805190602001908083835b602083106135fb57805182526020820191506020810190506020830392506135d8565b6001836020036101000a03801982511681845116808217855250505050505090500191505060006040518083038185875af1925050503d806000811461365d576040519150601f19603f3d011682016040523d82523d6000602084013e613662565b606091505b5091509150811561367757809250505061372c565b60008151111561368a5780518082602001fd5b836040517f08c379a00000000000000000000000000000000000000000000000000000000081526004018080602001828103825283818151815260200191508051906020019080838360005b838110156136f15780820151818401526020810190506136d6565b50505050905090810190601f16801561371e5780820380516001836020036101000a031916815260200191505b509250505060405180910390fd5b949350505050565b50805460018160011615610100020316600290046000825580601f1061375a5750613779565b601f016020900490600052602060002090810190613778919061377c565b5b50565b61379e91905b8082111561379a576000816000905550600101613782565b5090565b9056fe456e756d657261626c655365743a20696e646578206f7574206f6620626f756e64734552433732315061757361626c653a20746f6b656e207472616e73666572207768696c6520706175736564416363657373436f6e74726f6c3a2073656e646572206d75737420626520616e2061646d696e20746f206772616e744552433732313a207472616e7366657220746f206e6f6e20455243373231526563656976657220696d706c656d656e7465724552433732315072657365744d696e7465725061757365724175746f49643a206d75737420686176652070617573657220726f6c6520746f2070617573654552433732313a207472616e7366657220746f20746865207a65726f20616464726573734552433732313a206f70657261746f7220717565727920666f72206e6f6e6578697374656e7420746f6b656e416363657373436f6e74726f6c3a2073656e646572206d75737420626520616e2061646d696e20746f207265766f6b654552433732313a20617070726f76652063616c6c6572206973206e6f74206f776e6572206e6f7220617070726f76656420666f7220616c6c4552433732313a2062616c616e636520717565727920666f7220746865207a65726f20616464726573734552433732313a206f776e657220717565727920666f72206e6f6e6578697374656e7420746f6b656e456e756d657261626c654d61703a20696e646578206f7574206f6620626f756e64734552433732313a20617070726f76656420717565727920666f72206e6f6e6578697374656e7420746f6b656e4552433732313a207472616e73666572206f6620746f6b656e2074686174206973206e6f74206f776e4552433732314d657461646174613a2055524920717565727920666f72206e6f6e6578697374656e7420746f6b656e4552433732313a20617070726f76616c20746f2063757272656e74206f776e65724552433732313a207472616e736665722063616c6c6572206973206e6f74206f776e6572206e6f7220617070726f7665644552433732315072657365744d696e7465725061757365724175746f49643a206d7573742068617665206d696e74657220726f6c6520746f206d696e744552433732314275726e61626c653a2063616c6c6572206973206e6f74206f776e6572206e6f7220617070726f7665644552433732315072657365744d696e7465725061757365724175746f49643a206d75737420686176652070617573657220726f6c6520746f20756e7061757365416363657373436f6e74726f6c3a2063616e206f6e6c792072656e6f756e636520726f6c657320666f722073656c66a2646970667358221220c86e6d32c19e9b183d4507908bfb30039587151eb6d7e3a10b34092f1ba51d4664736f6c634300060a0033",
  "immutableReferences": {},
  "source": "// SPDX-License-Identifier: MIT\n\npragma solidity ^0.6.0;\n\nimport \"../access/AccessControl.sol\";\nimport \"../GSN/Context.sol\";\nimport \"../utils/Counters.sol\";\nimport \"../token/ERC721/ERC721.sol\";\nimport \"../token/ERC721/ERC721Burnable.sol\";\nimport \"../token/ERC721/ERC721Pausable.sol\";\n\n/**\n * @dev {ERC721} token, including:\n *\n *  - ability for holders to burn (destroy) their tokens\n *  - a minter role that allows for token minting (creation)\n *  - a pauser role that allows to stop all token transfers\n *  - token ID and URI autogeneration\n *\n * This contract uses {AccessControl} to lock permissioned functions using the\n * different roles - head to its documentation for details.\n *\n * The account that deploys the contract will be granted the minter and pauser\n * roles, as well as the default admin role, which will let it grant both minter\n * and pauser roles to other accounts.\n */\ncontract ERC721PresetMinterPauserAutoId is Context, AccessControl, ERC721Burnable, ERC721Pausable {\n    using Counters for Counters.Counter;\n\n    bytes32 public constant MINTER_ROLE = keccak256(\"MINTER_ROLE\");\n    bytes32 public constant PAUSER_ROLE = keccak256(\"PAUSER_ROLE\");\n\n    Counters.Counter private _tokenIdTracker;\n\n    /**\n     * @dev Grants `DEFAULT_ADMIN_ROLE`, `MINTER_ROLE` and `PAUSER_ROLE` to the\n     * account that deploys the contract.\n     *\n     * Token URIs will be autogenerated based on `baseURI` and their token IDs.\n     * See {ERC721-tokenURI}.\n     */\n    constructor(string memory name, string memory symbol, string memory baseURI) public ERC721(name, symbol) {\n        _setupRole(DEFAULT_ADMIN_ROLE, _msgSender());\n\n        _setupRole(MINTER_ROLE, _msgSender());\n        _setupRole(PAUSER_ROLE, _msgSender());\n\n        _setBaseURI(baseURI);\n    }\n\n    /**\n     * @dev Creates a new token for `to`. Its token ID will be automatically\n     * assigned (and available on the emitted {IERC721-Transfer} event), and the token\n     * URI autogenerated based on the base URI passed at construction.\n     *\n     * See {ERC721-_mint}.\n     *\n     * Requirements:\n     *\n     * - the caller must have the `MINTER_ROLE`.\n     */\n    function mint(address to) public virtual {\n        require(hasRole(MINTER_ROLE, _msgSender()), \"ERC721PresetMinterPauserAutoId: must have minter role to mint\");\n\n        // We can just use balanceOf to create the new tokenId because tokens\n        // can be burned (destroyed), so we need a separate counter.\n        _mint(to, _tokenIdTracker.current());\n        _tokenIdTracker.increment();\n    }\n\n    /**\n     * @dev Pauses all token transfers.\n     *\n     * See {ERC721Pausable} and {Pausable-_pause}.\n     *\n     * Requirements:\n     *\n     * - the caller must have the `PAUSER_ROLE`.\n     */\n    function pause() public virtual {\n        require(hasRole(PAUSER_ROLE, _msgSender()), \"ERC721PresetMinterPauserAutoId: must have pauser role to pause\");\n        _pause();\n    }\n\n    /**\n     * @dev Unpauses all token transfers.\n     *\n     * See {ERC721Pausable} and {Pausable-_unpause}.\n     *\n     * Requirements:\n     *\n     * - the caller must have the `PAUSER_ROLE`.\n     */\n    function unpause() public virtual {\n        require(hasRole(PAUSER_ROLE, _msgSender()), \"ERC721PresetMinterPauserAutoId: must have pauser role to unpause\");\n        _unpause();\n    }\n\n    function _beforeTokenTransfer(address from, address to, uint256 tokenId) internal virtual override(ERC721, ERC721Pausable) {\n        super._beforeTokenTransfer(from, to, tokenId);\n    }\n}\n",
  "sourcePath": "/Users/lu/Desktop/ningbojj/JJToken/contracts/presets/ERC721PresetMinterPauserAutoId.sol",
  "compiler": {
    "name": "solc",
    "version": "0.6.10+commit.00c0fcaf.Emscripten.clang"
  },
  "schemaVersion": "3.2.3",
  "updatedAt": "2020-08-20T12:42:13.980Z",
  "devdoc": {
    "details": "{ERC721} token, including:  - ability for holders to burn (destroy) their tokens  - a minter role that allows for token minting (creation)  - a pauser role that allows to stop all token transfers  - token ID and URI autogeneration This contract uses {AccessControl} to lock permissioned functions using the different roles - head to its documentation for details. The account that deploys the contract will be granted the minter and pauser roles, as well as the default admin role, which will let it grant both minter and pauser roles to other accounts.",
    "methods": {
      "approve(address,uint256)": {
        "details": "See {IERC721-approve}."
      },
      "balanceOf(address)": {
        "details": "See {IERC721-balanceOf}."
      },
      "baseURI()": {
        "details": "Returns the base URI set via {_setBaseURI}. This will be automatically added as a prefix in {tokenURI} to each token's URI, or to the token ID if no specific URI is set for that token ID."
      },
      "burn(uint256)": {
        "details": "Burns `tokenId`. See {ERC721-_burn}. Requirements: - The caller must own `tokenId` or be an approved operator."
      },
      "constructor": {
        "details": "Grants `DEFAULT_ADMIN_ROLE`, `MINTER_ROLE` and `PAUSER_ROLE` to the account that deploys the contract. Token URIs will be autogenerated based on `baseURI` and their token IDs. See {ERC721-tokenURI}."
      },
      "getApproved(uint256)": {
        "details": "See {IERC721-getApproved}."
      },
      "getRoleAdmin(bytes32)": {
        "details": "Returns the admin role that controls `role`. See {grantRole} and {revokeRole}. To change a role's admin, use {_setRoleAdmin}."
      },
      "getRoleMember(bytes32,uint256)": {
        "details": "Returns one of the accounts that have `role`. `index` must be a value between 0 and {getRoleMemberCount}, non-inclusive. Role bearers are not sorted in any particular way, and their ordering may change at any point. WARNING: When using {getRoleMember} and {getRoleMemberCount}, make sure you perform all queries on the same block. See the following https://forum.openzeppelin.com/t/iterating-over-elements-on-enumerableset-in-openzeppelin-contracts/2296[forum post] for more information."
      },
      "getRoleMemberCount(bytes32)": {
        "details": "Returns the number of accounts that have `role`. Can be used together with {getRoleMember} to enumerate all bearers of a role."
      },
      "grantRole(bytes32,address)": {
        "details": "Grants `role` to `account`. If `account` had not been already granted `role`, emits a {RoleGranted} event. Requirements: - the caller must have ``role``'s admin role."
      },
      "hasRole(bytes32,address)": {
        "details": "Returns `true` if `account` has been granted `role`."
      },
      "isApprovedForAll(address,address)": {
        "details": "See {IERC721-isApprovedForAll}."
      },
      "mint(address)": {
        "details": "Creates a new token for `to`. Its token ID will be automatically assigned (and available on the emitted {IERC721-Transfer} event), and the token URI autogenerated based on the base URI passed at construction. See {ERC721-_mint}. Requirements: - the caller must have the `MINTER_ROLE`."
      },
      "name()": {
        "details": "See {IERC721Metadata-name}."
      },
      "ownerOf(uint256)": {
        "details": "See {IERC721-ownerOf}."
      },
      "pause()": {
        "details": "Pauses all token transfers. See {ERC721Pausable} and {Pausable-_pause}. Requirements: - the caller must have the `PAUSER_ROLE`."
      },
      "paused()": {
        "details": "Returns true if the contract is paused, and false otherwise."
      },
      "renounceRole(bytes32,address)": {
        "details": "Revokes `role` from the calling account. Roles are often managed via {grantRole} and {revokeRole}: this function's purpose is to provide a mechanism for accounts to lose their privileges if they are compromised (such as when a trusted device is misplaced). If the calling account had been granted `role`, emits a {RoleRevoked} event. Requirements: - the caller must be `account`."
      },
      "revokeRole(bytes32,address)": {
        "details": "Revokes `role` from `account`. If `account` had been granted `role`, emits a {RoleRevoked} event. Requirements: - the caller must have ``role``'s admin role."
      },
      "safeTransferFrom(address,address,uint256)": {
        "details": "See {IERC721-safeTransferFrom}."
      },
      "safeTransferFrom(address,address,uint256,bytes)": {
        "details": "See {IERC721-safeTransferFrom}."
      },
      "setApprovalForAll(address,bool)": {
        "details": "See {IERC721-setApprovalForAll}."
      },
      "supportsInterface(bytes4)": {
        "details": "See {IERC165-supportsInterface}. Time complexity O(1), guaranteed to always use less than 30 000 gas."
      },
      "symbol()": {
        "details": "See {IERC721Metadata-symbol}."
      },
      "tokenByIndex(uint256)": {
        "details": "See {IERC721Enumerable-tokenByIndex}."
      },
      "tokenOfOwnerByIndex(address,uint256)": {
        "details": "See {IERC721Enumerable-tokenOfOwnerByIndex}."
      },
      "tokenURI(uint256)": {
        "details": "See {IERC721Metadata-tokenURI}."
      },
      "totalSupply()": {
        "details": "See {IERC721Enumerable-totalSupply}."
      },
      "transferFrom(address,address,uint256)": {
        "details": "See {IERC721-transferFrom}."
      },
      "unpause()": {
        "details": "Unpauses all token transfers. See {ERC721Pausable} and {Pausable-_unpause}. Requirements: - the caller must have the `PAUSER_ROLE`."
      }
    }
  },
  "userdoc": {
    "methods": {}
  }
}