{
  "contractName": "EtherReceiverMock",
  "abi": [
    {
      "stateMutability": "payable",
      "type": "receive"
    },
    {
      "inputs": [
        {
          "internalType": "bool",
          "name": "acceptEther",
          "type": "bool"
        }
      ],
      "name": "setAcceptEther",
      "outputs": [],
      "stateMutability": "nonpayable",
      "type": "function"
    }
  ],
  "bytecode": "0x608060405234801561001057600080fd5b5060cc8061001f6000396000f3fe608060405260043610601f5760003560e01c80634fea120c14604157603c565b36603c576000809054906101000a900460ff16603a57600080fd5b005b600080fd5b348015604c57600080fd5b50607860048036036020811015606157600080fd5b81019080803515159060200190929190505050607a565b005b806000806101000a81548160ff0219169083151502179055505056fea264697066735822122007aeb12f75e4460e457bdb85bdbbdec722740afb45a82d624be9fcc846b5ee0c64736f6c634300060a0033",
  "immutableReferences": {},
  "source": "// SPDX-License-Identifier: MIT\n\npragma solidity ^0.6.0;\n\ncontract EtherReceiverMock {\n    bool private _acceptEther;\n\n    function setAcceptEther(bool acceptEther) public {\n        _acceptEther = acceptEther;\n    }\n\n    receive () external payable {\n        if (!_acceptEther) {\n            revert();\n        }\n    }\n}\n",
  "sourcePath": "/Users/lu/Desktop/contracts/c2c/JJToken/contracts/mocks/EtherReceiverMock.sol",
  "compiler": {
    "name": "solc",
    "version": "0.6.10+commit.00c0fcaf.Emscripten.clang"
  },
  "schemaVersion": "3.2.3",
  "updatedAt": "2020-08-18T07:30:21.761Z",
  "devdoc": {
    "methods": {}
  },
  "userdoc": {
    "methods": {}
  }
}