{
  "contractName": "JJToken",
  "abi": [
    {
      "inputs": [
        {
          "internalType": "string",
          "name": "name",
          "type": "string"
        },
        {
          "internalType": "string",
          "name": "symbol",
          "type": "string"
        }
      ],
      "stateMutability": "nonpayable",
      "type": "constructor"
    },
    {
      "anonymous": false,
      "inputs": [
        {
          "indexed": true,
          "internalType": "address",
          "name": "owner",
          "type": "address"
        },
        {
          "indexed": true,
          "internalType": "address",
          "name": "spender",
          "type": "address"
        },
        {
          "indexed": false,
          "internalType": "uint256",
          "name": "value",
          "type": "uint256"
        }
      ],
      "name": "Approval",
      "type": "event"
    },
    {
      "anonymous": false,
      "inputs": [
        {
          "indexed": false,
          "internalType": "address",
          "name": "newContract",
          "type": "address"
        }
      ],
      "name": "ContractUpgrade",
      "type": "event"
    },
    {
      "anonymous": false,
      "inputs": [
        {
          "indexed": true,
          "internalType": "address",
          "name": "from",
          "type": "address"
        },
        {
          "indexed": true,
          "internalType": "address",
          "name": "to",
          "type": "address"
        },
        {
          "indexed": false,
          "internalType": "uint256",
          "name": "value",
          "type": "uint256"
        }
      ],
      "name": "Transfer",
      "type": "event"
    },
    {
      "inputs": [],
      "name": "adminAddress",
      "outputs": [
        {
          "internalType": "address",
          "name": "",
          "type": "address"
        }
      ],
      "stateMutability": "view",
      "type": "function"
    },
    {
      "inputs": [
        {
          "internalType": "address",
          "name": "owner",
          "type": "address"
        },
        {
          "internalType": "address",
          "name": "spender",
          "type": "address"
        }
      ],
      "name": "allowance",
      "outputs": [
        {
          "internalType": "uint256",
          "name": "",
          "type": "uint256"
        }
      ],
      "stateMutability": "view",
      "type": "function"
    },
    {
      "inputs": [
        {
          "internalType": "address",
          "name": "spender",
          "type": "address"
        },
        {
          "internalType": "uint256",
          "name": "amount",
          "type": "uint256"
        }
      ],
      "name": "approve",
      "outputs": [
        {
          "internalType": "bool",
          "name": "",
          "type": "bool"
        }
      ],
      "stateMutability": "nonpayable",
      "type": "function"
    },
    {
      "inputs": [
        {
          "internalType": "address",
          "name": "account",
          "type": "address"
        }
      ],
      "name": "balanceOf",
      "outputs": [
        {
          "internalType": "uint256",
          "name": "",
          "type": "uint256"
        }
      ],
      "stateMutability": "view",
      "type": "function"
    },
    {
      "inputs": [],
      "name": "decimals",
      "outputs": [
        {
          "internalType": "uint8",
          "name": "",
          "type": "uint8"
        }
      ],
      "stateMutability": "view",
      "type": "function"
    },
    {
      "inputs": [
        {
          "internalType": "address",
          "name": "spender",
          "type": "address"
        },
        {
          "internalType": "uint256",
          "name": "subtractedValue",
          "type": "uint256"
        }
      ],
      "name": "decreaseAllowance",
      "outputs": [
        {
          "internalType": "bool",
          "name": "",
          "type": "bool"
        }
      ],
      "stateMutability": "nonpayable",
      "type": "function"
    },
    {
      "inputs": [
        {
          "internalType": "uint256",
          "name": "",
          "type": "uint256"
        }
      ],
      "name": "enterpriseAddress",
      "outputs": [
        {
          "internalType": "address",
          "name": "",
          "type": "address"
        }
      ],
      "stateMutability": "view",
      "type": "function"
    },
    {
      "inputs": [],
      "name": "feeAddress",
      "outputs": [
        {
          "internalType": "address",
          "name": "",
          "type": "address"
        }
      ],
      "stateMutability": "view",
      "type": "function"
    },
    {
      "inputs": [
        {
          "internalType": "address",
          "name": "spender",
          "type": "address"
        },
        {
          "internalType": "uint256",
          "name": "addedValue",
          "type": "uint256"
        }
      ],
      "name": "increaseAllowance",
      "outputs": [
        {
          "internalType": "bool",
          "name": "",
          "type": "bool"
        }
      ],
      "stateMutability": "nonpayable",
      "type": "function"
    },
    {
      "inputs": [],
      "name": "name",
      "outputs": [
        {
          "internalType": "string",
          "name": "",
          "type": "string"
        }
      ],
      "stateMutability": "view",
      "type": "function"
    },
    {
      "inputs": [
        {
          "internalType": "address",
          "name": "_newAdmin",
          "type": "address"
        }
      ],
      "name": "setAdmin",
      "outputs": [],
      "stateMutability": "nonpayable",
      "type": "function"
    },
    {
      "inputs": [
        {
          "internalType": "address[]",
          "name": "_newEnterprise",
          "type": "address[]"
        }
      ],
      "name": "setEnterpeise",
      "outputs": [],
      "stateMutability": "nonpayable",
      "type": "function"
    },
    {
      "inputs": [
        {
          "internalType": "address",
          "name": "_newFeeAddress",
          "type": "address"
        }
      ],
      "name": "setFeeAddress",
      "outputs": [],
      "stateMutability": "nonpayable",
      "type": "function"
    },
    {
      "inputs": [
        {
          "internalType": "address[]",
          "name": "_newStore",
          "type": "address[]"
        }
      ],
      "name": "setStore",
      "outputs": [],
      "stateMutability": "nonpayable",
      "type": "function"
    },
    {
      "inputs": [
        {
          "internalType": "uint256",
          "name": "",
          "type": "uint256"
        }
      ],
      "name": "storeAddress",
      "outputs": [
        {
          "internalType": "address",
          "name": "",
          "type": "address"
        }
      ],
      "stateMutability": "view",
      "type": "function"
    },
    {
      "inputs": [],
      "name": "symbol",
      "outputs": [
        {
          "internalType": "string",
          "name": "",
          "type": "string"
        }
      ],
      "stateMutability": "view",
      "type": "function"
    },
    {
      "inputs": [],
      "name": "totalSupply",
      "outputs": [
        {
          "internalType": "uint256",
          "name": "",
          "type": "uint256"
        }
      ],
      "stateMutability": "view",
      "type": "function"
    },
    {
      "inputs": [
        {
          "internalType": "address",
          "name": "sender",
          "type": "address"
        },
        {
          "internalType": "address",
          "name": "recipient",
          "type": "address"
        },
        {
          "internalType": "uint256",
          "name": "amount",
          "type": "uint256"
        }
      ],
      "name": "transferFrom",
      "outputs": [
        {
          "internalType": "bool",
          "name": "",
          "type": "bool"
        }
      ],
      "stateMutability": "nonpayable",
      "type": "function"
    },
    {
      "inputs": [],
      "name": "getBalance",
      "outputs": [
        {
          "internalType": "uint256",
          "name": "",
          "type": "uint256"
        }
      ],
      "stateMutability": "view",
      "type": "function"
    },
    {
      "inputs": [
        {
          "internalType": "address",
          "name": "enterprise",
          "type": "address"
        },
        {
          "internalType": "uint256",
          "name": "amount",
          "type": "uint256"
        }
      ],
      "name": "mint",
      "outputs": [],
      "stateMutability": "nonpayable",
      "type": "function"
    },
    {
      "inputs": [
        {
          "internalType": "address",
          "name": "account",
          "type": "address"
        },
        {
          "internalType": "uint256",
          "name": "amount",
          "type": "uint256"
        }
      ],
      "name": "burn",
      "outputs": [],
      "stateMutability": "nonpayable",
      "type": "function"
    },
    {
      "inputs": [
        {
          "internalType": "address",
          "name": "tokenAddress",
          "type": "address"
        },
        {
          "internalType": "uint256",
          "name": "amount",
          "type": "uint256"
        }
      ],
      "name": "approveTo",
      "outputs": [
        {
          "internalType": "bool",
          "name": "",
          "type": "bool"
        }
      ],
      "stateMutability": "nonpayable",
      "type": "function"
    },
    {
      "inputs": [
        {
          "internalType": "address",
          "name": "recipient",
          "type": "address"
        },
        {
          "internalType": "uint256",
          "name": "amount",
          "type": "uint256"
        }
      ],
      "name": "transfer",
      "outputs": [
        {
          "internalType": "bool",
          "name": "",
          "type": "bool"
        }
      ],
      "stateMutability": "nonpayable",
      "type": "function"
    }
  ],
  "bytecode": "0x60806040523480156200001157600080fd5b50604051620022e4380380620022e483398181016040528101906200003791906200019c565b818181600390805190602001906200005192919062000091565b5080600490805190602001906200006a92919062000091565b506012600560006101000a81548160ff021916908360ff16021790555050505050620002a0565b828054600181600116156101000203166002900490600052602060002090601f016020900481019282601f10620000d457805160ff191683800117855562000105565b8280016001018555821562000105579182015b8281111562000104578251825591602001919060010190620000e7565b5b50905062000114919062000118565b5090565b6200013d91905b80821115620001395760008160009055506001016200011f565b5090565b90565b600082601f8301126200015257600080fd5b81516200016962000163826200023d565b6200020f565b915080825260208301602083018583830111156200018657600080fd5b620001938382846200026a565b50505092915050565b60008060408385031215620001b057600080fd5b600083015167ffffffffffffffff811115620001cb57600080fd5b620001d98582860162000140565b925050602083015167ffffffffffffffff811115620001f757600080fd5b620002058582860162000140565b9150509250929050565b6000604051905081810181811067ffffffffffffffff821117156200023357600080fd5b8060405250919050565b600067ffffffffffffffff8211156200025557600080fd5b601f19601f8301169050602081019050919050565b60005b838110156200028a5780820151818401526020810190506200026d565b838111156200029a576000848401525b50505050565b61203480620002b06000396000f3fe608060405234801561001057600080fd5b506004361061014d5760003560e01c8063704b6c02116100c3578063a221f3b21161007c578063a221f3b2146103b2578063a457c2d7146103e2578063a9059cbb14610412578063d4e6ecb914610442578063dd62ed3e1461045e578063fc6f94681461048e5761014d565b8063704b6c02146102f457806370a08231146103105780637a65f9bc146103405780638705fcd41461035c57806395d89b41146103785780639dc29fac146103965761014d565b806323b872dd1161011557806323b872dd1461020c578063313ce5671461023c578063395093511461025a57806340c10f191461028a57806341275358146102a6578063547c07f7146102c45761014d565b806306fdde0314610152578063095ea7b31461017057806312065fe0146101a057806318160ddd146101be5780631f64e71f146101dc575b600080fd5b61015a6104ac565b6040516101679190611cf9565b60405180910390f35b61018a6004803603810190610185919061192a565b61054e565b6040516101979190611cde565b60405180910390f35b6101a861056c565b6040516101b59190611dfb565b60405180910390f35b6101c661057c565b6040516101d39190611dfb565b60405180910390f35b6101f660048036038101906101f1919061192a565b610586565b6040516102039190611cde565b60405180910390f35b610226600480360381019061022191906118db565b610641565b6040516102339190611cde565b60405180910390f35b61024461071a565b6040516102519190611e16565b60405180910390f35b610274600480360381019061026f919061192a565b610731565b6040516102819190611cde565b60405180910390f35b6102a4600480360381019061029f919061192a565b6107e4565b005b6102ae6107f2565b6040516102bb9190611cc3565b60405180910390f35b6102de60048036038101906102d991906119a7565b610818565b6040516102eb9190611cc3565b60405180910390f35b61030e60048036038101906103099190611876565b610854565b005b61032a60048036038101906103259190611876565b6108d2565b6040516103379190611dfb565b60405180910390f35b61035a60048036038101906103559190611966565b61091a565b005b61037660048036038101906103719190611876565b610a0c565b005b610380610ae4565b60405161038d9190611cf9565b60405180910390f35b6103b060048036038101906103ab919061192a565b610b86565b005b6103cc60048036038101906103c791906119a7565b610b94565b6040516103d99190611cc3565b60405180910390f35b6103fc60048036038101906103f7919061192a565b610bd0565b6040516104099190611cde565b60405180910390f35b61042c6004803603810190610427919061192a565b610c9d565b6040516104399190611cde565b60405180910390f35b61045c60048036038101906104579190611966565b610cb4565b005b6104786004803603810190610473919061189f565b610da6565b6040516104859190611dfb565b60405180910390f35b610496610e2d565b6040516104a39190611cc3565b60405180910390f35b606060038054600181600116156101000203166002900480601f0160208091040260200160405190810160405280929190818152602001828054600181600116156101000203166002900480156105445780601f1061051957610100808354040283529160200191610544565b820191906000526020600020905b81548152906001019060200180831161052757829003601f168201915b5050505050905090565b600061056261055b610e53565b8484610e5b565b6001905092915050565b6000610577336108d2565b905090565b6000600254905090565b6000806000905060008090505b60088054905081101561061d57600881815481106105ad57fe5b9060005260206000200160009054906101000a900473ffffffffffffffffffffffffffffffffffffffff1673ffffffffffffffffffffffffffffffffffffffff163373ffffffffffffffffffffffffffffffffffffffff16141561061057600191505b8080600101915050610593565b506001811461062b57600080fd5b610636338585610e5b565b600191505092915050565b600061064e848484611026565b61070f8461065a610e53565b61070a85604051806060016040528060288152602001611fb260289139600160008b73ffffffffffffffffffffffffffffffffffffffff1673ffffffffffffffffffffffffffffffffffffffff16815260200190815260200160002060006106c0610e53565b73ffffffffffffffffffffffffffffffffffffffff1673ffffffffffffffffffffffffffffffffffffffff168152602001908152602001600020546112bb9092919063ffffffff16565b610e5b565b600190509392505050565b6000600560009054906101000a900460ff16905090565b60006107da61073e610e53565b846107d5856001600061074f610e53565b73ffffffffffffffffffffffffffffffffffffffff1673ffffffffffffffffffffffffffffffffffffffff16815260200190815260200160002060008973ffffffffffffffffffffffffffffffffffffffff1673ffffffffffffffffffffffffffffffffffffffff1681526020019081526020016000205461131690919063ffffffff16565b610e5b565b6001905092915050565b6107ee828261136b565b5050565b600660009054906101000a900473ffffffffffffffffffffffffffffffffffffffff1681565b6008818154811061082557fe5b906000526020600020016000915054906101000a900473ffffffffffffffffffffffffffffffffffffffff1681565b600073ffffffffffffffffffffffffffffffffffffffff168173ffffffffffffffffffffffffffffffffffffffff16141561088e57600080fd5b80600560016101000a81548173ffffffffffffffffffffffffffffffffffffffff021916908373ffffffffffffffffffffffffffffffffffffffff16021790555050565b60008060008373ffffffffffffffffffffffffffffffffffffffff1673ffffffffffffffffffffffffffffffffffffffff168152602001908152602001600020549050919050565b600560019054906101000a900473ffffffffffffffffffffffffffffffffffffffff1673ffffffffffffffffffffffffffffffffffffffff163373ffffffffffffffffffffffffffffffffffffffff161461097457600080fd5b600080905060008090505b82518110156109e257600073ffffffffffffffffffffffffffffffffffffffff168382815181106109ac57fe5b602002602001015173ffffffffffffffffffffffffffffffffffffffff1614156109d557600191505b808060010191505061097f565b5060018114156109f157600080fd5b8160089080519060200190610a079291906116fc565b505050565b600560019054906101000a900473ffffffffffffffffffffffffffffffffffffffff1673ffffffffffffffffffffffffffffffffffffffff163373ffffffffffffffffffffffffffffffffffffffff1614610a6657600080fd5b600073ffffffffffffffffffffffffffffffffffffffff168173ffffffffffffffffffffffffffffffffffffffff161415610aa057600080fd5b80600660006101000a81548173ffffffffffffffffffffffffffffffffffffffff021916908373ffffffffffffffffffffffffffffffffffffffff16021790555050565b606060048054600181600116156101000203166002900480601f016020809104026020016040519081016040528092919081815260200182805460018160011615610100020316600290048015610b7c5780601f10610b5157610100808354040283529160200191610b7c565b820191906000526020600020905b815481529060010190602001808311610b5f57829003601f168201915b5050505050905090565b610b9082826114ff565b5050565b60078181548110610ba157fe5b906000526020600020016000915054906101000a900473ffffffffffffffffffffffffffffffffffffffff1681565b6000610c93610bdd610e53565b84610c8e85604051806060016040528060258152602001611fda6025913960016000610c07610e53565b73ffffffffffffffffffffffffffffffffffffffff1673ffffffffffffffffffffffffffffffffffffffff16815260200190815260200160002060008a73ffffffffffffffffffffffffffffffffffffffff1673ffffffffffffffffffffffffffffffffffffffff168152602001908152602001600020546112bb9092919063ffffffff16565b610e5b565b6001905092915050565b6000610caa338484611026565b6001905092915050565b600560019054906101000a900473ffffffffffffffffffffffffffffffffffffffff1673ffffffffffffffffffffffffffffffffffffffff163373ffffffffffffffffffffffffffffffffffffffff1614610d0e57600080fd5b600080905060008090505b8251811015610d7c57600073ffffffffffffffffffffffffffffffffffffffff16838281518110610d4657fe5b602002602001015173ffffffffffffffffffffffffffffffffffffffff161415610d6f57600191505b8080600101915050610d19565b506001811415610d8b57600080fd5b8160079080519060200190610da19291906116fc565b505050565b6000600160008473ffffffffffffffffffffffffffffffffffffffff1673ffffffffffffffffffffffffffffffffffffffff16815260200190815260200160002060008373ffffffffffffffffffffffffffffffffffffffff1673ffffffffffffffffffffffffffffffffffffffff16815260200190815260200160002054905092915050565b600560019054906101000a900473ffffffffffffffffffffffffffffffffffffffff1681565b600033905090565b600073ffffffffffffffffffffffffffffffffffffffff168373ffffffffffffffffffffffffffffffffffffffff161415610ecb576040517f08c379a0000000000000000000000000000000000000000000000000000000008152600401610ec290611dbb565b60405180910390fd5b600073ffffffffffffffffffffffffffffffffffffffff168273ffffffffffffffffffffffffffffffffffffffff161415610f3b576040517f08c379a0000000000000000000000000000000000000000000000000000000008152600401610f3290611d3b565b60405180910390fd5b80600160008573ffffffffffffffffffffffffffffffffffffffff1673ffffffffffffffffffffffffffffffffffffffff16815260200190815260200160002060008473ffffffffffffffffffffffffffffffffffffffff1673ffffffffffffffffffffffffffffffffffffffff168152602001908152602001600020819055508173ffffffffffffffffffffffffffffffffffffffff168373ffffffffffffffffffffffffffffffffffffffff167f8c5be1e5ebec7d5bd14f71427d1e84f3dd0314c0f7b2291e5b200ac8c7c3b925836040516110199190611dfb565b60405180910390a3505050565b600073ffffffffffffffffffffffffffffffffffffffff168373ffffffffffffffffffffffffffffffffffffffff161415611096576040517f08c379a000000000000000000000000000000000000000000000000000000000815260040161108d90611d9b565b60405180910390fd5b600073ffffffffffffffffffffffffffffffffffffffff168273ffffffffffffffffffffffffffffffffffffffff161415611106576040517f08c379a00000000000000000000000000000000000000000000000000000000081526004016110fd90611d1b565b60405180910390fd5b6111118383836116ad565b61117c81604051806060016040528060268152602001611f8c602691396000808773ffffffffffffffffffffffffffffffffffffffff1673ffffffffffffffffffffffffffffffffffffffff168152602001908152602001600020546112bb9092919063ffffffff16565b6000808573ffffffffffffffffffffffffffffffffffffffff1673ffffffffffffffffffffffffffffffffffffffff1681526020019081526020016000208190555061120f816000808573ffffffffffffffffffffffffffffffffffffffff1673ffffffffffffffffffffffffffffffffffffffff1681526020019081526020016000205461131690919063ffffffff16565b6000808473ffffffffffffffffffffffffffffffffffffffff1673ffffffffffffffffffffffffffffffffffffffff168152602001908152602001600020819055508173ffffffffffffffffffffffffffffffffffffffff168373ffffffffffffffffffffffffffffffffffffffff167fddf252ad1be2c89b69c2b068fc378daa952ba7f163c4a11628f55a4df523b3ef836040516112ae9190611dfb565b60405180910390a3505050565b6000838311158290611303576040517f08c379a00000000000000000000000000000000000000000000000000000000081526004016112fa9190611cf9565b60405180910390fd5b5060008385039050809150509392505050565b600080828401905083811015611361576040517f08c379a000000000000000000000000000000000000000000000000000000000815260040161135890611d5b565b60405180910390fd5b8091505092915050565b600073ffffffffffffffffffffffffffffffffffffffff168273ffffffffffffffffffffffffffffffffffffffff1614156113db576040517f08c379a00000000000000000000000000000000000000000000000000000000081526004016113d290611ddb565b60405180910390fd5b6113e7600083836116ad565b6113fc8160025461131690919063ffffffff16565b600281905550611453816000808573ffffffffffffffffffffffffffffffffffffffff1673ffffffffffffffffffffffffffffffffffffffff1681526020019081526020016000205461131690919063ffffffff16565b6000808473ffffffffffffffffffffffffffffffffffffffff1673ffffffffffffffffffffffffffffffffffffffff168152602001908152602001600020819055508173ffffffffffffffffffffffffffffffffffffffff16600073ffffffffffffffffffffffffffffffffffffffff167fddf252ad1be2c89b69c2b068fc378daa952ba7f163c4a11628f55a4df523b3ef836040516114f39190611dfb565b60405180910390a35050565b600073ffffffffffffffffffffffffffffffffffffffff168273ffffffffffffffffffffffffffffffffffffffff16141561156f576040517f08c379a000000000000000000000000000000000000000000000000000000000815260040161156690611d7b565b60405180910390fd5b61157b826000836116ad565b6115e681604051806060016040528060228152602001611f6a602291396000808673ffffffffffffffffffffffffffffffffffffffff1673ffffffffffffffffffffffffffffffffffffffff168152602001908152602001600020546112bb9092919063ffffffff16565b6000808473ffffffffffffffffffffffffffffffffffffffff1673ffffffffffffffffffffffffffffffffffffffff1681526020019081526020016000208190555061163d816002546116b290919063ffffffff16565b600281905550600073ffffffffffffffffffffffffffffffffffffffff168273ffffffffffffffffffffffffffffffffffffffff167fddf252ad1be2c89b69c2b068fc378daa952ba7f163c4a11628f55a4df523b3ef836040516116a19190611dfb565b60405180910390a35050565b505050565b60006116f483836040518060400160405280601e81526020017f536166654d6174683a207375627472616374696f6e206f766572666c6f7700008152506112bb565b905092915050565b828054828255906000526020600020908101928215611775579160200282015b828111156117745782518260006101000a81548173ffffffffffffffffffffffffffffffffffffffff021916908373ffffffffffffffffffffffffffffffffffffffff1602179055509160200191906001019061171c565b5b5090506117829190611786565b5090565b6117c691905b808211156117c257600081816101000a81549073ffffffffffffffffffffffffffffffffffffffff02191690555060010161178c565b5090565b90565b6000813590506117d881611f3b565b92915050565b600082601f8301126117ef57600080fd5b81356118026117fd82611e5e565b611e31565b9150818183526020840193506020810190508385602084028201111561182757600080fd5b60005b83811015611857578161183d88826117c9565b84526020840193506020830192505060018101905061182a565b5050505092915050565b60008135905061187081611f52565b92915050565b60006020828403121561188857600080fd5b6000611896848285016117c9565b91505092915050565b600080604083850312156118b257600080fd5b60006118c0858286016117c9565b92505060206118d1858286016117c9565b9150509250929050565b6000806000606084860312156118f057600080fd5b60006118fe868287016117c9565b935050602061190f868287016117c9565b925050604061192086828701611861565b9150509250925092565b6000806040838503121561193d57600080fd5b600061194b858286016117c9565b925050602061195c85828601611861565b9150509250929050565b60006020828403121561197857600080fd5b600082013567ffffffffffffffff81111561199257600080fd5b61199e848285016117de565b91505092915050565b6000602082840312156119b957600080fd5b60006119c784828501611861565b91505092915050565b6119d981611ea2565b82525050565b6119e881611eb4565b82525050565b60006119f982611e86565b611a038185611e91565b9350611a13818560208601611ef7565b611a1c81611f2a565b840191505092915050565b6000611a34602383611e91565b91507f45524332303a207472616e7366657220746f20746865207a65726f206164647260008301527f65737300000000000000000000000000000000000000000000000000000000006020830152604082019050919050565b6000611a9a602283611e91565b91507f45524332303a20617070726f766520746f20746865207a65726f20616464726560008301527f73730000000000000000000000000000000000000000000000000000000000006020830152604082019050919050565b6000611b00601b83611e91565b91507f536166654d6174683a206164646974696f6e206f766572666c6f7700000000006000830152602082019050919050565b6000611b40602183611e91565b91507f45524332303a206275726e2066726f6d20746865207a65726f2061646472657360008301527f73000000000000000000000000000000000000000000000000000000000000006020830152604082019050919050565b6000611ba6602583611e91565b91507f45524332303a207472616e736665722066726f6d20746865207a65726f20616460008301527f64726573730000000000000000000000000000000000000000000000000000006020830152604082019050919050565b6000611c0c602483611e91565b91507f45524332303a20617070726f76652066726f6d20746865207a65726f2061646460008301527f72657373000000000000000000000000000000000000000000000000000000006020830152604082019050919050565b6000611c72601f83611e91565b91507f45524332303a206d696e7420746f20746865207a65726f2061646472657373006000830152602082019050919050565b611cae81611ee0565b82525050565b611cbd81611eea565b82525050565b6000602082019050611cd860008301846119d0565b92915050565b6000602082019050611cf360008301846119df565b92915050565b60006020820190508181036000830152611d1381846119ee565b905092915050565b60006020820190508181036000830152611d3481611a27565b9050919050565b60006020820190508181036000830152611d5481611a8d565b9050919050565b60006020820190508181036000830152611d7481611af3565b9050919050565b60006020820190508181036000830152611d9481611b33565b9050919050565b60006020820190508181036000830152611db481611b99565b9050919050565b60006020820190508181036000830152611dd481611bff565b9050919050565b60006020820190508181036000830152611df481611c65565b9050919050565b6000602082019050611e106000830184611ca5565b92915050565b6000602082019050611e2b6000830184611cb4565b92915050565b6000604051905081810181811067ffffffffffffffff82111715611e5457600080fd5b8060405250919050565b600067ffffffffffffffff821115611e7557600080fd5b602082029050602081019050919050565b600081519050919050565b600082825260208201905092915050565b6000611ead82611ec0565b9050919050565b60008115159050919050565b600073ffffffffffffffffffffffffffffffffffffffff82169050919050565b6000819050919050565b600060ff82169050919050565b60005b83811015611f15578082015181840152602081019050611efa565b83811115611f24576000848401525b50505050565b6000601f19601f8301169050919050565b611f4481611ea2565b8114611f4f57600080fd5b50565b611f5b81611ee0565b8114611f6657600080fd5b5056fe45524332303a206275726e20616d6f756e7420657863656564732062616c616e636545524332303a207472616e7366657220616d6f756e7420657863656564732062616c616e636545524332303a207472616e7366657220616d6f756e74206578636565647320616c6c6f77616e636545524332303a2064656372656173656420616c6c6f77616e63652062656c6f77207a65726fa2646970667358221220a95482ab425f0481ebc1608b9b2373a69c7ebbb0412f3723e3aa95a8434e339464736f6c634300060a0033",
  "immutableReferences": {},
  "source": "// SPDX-License-Identifier: MIT\npragma solidity ^0.6.10;\npragma experimental ABIEncoderV2;\n\nimport \"../../access/AccessController.sol\";\n\n\nimport \"./ERC20.sol\";\nimport \"./IERC20.sol\";\nimport \"../../math/SafeMath.sol\";\n\ncontract JJToken is ERC20, AccessController {\n\n    constructor (string memory name, string memory symbol)\n        ERC20(name, symbol)\n        public\n    {}\n\n    function getBalance() public view returns(uint256) {\n        return balanceOf(msg.sender);\n    }\n\n    function mint(address enterprise, uint256 amount) public  {\n        _mint(enterprise, amount);\n    }\n\n\n    function burn(address account, uint256 amount)  public  {\n        _burn(account, amount);\n    }\n\n    function approveTo(address tokenAddress, uint256 amount) onlyEnterprise public virtual returns (bool) {\n        _approve(msg.sender, tokenAddress, amount);\n        return true;\n    }\n    \n    function transfer(address recipient, uint256 amount) public virtual override returns (bool) {\n        _transfer(msg.sender, recipient, amount);\n        return true;\n    }\n}\n",
  "sourcePath": "/Users/lu/Desktop/contracts/c2c/JJToken/contracts/token/ERC20/JJToken.sol",
  "compiler": {
    "name": "solc",
    "version": "0.6.10+commit.00c0fcaf.Emscripten.clang"
  },
  "schemaVersion": "3.2.3",
  "updatedAt": "2020-08-18T07:30:21.997Z",
  "devdoc": {
    "methods": {
      "allowance(address,address)": {
        "details": "See {IERC20-allowance}."
      },
      "approve(address,uint256)": {
        "details": "See {IERC20-approve}. Requirements: - `spender` cannot be the zero address."
      },
      "balanceOf(address)": {
        "details": "See {IERC20-balanceOf}."
      },
      "decimals()": {
        "details": "Returns the number of decimals used to get its user representation. For example, if `decimals` equals `2`, a balance of `505` tokens should be displayed to a user as `5,05` (`505 / 10 ** 2`). Tokens usually opt for a value of 18, imitating the relationship between Ether and Wei. This is the value {ERC20} uses, unless {_setupDecimals} is called. NOTE: This information is only used for _display_ purposes: it in no way affects any of the arithmetic of the contract, including {IERC20-balanceOf} and {IERC20-transfer}."
      },
      "decreaseAllowance(address,uint256)": {
        "details": "Atomically decreases the allowance granted to `spender` by the caller. This is an alternative to {approve} that can be used as a mitigation for problems described in {IERC20-approve}. Emits an {Approval} event indicating the updated allowance. Requirements: - `spender` cannot be the zero address. - `spender` must have allowance for the caller of at least `subtractedValue`."
      },
      "increaseAllowance(address,uint256)": {
        "details": "Atomically increases the allowance granted to `spender` by the caller. This is an alternative to {approve} that can be used as a mitigation for problems described in {IERC20-approve}. Emits an {Approval} event indicating the updated allowance. Requirements: - `spender` cannot be the zero address."
      },
      "name()": {
        "details": "Returns the name of the token."
      },
      "symbol()": {
        "details": "Returns the symbol of the token, usually a shorter version of the name."
      },
      "totalSupply()": {
        "details": "See {IERC20-totalSupply}."
      },
      "transferFrom(address,address,uint256)": {
        "details": "See {IERC20-transferFrom}. Emits an {Approval} event indicating the updated allowance. This is not required by the EIP. See the note at the beginning of {ERC20}; Requirements: - `sender` and `recipient` cannot be the zero address. - `sender` must have a balance of at least `amount`. - the caller must have allowance for ``sender``'s tokens of at least `amount`."
      }
    }
  },
  "userdoc": {
    "methods": {}
  }
}