{
  "contractName": "JJToken",
  "abi": [
    {
      "inputs": [
        {
          "internalType": "string",
          "name": "name",
          "type": "string"
        },
        {
          "internalType": "string",
          "name": "symbol",
          "type": "string"
        }
      ],
      "stateMutability": "nonpayable",
      "type": "constructor"
    },
    {
      "anonymous": false,
      "inputs": [
        {
          "indexed": true,
          "internalType": "address",
          "name": "owner",
          "type": "address"
        },
        {
          "indexed": true,
          "internalType": "address",
          "name": "spender",
          "type": "address"
        },
        {
          "indexed": false,
          "internalType": "uint256",
          "name": "value",
          "type": "uint256"
        }
      ],
      "name": "Approval",
      "type": "event"
    },
    {
      "anonymous": false,
      "inputs": [
        {
          "indexed": true,
          "internalType": "address",
          "name": "from",
          "type": "address"
        },
        {
          "indexed": true,
          "internalType": "address",
          "name": "to",
          "type": "address"
        },
        {
          "indexed": false,
          "internalType": "uint256",
          "name": "value",
          "type": "uint256"
        }
      ],
      "name": "Transfer",
      "type": "event"
    },
    {
      "inputs": [
        {
          "internalType": "address",
          "name": "owner",
          "type": "address"
        },
        {
          "internalType": "address",
          "name": "spender",
          "type": "address"
        }
      ],
      "name": "allowance",
      "outputs": [
        {
          "internalType": "uint256",
          "name": "",
          "type": "uint256"
        }
      ],
      "stateMutability": "view",
      "type": "function"
    },
    {
      "inputs": [
        {
          "internalType": "address",
          "name": "spender",
          "type": "address"
        },
        {
          "internalType": "uint256",
          "name": "amount",
          "type": "uint256"
        }
      ],
      "name": "approve",
      "outputs": [
        {
          "internalType": "bool",
          "name": "",
          "type": "bool"
        }
      ],
      "stateMutability": "nonpayable",
      "type": "function"
    },
    {
      "inputs": [
        {
          "internalType": "address",
          "name": "account",
          "type": "address"
        }
      ],
      "name": "balanceOf",
      "outputs": [
        {
          "internalType": "uint256",
          "name": "",
          "type": "uint256"
        }
      ],
      "stateMutability": "view",
      "type": "function"
    },
    {
      "inputs": [],
      "name": "decimals",
      "outputs": [
        {
          "internalType": "uint8",
          "name": "",
          "type": "uint8"
        }
      ],
      "stateMutability": "view",
      "type": "function"
    },
    {
      "inputs": [
        {
          "internalType": "address",
          "name": "spender",
          "type": "address"
        },
        {
          "internalType": "uint256",
          "name": "subtractedValue",
          "type": "uint256"
        }
      ],
      "name": "decreaseAllowance",
      "outputs": [
        {
          "internalType": "bool",
          "name": "",
          "type": "bool"
        }
      ],
      "stateMutability": "nonpayable",
      "type": "function"
    },
    {
      "inputs": [],
      "name": "getFeeAddress",
      "outputs": [
        {
          "internalType": "address",
          "name": "fAddress",
          "type": "address"
        }
      ],
      "stateMutability": "view",
      "type": "function"
    },
    {
      "inputs": [
        {
          "internalType": "address",
          "name": "spender",
          "type": "address"
        },
        {
          "internalType": "uint256",
          "name": "addedValue",
          "type": "uint256"
        }
      ],
      "name": "increaseAllowance",
      "outputs": [
        {
          "internalType": "bool",
          "name": "",
          "type": "bool"
        }
      ],
      "stateMutability": "nonpayable",
      "type": "function"
    },
    {
      "inputs": [],
      "name": "name",
      "outputs": [
        {
          "internalType": "string",
          "name": "",
          "type": "string"
        }
      ],
      "stateMutability": "view",
      "type": "function"
    },
    {
      "inputs": [],
      "name": "symbol",
      "outputs": [
        {
          "internalType": "string",
          "name": "",
          "type": "string"
        }
      ],
      "stateMutability": "view",
      "type": "function"
    },
    {
      "inputs": [],
      "name": "totalSupply",
      "outputs": [
        {
          "internalType": "uint256",
          "name": "",
          "type": "uint256"
        }
      ],
      "stateMutability": "view",
      "type": "function"
    },
    {
      "inputs": [
        {
          "internalType": "address",
          "name": "recipient",
          "type": "address"
        },
        {
          "internalType": "uint256",
          "name": "amount",
          "type": "uint256"
        }
      ],
      "name": "transfer",
      "outputs": [
        {
          "internalType": "bool",
          "name": "",
          "type": "bool"
        }
      ],
      "stateMutability": "nonpayable",
      "type": "function"
    },
    {
      "inputs": [
        {
          "internalType": "address",
          "name": "sender",
          "type": "address"
        },
        {
          "internalType": "address",
          "name": "recipient",
          "type": "address"
        },
        {
          "internalType": "uint256",
          "name": "amount",
          "type": "uint256"
        }
      ],
      "name": "transferFrom",
      "outputs": [
        {
          "internalType": "bool",
          "name": "",
          "type": "bool"
        }
      ],
      "stateMutability": "nonpayable",
      "type": "function"
    },
    {
      "inputs": [],
      "name": "getBalance",
      "outputs": [
        {
          "internalType": "uint256",
          "name": "",
          "type": "uint256"
        }
      ],
      "stateMutability": "view",
      "type": "function"
    },
    {
      "inputs": [
        {
          "internalType": "address",
          "name": "enterprise",
          "type": "address"
        },
        {
          "internalType": "uint256",
          "name": "amount",
          "type": "uint256"
        }
      ],
      "name": "jjMint",
      "outputs": [],
      "stateMutability": "nonpayable",
      "type": "function"
    },
    {
      "inputs": [
        {
          "internalType": "address",
          "name": "account",
          "type": "address"
        },
        {
          "internalType": "uint256",
          "name": "amount",
          "type": "uint256"
        }
      ],
      "name": "jjBurn",
      "outputs": [],
      "stateMutability": "nonpayable",
      "type": "function"
    },
    {
      "inputs": [
        {
          "internalType": "address",
          "name": "tokenAddress",
          "type": "address"
        },
        {
          "internalType": "uint256",
          "name": "amount",
          "type": "uint256"
        }
      ],
      "name": "jjApproveTo",
      "outputs": [
        {
          "internalType": "bool",
          "name": "",
          "type": "bool"
        }
      ],
      "stateMutability": "nonpayable",
      "type": "function"
    },
    {
      "inputs": [
        {
          "internalType": "address",
          "name": "recipient",
          "type": "address"
        },
        {
          "internalType": "uint256",
          "name": "amount",
          "type": "uint256"
        }
      ],
      "name": "jjTransfer",
      "outputs": [
        {
          "internalType": "bool",
          "name": "",
          "type": "bool"
        }
      ],
      "stateMutability": "nonpayable",
      "type": "function"
    }
  ],
  "bytecode": "0x60806040523480156200001157600080fd5b5060405162001f7838038062001f7883398181016040528101906200003791906200019c565b818181600390805190602001906200005192919062000091565b5080600490805190602001906200006a92919062000091565b506012600560006101000a81548160ff021916908360ff16021790555050505050620002a0565b828054600181600116156101000203166002900490600052602060002090601f016020900481019282601f10620000d457805160ff191683800117855562000105565b8280016001018555821562000105579182015b8281111562000104578251825591602001919060010190620000e7565b5b50905062000114919062000118565b5090565b6200013d91905b80821115620001395760008160009055506001016200011f565b5090565b90565b600082601f8301126200015257600080fd5b81516200016962000163826200023d565b6200020f565b915080825260208301602083018583830111156200018657600080fd5b620001938382846200026a565b50505092915050565b60008060408385031215620001b057600080fd5b600083015167ffffffffffffffff811115620001cb57600080fd5b620001d98582860162000140565b925050602083015167ffffffffffffffff811115620001f757600080fd5b620002058582860162000140565b9150509250929050565b6000604051905081810181811067ffffffffffffffff821117156200023357600080fd5b8060405250919050565b600067ffffffffffffffff8211156200025557600080fd5b601f19601f8301169050602081019050919050565b60005b838110156200028a5780820151818401526020810190506200026d565b838111156200029a576000848401525b50505050565b611cc880620002b06000396000f3fe608060405234801561001057600080fd5b506004361061010b5760003560e01c80634e7ceacb116100a2578063989147a011610071578063989147a0146102bc578063a457c2d7146102ec578063a9059cbb1461031c578063dd62ed3e1461034c578063f8a779ff1461037c5761010b565b80634e7ceacb146102345780635c90b7701461025257806370a082311461026e57806395d89b411461029e5761010b565b80631c9a53b5116100de5780631c9a53b51461019a57806323b872dd146101b6578063313ce567146101e657806339509351146102045761010b565b806306fdde0314610110578063095ea7b31461012e57806312065fe01461015e57806318160ddd1461017c575b600080fd5b6101186103ac565b6040516101259190611989565b60405180910390f35b610148600480360381019061014391906115ba565b61044e565b604051610155919061196e565b60405180910390f35b61016661046c565b6040516101739190611a8b565b60405180910390f35b61018461047c565b6040516101919190611a8b565b60405180910390f35b6101b460048036038101906101af91906115ba565b610486565b005b6101d060048036038101906101cb919061156b565b610494565b6040516101dd919061196e565b60405180910390f35b6101ee61056d565b6040516101fb9190611aa6565b60405180910390f35b61021e600480360381019061021991906115ba565b610584565b60405161022b919061196e565b60405180910390f35b61023c610637565b6040516102499190611953565b60405180910390f35b61026c600480360381019061026791906115ba565b6106d5565b005b610288600480360381019061028391906114dd565b6106e3565b6040516102959190611a8b565b60405180910390f35b6102a661072b565b6040516102b39190611989565b60405180910390f35b6102d660048036038101906102d191906115ba565b6107cd565b6040516102e3919061196e565b60405180910390f35b610306600480360381019061030191906115ba565b610973565b604051610313919061196e565b60405180910390f35b610336600480360381019061033191906115ba565b610a40565b604051610343919061196e565b60405180910390f35b6103666004803603810190610361919061152f565b610a5e565b6040516103739190611a8b565b60405180910390f35b610396600480360381019061039191906115ba565b610ae5565b6040516103a3919061196e565b60405180910390f35b606060038054600181600116156101000203166002900480601f0160208091040260200160405190810160405280929190818152602001828054600181600116156101000203166002900480156104445780601f1061041957610100808354040283529160200191610444565b820191906000526020600020905b81548152906001019060200180831161042757829003601f168201915b5050505050905090565b600061046261045b610afc565b8484610b04565b6001905092915050565b6000610477336106e3565b905090565b6000600254905090565b6104908282610ccf565b5050565b60006104a1848484610e63565b610562846104ad610afc565b61055d85604051806060016040528060288152602001611c4660289139600160008b73ffffffffffffffffffffffffffffffffffffffff1673ffffffffffffffffffffffffffffffffffffffff1681526020019081526020016000206000610513610afc565b73ffffffffffffffffffffffffffffffffffffffff1673ffffffffffffffffffffffffffffffffffffffff168152602001908152602001600020546110f89092919063ffffffff16565b610b04565b600190509392505050565b6000600560009054906101000a900460ff16905090565b600061062d610591610afc565b8461062885600160006105a2610afc565b73ffffffffffffffffffffffffffffffffffffffff1673ffffffffffffffffffffffffffffffffffffffff16815260200190815260200160002060008973ffffffffffffffffffffffffffffffffffffffff1673ffffffffffffffffffffffffffffffffffffffff1681526020019081526020016000205461115390919063ffffffff16565b610b04565b6001905092915050565b6000807322e7dd9b7c2708de833b880ef9804d3e31689fa690508073ffffffffffffffffffffffffffffffffffffffff1663412753586040518163ffffffff1660e01b815260040160206040518083038186803b15801561069757600080fd5b505afa1580156106ab573d6000803e3d6000fd5b505050506040513d601f19601f820116820180604052508101906106cf9190611506565b91505090565b6106df82826111a8565b5050565b60008060008373ffffffffffffffffffffffffffffffffffffffff1673ffffffffffffffffffffffffffffffffffffffff168152602001908152602001600020549050919050565b606060048054600181600116156101000203166002900480601f0160208091040260200160405190810160405280929190818152602001828054600181600116156101000203166002900480156107c35780601f10610798576101008083540402835291602001916107c3565b820191906000526020600020905b8154815290600101906020018083116107a657829003601f168201915b5050505050905090565b6000807322e7dd9b7c2708de833b880ef9804d3e31689fa69050600080905060008090505b8273ffffffffffffffffffffffffffffffffffffffff1663662cc7156040518163ffffffff1660e01b815260040160206040518083038186803b15801561083857600080fd5b505afa15801561084c573d6000803e3d6000fd5b505050506040513d601f19601f820116820180604052508101906108709190611637565b81101561094e578273ffffffffffffffffffffffffffffffffffffffff16632182a562826040518263ffffffff1660e01b81526004016108b09190611a8b565b60006040518083038186803b1580156108c857600080fd5b505afa1580156108dc573d6000803e3d6000fd5b505050506040513d6000823e3d601f19601f8201168201806040525081019061090591906115f6565b6040015173ffffffffffffffffffffffffffffffffffffffff163373ffffffffffffffffffffffffffffffffffffffff16141561094157600191505b80806001019150506107f2565b506001811461095c57600080fd5b610967338686610b04565b60019250505092915050565b6000610a36610980610afc565b84610a3185604051806060016040528060258152602001611c6e60259139600160006109aa610afc565b73ffffffffffffffffffffffffffffffffffffffff1673ffffffffffffffffffffffffffffffffffffffff16815260200190815260200160002060008a73ffffffffffffffffffffffffffffffffffffffff1673ffffffffffffffffffffffffffffffffffffffff168152602001908152602001600020546110f89092919063ffffffff16565b610b04565b6001905092915050565b6000610a54610a4d610afc565b8484610e63565b6001905092915050565b6000600160008473ffffffffffffffffffffffffffffffffffffffff1673ffffffffffffffffffffffffffffffffffffffff16815260200190815260200160002060008373ffffffffffffffffffffffffffffffffffffffff1673ffffffffffffffffffffffffffffffffffffffff16815260200190815260200160002054905092915050565b6000610af2338484610e63565b6001905092915050565b600033905090565b600073ffffffffffffffffffffffffffffffffffffffff168373ffffffffffffffffffffffffffffffffffffffff161415610b74576040517f08c379a0000000000000000000000000000000000000000000000000000000008152600401610b6b90611a4b565b60405180910390fd5b600073ffffffffffffffffffffffffffffffffffffffff168273ffffffffffffffffffffffffffffffffffffffff161415610be4576040517f08c379a0000000000000000000000000000000000000000000000000000000008152600401610bdb906119cb565b60405180910390fd5b80600160008573ffffffffffffffffffffffffffffffffffffffff1673ffffffffffffffffffffffffffffffffffffffff16815260200190815260200160002060008473ffffffffffffffffffffffffffffffffffffffff1673ffffffffffffffffffffffffffffffffffffffff168152602001908152602001600020819055508173ffffffffffffffffffffffffffffffffffffffff168373ffffffffffffffffffffffffffffffffffffffff167f8c5be1e5ebec7d5bd14f71427d1e84f3dd0314c0f7b2291e5b200ac8c7c3b92583604051610cc29190611a8b565b60405180910390a3505050565b600073ffffffffffffffffffffffffffffffffffffffff168273ffffffffffffffffffffffffffffffffffffffff161415610d3f576040517f08c379a0000000000000000000000000000000000000000000000000000000008152600401610d3690611a6b565b60405180910390fd5b610d4b60008383611356565b610d608160025461115390919063ffffffff16565b600281905550610db7816000808573ffffffffffffffffffffffffffffffffffffffff1673ffffffffffffffffffffffffffffffffffffffff1681526020019081526020016000205461115390919063ffffffff16565b6000808473ffffffffffffffffffffffffffffffffffffffff1673ffffffffffffffffffffffffffffffffffffffff168152602001908152602001600020819055508173ffffffffffffffffffffffffffffffffffffffff16600073ffffffffffffffffffffffffffffffffffffffff167fddf252ad1be2c89b69c2b068fc378daa952ba7f163c4a11628f55a4df523b3ef83604051610e579190611a8b565b60405180910390a35050565b600073ffffffffffffffffffffffffffffffffffffffff168373ffffffffffffffffffffffffffffffffffffffff161415610ed3576040517f08c379a0000000000000000000000000000000000000000000000000000000008152600401610eca90611a2b565b60405180910390fd5b600073ffffffffffffffffffffffffffffffffffffffff168273ffffffffffffffffffffffffffffffffffffffff161415610f43576040517f08c379a0000000000000000000000000000000000000000000000000000000008152600401610f3a906119ab565b60405180910390fd5b610f4e838383611356565b610fb981604051806060016040528060268152602001611c20602691396000808773ffffffffffffffffffffffffffffffffffffffff1673ffffffffffffffffffffffffffffffffffffffff168152602001908152602001600020546110f89092919063ffffffff16565b6000808573ffffffffffffffffffffffffffffffffffffffff1673ffffffffffffffffffffffffffffffffffffffff1681526020019081526020016000208190555061104c816000808573ffffffffffffffffffffffffffffffffffffffff1673ffffffffffffffffffffffffffffffffffffffff1681526020019081526020016000205461115390919063ffffffff16565b6000808473ffffffffffffffffffffffffffffffffffffffff1673ffffffffffffffffffffffffffffffffffffffff168152602001908152602001600020819055508173ffffffffffffffffffffffffffffffffffffffff168373ffffffffffffffffffffffffffffffffffffffff167fddf252ad1be2c89b69c2b068fc378daa952ba7f163c4a11628f55a4df523b3ef836040516110eb9190611a8b565b60405180910390a3505050565b6000838311158290611140576040517f08c379a00000000000000000000000000000000000000000000000000000000081526004016111379190611989565b60405180910390fd5b5060008385039050809150509392505050565b60008082840190508381101561119e576040517f08c379a0000000000000000000000000000000000000000000000000000000008152600401611195906119eb565b60405180910390fd5b8091505092915050565b600073ffffffffffffffffffffffffffffffffffffffff168273ffffffffffffffffffffffffffffffffffffffff161415611218576040517f08c379a000000000000000000000000000000000000000000000000000000000815260040161120f90611a0b565b60405180910390fd5b61122482600083611356565b61128f81604051806060016040528060228152602001611bfe602291396000808673ffffffffffffffffffffffffffffffffffffffff1673ffffffffffffffffffffffffffffffffffffffff168152602001908152602001600020546110f89092919063ffffffff16565b6000808473ffffffffffffffffffffffffffffffffffffffff1673ffffffffffffffffffffffffffffffffffffffff168152602001908152602001600020819055506112e68160025461135b90919063ffffffff16565b600281905550600073ffffffffffffffffffffffffffffffffffffffff168273ffffffffffffffffffffffffffffffffffffffff167fddf252ad1be2c89b69c2b068fc378daa952ba7f163c4a11628f55a4df523b3ef8360405161134a9190611a8b565b60405180910390a35050565b505050565b600061139d83836040518060400160405280601e81526020017f536166654d6174683a207375627472616374696f6e206f766572666c6f7700008152506110f8565b905092915050565b6000813590506113b481611bcf565b92915050565b6000815190506113c981611bcf565b92915050565b600082601f8301126113e057600080fd5b81516113f36113ee82611aee565b611ac1565b9150808252602083016020830185838301111561140f57600080fd5b61141a838284611b8b565b50505092915050565b60006060828403121561143557600080fd5b61143f6060611ac1565b9050600082015167ffffffffffffffff81111561145b57600080fd5b611467848285016113cf565b600083015250602082015167ffffffffffffffff81111561148757600080fd5b611493848285016113cf565b60208301525060406114a7848285016113ba565b60408301525092915050565b6000813590506114c281611be6565b92915050565b6000815190506114d781611be6565b92915050565b6000602082840312156114ef57600080fd5b60006114fd848285016113a5565b91505092915050565b60006020828403121561151857600080fd5b6000611526848285016113ba565b91505092915050565b6000806040838503121561154257600080fd5b6000611550858286016113a5565b9250506020611561858286016113a5565b9150509250929050565b60008060006060848603121561158057600080fd5b600061158e868287016113a5565b935050602061159f868287016113a5565b92505060406115b0868287016114b3565b9150509250925092565b600080604083850312156115cd57600080fd5b60006115db858286016113a5565b92505060206115ec858286016114b3565b9150509250929050565b60006020828403121561160857600080fd5b600082015167ffffffffffffffff81111561162257600080fd5b61162e84828501611423565b91505092915050565b60006020828403121561164957600080fd5b6000611657848285016114c8565b91505092915050565b61166981611b36565b82525050565b61167881611b48565b82525050565b600061168982611b1a565b6116938185611b25565b93506116a3818560208601611b8b565b6116ac81611bbe565b840191505092915050565b60006116c4602383611b25565b91507f45524332303a207472616e7366657220746f20746865207a65726f206164647260008301527f65737300000000000000000000000000000000000000000000000000000000006020830152604082019050919050565b600061172a602283611b25565b91507f45524332303a20617070726f766520746f20746865207a65726f20616464726560008301527f73730000000000000000000000000000000000000000000000000000000000006020830152604082019050919050565b6000611790601b83611b25565b91507f536166654d6174683a206164646974696f6e206f766572666c6f7700000000006000830152602082019050919050565b60006117d0602183611b25565b91507f45524332303a206275726e2066726f6d20746865207a65726f2061646472657360008301527f73000000000000000000000000000000000000000000000000000000000000006020830152604082019050919050565b6000611836602583611b25565b91507f45524332303a207472616e736665722066726f6d20746865207a65726f20616460008301527f64726573730000000000000000000000000000000000000000000000000000006020830152604082019050919050565b600061189c602483611b25565b91507f45524332303a20617070726f76652066726f6d20746865207a65726f2061646460008301527f72657373000000000000000000000000000000000000000000000000000000006020830152604082019050919050565b6000611902601f83611b25565b91507f45524332303a206d696e7420746f20746865207a65726f2061646472657373006000830152602082019050919050565b61193e81611b74565b82525050565b61194d81611b7e565b82525050565b60006020820190506119686000830184611660565b92915050565b6000602082019050611983600083018461166f565b92915050565b600060208201905081810360008301526119a3818461167e565b905092915050565b600060208201905081810360008301526119c4816116b7565b9050919050565b600060208201905081810360008301526119e48161171d565b9050919050565b60006020820190508181036000830152611a0481611783565b9050919050565b60006020820190508181036000830152611a24816117c3565b9050919050565b60006020820190508181036000830152611a4481611829565b9050919050565b60006020820190508181036000830152611a648161188f565b9050919050565b60006020820190508181036000830152611a84816118f5565b9050919050565b6000602082019050611aa06000830184611935565b92915050565b6000602082019050611abb6000830184611944565b92915050565b6000604051905081810181811067ffffffffffffffff82111715611ae457600080fd5b8060405250919050565b600067ffffffffffffffff821115611b0557600080fd5b601f19601f8301169050602081019050919050565b600081519050919050565b600082825260208201905092915050565b6000611b4182611b54565b9050919050565b60008115159050919050565b600073ffffffffffffffffffffffffffffffffffffffff82169050919050565b6000819050919050565b600060ff82169050919050565b60005b83811015611ba9578082015181840152602081019050611b8e565b83811115611bb8576000848401525b50505050565b6000601f19601f8301169050919050565b611bd881611b36565b8114611be357600080fd5b50565b611bef81611b74565b8114611bfa57600080fd5b5056fe45524332303a206275726e20616d6f756e7420657863656564732062616c616e636545524332303a207472616e7366657220616d6f756e7420657863656564732062616c616e636545524332303a207472616e7366657220616d6f756e74206578636565647320616c6c6f77616e636545524332303a2064656372656173656420616c6c6f77616e63652062656c6f77207a65726fa264697066735822122083c3f7356c707551b4cf3b2e3f2d0a931ea7765db1c9e21b1708088d59f0aa8f64736f6c634300060a0033",
  "immutableReferences": {},
  "source": "// SPDX-License-Identifier: MIT\npragma solidity ^0.6.10;\npragma experimental ABIEncoderV2;\n\nimport \"../../access/ACL.sol\";\n\n\nimport \"./ERC20.sol\";\nimport \"./IERC20.sol\";\nimport \"../../math/SafeMath.sol\";\n\ncontract JJToken is ERC20, ACL {\n\n    constructor (string memory name, string memory symbol)\n        ERC20(name, symbol)\n        public\n    {}\n\n    function getBalance() public view returns(uint256) {\n        return balanceOf(msg.sender);\n    }\n\n    function jjMint(address enterprise, uint256 amount) public  {\n        _mint(enterprise, amount);\n    }\n\n\n    function jjBurn(address account, uint256 amount)  public  {\n        _burn(account, amount);\n    }\n\n    function jjApproveTo(address tokenAddress, uint256 amount) onlyEnterprise public virtual returns (bool) {\n        _approve(msg.sender, tokenAddress, amount);\n        return true;\n    }\n\n    function jjTransfer(address recipient, uint256 amount) public virtual returns (bool) {\n        _transfer(msg.sender, recipient, amount);\n        return true;\n    }\n}\n",
  "sourcePath": "/Users/lu/Desktop/ningbojj/JJToken/contracts/token/ERC20/JJToken.sol",
  "compiler": {
    "name": "solc",
    "version": "0.6.10+commit.00c0fcaf.Emscripten.clang"
  },
  "schemaVersion": "3.2.3",
  "updatedAt": "2020-08-20T12:45:47.004Z",
  "devdoc": {
    "methods": {
      "allowance(address,address)": {
        "details": "See {IERC20-allowance}."
      },
      "approve(address,uint256)": {
        "details": "See {IERC20-approve}. Requirements: - `spender` cannot be the zero address."
      },
      "balanceOf(address)": {
        "details": "See {IERC20-balanceOf}."
      },
      "decimals()": {
        "details": "Returns the number of decimals used to get its user representation. For example, if `decimals` equals `2`, a balance of `505` tokens should be displayed to a user as `5,05` (`505 / 10 ** 2`). Tokens usually opt for a value of 18, imitating the relationship between Ether and Wei. This is the value {ERC20} uses, unless {_setupDecimals} is called. NOTE: This information is only used for _display_ purposes: it in no way affects any of the arithmetic of the contract, including {IERC20-balanceOf} and {IERC20-transfer}."
      },
      "decreaseAllowance(address,uint256)": {
        "details": "Atomically decreases the allowance granted to `spender` by the caller. This is an alternative to {approve} that can be used as a mitigation for problems described in {IERC20-approve}. Emits an {Approval} event indicating the updated allowance. Requirements: - `spender` cannot be the zero address. - `spender` must have allowance for the caller of at least `subtractedValue`."
      },
      "increaseAllowance(address,uint256)": {
        "details": "Atomically increases the allowance granted to `spender` by the caller. This is an alternative to {approve} that can be used as a mitigation for problems described in {IERC20-approve}. Emits an {Approval} event indicating the updated allowance. Requirements: - `spender` cannot be the zero address."
      },
      "name()": {
        "details": "Returns the name of the token."
      },
      "symbol()": {
        "details": "Returns the symbol of the token, usually a shorter version of the name."
      },
      "totalSupply()": {
        "details": "See {IERC20-totalSupply}."
      },
      "transfer(address,uint256)": {
        "details": "See {IERC20-transfer}. Requirements: - `recipient` cannot be the zero address. - the caller must have a balance of at least `amount`."
      },
      "transferFrom(address,address,uint256)": {
        "details": "See {IERC20-transferFrom}. Emits an {Approval} event indicating the updated allowance. This is not required by the EIP. See the note at the beginning of {ERC20}; Requirements: - `sender` and `recipient` cannot be the zero address. - `sender` must have a balance of at least `amount`. - the caller must have allowance for ``sender``'s tokens of at least `amount`."
      }
    }
  },
  "userdoc": {
    "methods": {}
  }
}