{
  "contractName": "JJToken",
  "abi": [
    {
      "inputs": [
        {
          "internalType": "string",
          "name": "name",
          "type": "string"
        },
        {
          "internalType": "string",
          "name": "symbol",
          "type": "string"
        }
      ],
      "stateMutability": "nonpayable",
      "type": "constructor"
    },
    {
      "anonymous": false,
      "inputs": [
        {
          "indexed": true,
          "internalType": "address",
          "name": "owner",
          "type": "address"
        },
        {
          "indexed": true,
          "internalType": "address",
          "name": "spender",
          "type": "address"
        },
        {
          "indexed": false,
          "internalType": "uint256",
          "name": "value",
          "type": "uint256"
        }
      ],
      "name": "Approval",
      "type": "event"
    },
    {
      "anonymous": false,
      "inputs": [
        {
          "indexed": true,
          "internalType": "address",
          "name": "from",
          "type": "address"
        },
        {
          "indexed": true,
          "internalType": "address",
          "name": "to",
          "type": "address"
        },
        {
          "indexed": false,
          "internalType": "uint256",
          "name": "value",
          "type": "uint256"
        }
      ],
      "name": "Transfer",
      "type": "event"
    },
    {
      "inputs": [
        {
          "internalType": "address",
          "name": "owner",
          "type": "address"
        },
        {
          "internalType": "address",
          "name": "spender",
          "type": "address"
        }
      ],
      "name": "allowance",
      "outputs": [
        {
          "internalType": "uint256",
          "name": "",
          "type": "uint256"
        }
      ],
      "stateMutability": "view",
      "type": "function"
    },
    {
      "inputs": [
        {
          "internalType": "address",
          "name": "spender",
          "type": "address"
        },
        {
          "internalType": "uint256",
          "name": "amount",
          "type": "uint256"
        }
      ],
      "name": "approve",
      "outputs": [
        {
          "internalType": "bool",
          "name": "",
          "type": "bool"
        }
      ],
      "stateMutability": "nonpayable",
      "type": "function"
    },
    {
      "inputs": [
        {
          "internalType": "address",
          "name": "account",
          "type": "address"
        }
      ],
      "name": "balanceOf",
      "outputs": [
        {
          "internalType": "uint256",
          "name": "",
          "type": "uint256"
        }
      ],
      "stateMutability": "view",
      "type": "function"
    },
    {
      "inputs": [],
      "name": "decimals",
      "outputs": [
        {
          "internalType": "uint8",
          "name": "",
          "type": "uint8"
        }
      ],
      "stateMutability": "view",
      "type": "function"
    },
    {
      "inputs": [
        {
          "internalType": "address",
          "name": "spender",
          "type": "address"
        },
        {
          "internalType": "uint256",
          "name": "subtractedValue",
          "type": "uint256"
        }
      ],
      "name": "decreaseAllowance",
      "outputs": [
        {
          "internalType": "bool",
          "name": "",
          "type": "bool"
        }
      ],
      "stateMutability": "nonpayable",
      "type": "function"
    },
    {
      "inputs": [],
      "name": "getFeeAddress",
      "outputs": [
        {
          "internalType": "address",
          "name": "fAddress",
          "type": "address"
        }
      ],
      "stateMutability": "view",
      "type": "function"
    },
    {
      "inputs": [
        {
          "internalType": "address",
          "name": "spender",
          "type": "address"
        },
        {
          "internalType": "uint256",
          "name": "addedValue",
          "type": "uint256"
        }
      ],
      "name": "increaseAllowance",
      "outputs": [
        {
          "internalType": "bool",
          "name": "",
          "type": "bool"
        }
      ],
      "stateMutability": "nonpayable",
      "type": "function"
    },
    {
      "inputs": [],
      "name": "name",
      "outputs": [
        {
          "internalType": "string",
          "name": "",
          "type": "string"
        }
      ],
      "stateMutability": "view",
      "type": "function"
    },
    {
      "inputs": [],
      "name": "symbol",
      "outputs": [
        {
          "internalType": "string",
          "name": "",
          "type": "string"
        }
      ],
      "stateMutability": "view",
      "type": "function"
    },
    {
      "inputs": [],
      "name": "totalSupply",
      "outputs": [
        {
          "internalType": "uint256",
          "name": "",
          "type": "uint256"
        }
      ],
      "stateMutability": "view",
      "type": "function"
    },
    {
      "inputs": [
        {
          "internalType": "address",
          "name": "sender",
          "type": "address"
        },
        {
          "internalType": "address",
          "name": "recipient",
          "type": "address"
        },
        {
          "internalType": "uint256",
          "name": "amount",
          "type": "uint256"
        }
      ],
      "name": "transferFrom",
      "outputs": [
        {
          "internalType": "bool",
          "name": "",
          "type": "bool"
        }
      ],
      "stateMutability": "nonpayable",
      "type": "function"
    },
    {
      "inputs": [],
      "name": "getBalance",
      "outputs": [
        {
          "internalType": "uint256",
          "name": "",
          "type": "uint256"
        }
      ],
      "stateMutability": "view",
      "type": "function"
    },
    {
      "inputs": [
        {
          "internalType": "address",
          "name": "enterprise",
          "type": "address"
        },
        {
          "internalType": "uint256",
          "name": "amount",
          "type": "uint256"
        }
      ],
      "name": "mint",
      "outputs": [],
      "stateMutability": "nonpayable",
      "type": "function"
    },
    {
      "inputs": [
        {
          "internalType": "address",
          "name": "account",
          "type": "address"
        },
        {
          "internalType": "uint256",
          "name": "amount",
          "type": "uint256"
        }
      ],
      "name": "burn",
      "outputs": [],
      "stateMutability": "nonpayable",
      "type": "function"
    },
    {
      "inputs": [
        {
          "internalType": "address",
          "name": "tokenAddress",
          "type": "address"
        },
        {
          "internalType": "uint256",
          "name": "amount",
          "type": "uint256"
        }
      ],
      "name": "approveTo",
      "outputs": [
        {
          "internalType": "bool",
          "name": "",
          "type": "bool"
        }
      ],
      "stateMutability": "nonpayable",
      "type": "function"
    },
    {
      "inputs": [
        {
          "internalType": "address",
          "name": "recipient",
          "type": "address"
        },
        {
          "internalType": "uint256",
          "name": "amount",
          "type": "uint256"
        }
      ],
      "name": "transfer",
      "outputs": [
        {
          "internalType": "bool",
          "name": "",
          "type": "bool"
        }
      ],
      "stateMutability": "nonpayable",
      "type": "function"
    }
  ],
  "bytecode": "0x60806040523480156200001157600080fd5b5060405162001f1f38038062001f1f83398181016040528101906200003791906200019c565b818181600390805190602001906200005192919062000091565b5080600490805190602001906200006a92919062000091565b506012600560006101000a81548160ff021916908360ff16021790555050505050620002a0565b828054600181600116156101000203166002900490600052602060002090601f016020900481019282601f10620000d457805160ff191683800117855562000105565b8280016001018555821562000105579182015b8281111562000104578251825591602001919060010190620000e7565b5b50905062000114919062000118565b5090565b6200013d91905b80821115620001395760008160009055506001016200011f565b5090565b90565b600082601f8301126200015257600080fd5b81516200016962000163826200023d565b6200020f565b915080825260208301602083018583830111156200018657600080fd5b620001938382846200026a565b50505092915050565b60008060408385031215620001b057600080fd5b600083015167ffffffffffffffff811115620001cb57600080fd5b620001d98582860162000140565b925050602083015167ffffffffffffffff811115620001f757600080fd5b620002058582860162000140565b9150509250929050565b6000604051905081810181811067ffffffffffffffff821117156200023357600080fd5b8060405250919050565b600067ffffffffffffffff8211156200025557600080fd5b601f19601f8301169050602081019050919050565b60005b838110156200028a5780820151818401526020810190506200026d565b838111156200029a576000848401525b50505050565b611c6f80620002b06000396000f3fe608060405234801561001057600080fd5b50600436106101005760003560e01c806340c10f19116100975780639dc29fac116100665780639dc29fac146102c5578063a457c2d7146102e1578063a9059cbb14610311578063dd62ed3e1461034157610100565b806340c10f191461023d5780634e7ceacb1461025957806370a082311461027757806395d89b41146102a757610100565b80631f64e71f116100d35780631f64e71f1461018f57806323b872dd146101bf578063313ce567146101ef578063395093511461020d57610100565b806306fdde0314610105578063095ea7b31461012357806312065fe01461015357806318160ddd14610171575b600080fd5b61010d610371565b60405161011a9190611930565b60405180910390f35b61013d60048036038101906101389190611561565b610413565b60405161014a9190611915565b60405180910390f35b61015b610431565b6040516101689190611a32565b60405180910390f35b610179610441565b6040516101869190611a32565b60405180910390f35b6101a960048036038101906101a49190611561565b61044b565b6040516101b69190611915565b60405180910390f35b6101d960048036038101906101d49190611512565b6105f1565b6040516101e69190611915565b60405180910390f35b6101f76106ca565b6040516102049190611a4d565b60405180910390f35b61022760048036038101906102229190611561565b6106e1565b6040516102349190611915565b60405180910390f35b61025760048036038101906102529190611561565b610794565b005b6102616107a2565b60405161026e91906118fa565b60405180910390f35b610291600480360381019061028c9190611484565b610840565b60405161029e9190611a32565b60405180910390f35b6102af610888565b6040516102bc9190611930565b60405180910390f35b6102df60048036038101906102da9190611561565b61092a565b005b6102fb60048036038101906102f69190611561565b610938565b6040516103089190611915565b60405180910390f35b61032b60048036038101906103269190611561565b610a05565b6040516103389190611915565b60405180910390f35b61035b600480360381019061035691906114d6565b610a1c565b6040516103689190611a32565b60405180910390f35b606060038054600181600116156101000203166002900480601f0160208091040260200160405190810160405280929190818152602001828054600181600116156101000203166002900480156104095780601f106103de57610100808354040283529160200191610409565b820191906000526020600020905b8154815290600101906020018083116103ec57829003601f168201915b5050505050905090565b6000610427610420610aa3565b8484610aab565b6001905092915050565b600061043c33610840565b905090565b6000600254905090565b6000807322e7dd9b7c2708de833b880ef9804d3e31689fa69050600080905060008090505b8273ffffffffffffffffffffffffffffffffffffffff1663662cc7156040518163ffffffff1660e01b815260040160206040518083038186803b1580156104b657600080fd5b505afa1580156104ca573d6000803e3d6000fd5b505050506040513d601f19601f820116820180604052508101906104ee91906115de565b8110156105cc578273ffffffffffffffffffffffffffffffffffffffff16632182a562826040518263ffffffff1660e01b815260040161052e9190611a32565b60006040518083038186803b15801561054657600080fd5b505afa15801561055a573d6000803e3d6000fd5b505050506040513d6000823e3d601f19601f82011682018060405250810190610583919061159d565b6040015173ffffffffffffffffffffffffffffffffffffffff163373ffffffffffffffffffffffffffffffffffffffff1614156105bf57600191505b8080600101915050610470565b50600181146105da57600080fd5b6105e5338686610aab565b60019250505092915050565b60006105fe848484610c76565b6106bf8461060a610aa3565b6106ba85604051806060016040528060288152602001611bed60289139600160008b73ffffffffffffffffffffffffffffffffffffffff1673ffffffffffffffffffffffffffffffffffffffff1681526020019081526020016000206000610670610aa3565b73ffffffffffffffffffffffffffffffffffffffff1673ffffffffffffffffffffffffffffffffffffffff16815260200190815260200160002054610f0b9092919063ffffffff16565b610aab565b600190509392505050565b6000600560009054906101000a900460ff16905090565b600061078a6106ee610aa3565b8461078585600160006106ff610aa3565b73ffffffffffffffffffffffffffffffffffffffff1673ffffffffffffffffffffffffffffffffffffffff16815260200190815260200160002060008973ffffffffffffffffffffffffffffffffffffffff1673ffffffffffffffffffffffffffffffffffffffff16815260200190815260200160002054610f6690919063ffffffff16565b610aab565b6001905092915050565b61079e8282610fbb565b5050565b6000807322e7dd9b7c2708de833b880ef9804d3e31689fa690508073ffffffffffffffffffffffffffffffffffffffff1663412753586040518163ffffffff1660e01b815260040160206040518083038186803b15801561080257600080fd5b505afa158015610816573d6000803e3d6000fd5b505050506040513d601f19601f8201168201806040525081019061083a91906114ad565b91505090565b60008060008373ffffffffffffffffffffffffffffffffffffffff1673ffffffffffffffffffffffffffffffffffffffff168152602001908152602001600020549050919050565b606060048054600181600116156101000203166002900480601f0160208091040260200160405190810160405280929190818152602001828054600181600116156101000203166002900480156109205780601f106108f557610100808354040283529160200191610920565b820191906000526020600020905b81548152906001019060200180831161090357829003601f168201915b5050505050905090565b610934828261114f565b5050565b60006109fb610945610aa3565b846109f685604051806060016040528060258152602001611c15602591396001600061096f610aa3565b73ffffffffffffffffffffffffffffffffffffffff1673ffffffffffffffffffffffffffffffffffffffff16815260200190815260200160002060008a73ffffffffffffffffffffffffffffffffffffffff1673ffffffffffffffffffffffffffffffffffffffff16815260200190815260200160002054610f0b9092919063ffffffff16565b610aab565b6001905092915050565b6000610a12338484610c76565b6001905092915050565b6000600160008473ffffffffffffffffffffffffffffffffffffffff1673ffffffffffffffffffffffffffffffffffffffff16815260200190815260200160002060008373ffffffffffffffffffffffffffffffffffffffff1673ffffffffffffffffffffffffffffffffffffffff16815260200190815260200160002054905092915050565b600033905090565b600073ffffffffffffffffffffffffffffffffffffffff168373ffffffffffffffffffffffffffffffffffffffff161415610b1b576040517f08c379a0000000000000000000000000000000000000000000000000000000008152600401610b12906119f2565b60405180910390fd5b600073ffffffffffffffffffffffffffffffffffffffff168273ffffffffffffffffffffffffffffffffffffffff161415610b8b576040517f08c379a0000000000000000000000000000000000000000000000000000000008152600401610b8290611972565b60405180910390fd5b80600160008573ffffffffffffffffffffffffffffffffffffffff1673ffffffffffffffffffffffffffffffffffffffff16815260200190815260200160002060008473ffffffffffffffffffffffffffffffffffffffff1673ffffffffffffffffffffffffffffffffffffffff168152602001908152602001600020819055508173ffffffffffffffffffffffffffffffffffffffff168373ffffffffffffffffffffffffffffffffffffffff167f8c5be1e5ebec7d5bd14f71427d1e84f3dd0314c0f7b2291e5b200ac8c7c3b92583604051610c699190611a32565b60405180910390a3505050565b600073ffffffffffffffffffffffffffffffffffffffff168373ffffffffffffffffffffffffffffffffffffffff161415610ce6576040517f08c379a0000000000000000000000000000000000000000000000000000000008152600401610cdd906119d2565b60405180910390fd5b600073ffffffffffffffffffffffffffffffffffffffff168273ffffffffffffffffffffffffffffffffffffffff161415610d56576040517f08c379a0000000000000000000000000000000000000000000000000000000008152600401610d4d90611952565b60405180910390fd5b610d618383836112fd565b610dcc81604051806060016040528060268152602001611bc7602691396000808773ffffffffffffffffffffffffffffffffffffffff1673ffffffffffffffffffffffffffffffffffffffff16815260200190815260200160002054610f0b9092919063ffffffff16565b6000808573ffffffffffffffffffffffffffffffffffffffff1673ffffffffffffffffffffffffffffffffffffffff16815260200190815260200160002081905550610e5f816000808573ffffffffffffffffffffffffffffffffffffffff1673ffffffffffffffffffffffffffffffffffffffff16815260200190815260200160002054610f6690919063ffffffff16565b6000808473ffffffffffffffffffffffffffffffffffffffff1673ffffffffffffffffffffffffffffffffffffffff168152602001908152602001600020819055508173ffffffffffffffffffffffffffffffffffffffff168373ffffffffffffffffffffffffffffffffffffffff167fddf252ad1be2c89b69c2b068fc378daa952ba7f163c4a11628f55a4df523b3ef83604051610efe9190611a32565b60405180910390a3505050565b6000838311158290610f53576040517f08c379a0000000000000000000000000000000000000000000000000000000008152600401610f4a9190611930565b60405180910390fd5b5060008385039050809150509392505050565b600080828401905083811015610fb1576040517f08c379a0000000000000000000000000000000000000000000000000000000008152600401610fa890611992565b60405180910390fd5b8091505092915050565b600073ffffffffffffffffffffffffffffffffffffffff168273ffffffffffffffffffffffffffffffffffffffff16141561102b576040517f08c379a000000000000000000000000000000000000000000000000000000000815260040161102290611a12565b60405180910390fd5b611037600083836112fd565b61104c81600254610f6690919063ffffffff16565b6002819055506110a3816000808573ffffffffffffffffffffffffffffffffffffffff1673ffffffffffffffffffffffffffffffffffffffff16815260200190815260200160002054610f6690919063ffffffff16565b6000808473ffffffffffffffffffffffffffffffffffffffff1673ffffffffffffffffffffffffffffffffffffffff168152602001908152602001600020819055508173ffffffffffffffffffffffffffffffffffffffff16600073ffffffffffffffffffffffffffffffffffffffff167fddf252ad1be2c89b69c2b068fc378daa952ba7f163c4a11628f55a4df523b3ef836040516111439190611a32565b60405180910390a35050565b600073ffffffffffffffffffffffffffffffffffffffff168273ffffffffffffffffffffffffffffffffffffffff1614156111bf576040517f08c379a00000000000000000000000000000000000000000000000000000000081526004016111b6906119b2565b60405180910390fd5b6111cb826000836112fd565b61123681604051806060016040528060228152602001611ba5602291396000808673ffffffffffffffffffffffffffffffffffffffff1673ffffffffffffffffffffffffffffffffffffffff16815260200190815260200160002054610f0b9092919063ffffffff16565b6000808473ffffffffffffffffffffffffffffffffffffffff1673ffffffffffffffffffffffffffffffffffffffff1681526020019081526020016000208190555061128d8160025461130290919063ffffffff16565b600281905550600073ffffffffffffffffffffffffffffffffffffffff168273ffffffffffffffffffffffffffffffffffffffff167fddf252ad1be2c89b69c2b068fc378daa952ba7f163c4a11628f55a4df523b3ef836040516112f19190611a32565b60405180910390a35050565b505050565b600061134483836040518060400160405280601e81526020017f536166654d6174683a207375627472616374696f6e206f766572666c6f770000815250610f0b565b905092915050565b60008135905061135b81611b76565b92915050565b60008151905061137081611b76565b92915050565b600082601f83011261138757600080fd5b815161139a61139582611a95565b611a68565b915080825260208301602083018583830111156113b657600080fd5b6113c1838284611b32565b50505092915050565b6000606082840312156113dc57600080fd5b6113e66060611a68565b9050600082015167ffffffffffffffff81111561140257600080fd5b61140e84828501611376565b600083015250602082015167ffffffffffffffff81111561142e57600080fd5b61143a84828501611376565b602083015250604061144e84828501611361565b60408301525092915050565b60008135905061146981611b8d565b92915050565b60008151905061147e81611b8d565b92915050565b60006020828403121561149657600080fd5b60006114a48482850161134c565b91505092915050565b6000602082840312156114bf57600080fd5b60006114cd84828501611361565b91505092915050565b600080604083850312156114e957600080fd5b60006114f78582860161134c565b92505060206115088582860161134c565b9150509250929050565b60008060006060848603121561152757600080fd5b60006115358682870161134c565b93505060206115468682870161134c565b92505060406115578682870161145a565b9150509250925092565b6000806040838503121561157457600080fd5b60006115828582860161134c565b92505060206115938582860161145a565b9150509250929050565b6000602082840312156115af57600080fd5b600082015167ffffffffffffffff8111156115c957600080fd5b6115d5848285016113ca565b91505092915050565b6000602082840312156115f057600080fd5b60006115fe8482850161146f565b91505092915050565b61161081611add565b82525050565b61161f81611aef565b82525050565b600061163082611ac1565b61163a8185611acc565b935061164a818560208601611b32565b61165381611b65565b840191505092915050565b600061166b602383611acc565b91507f45524332303a207472616e7366657220746f20746865207a65726f206164647260008301527f65737300000000000000000000000000000000000000000000000000000000006020830152604082019050919050565b60006116d1602283611acc565b91507f45524332303a20617070726f766520746f20746865207a65726f20616464726560008301527f73730000000000000000000000000000000000000000000000000000000000006020830152604082019050919050565b6000611737601b83611acc565b91507f536166654d6174683a206164646974696f6e206f766572666c6f7700000000006000830152602082019050919050565b6000611777602183611acc565b91507f45524332303a206275726e2066726f6d20746865207a65726f2061646472657360008301527f73000000000000000000000000000000000000000000000000000000000000006020830152604082019050919050565b60006117dd602583611acc565b91507f45524332303a207472616e736665722066726f6d20746865207a65726f20616460008301527f64726573730000000000000000000000000000000000000000000000000000006020830152604082019050919050565b6000611843602483611acc565b91507f45524332303a20617070726f76652066726f6d20746865207a65726f2061646460008301527f72657373000000000000000000000000000000000000000000000000000000006020830152604082019050919050565b60006118a9601f83611acc565b91507f45524332303a206d696e7420746f20746865207a65726f2061646472657373006000830152602082019050919050565b6118e581611b1b565b82525050565b6118f481611b25565b82525050565b600060208201905061190f6000830184611607565b92915050565b600060208201905061192a6000830184611616565b92915050565b6000602082019050818103600083015261194a8184611625565b905092915050565b6000602082019050818103600083015261196b8161165e565b9050919050565b6000602082019050818103600083015261198b816116c4565b9050919050565b600060208201905081810360008301526119ab8161172a565b9050919050565b600060208201905081810360008301526119cb8161176a565b9050919050565b600060208201905081810360008301526119eb816117d0565b9050919050565b60006020820190508181036000830152611a0b81611836565b9050919050565b60006020820190508181036000830152611a2b8161189c565b9050919050565b6000602082019050611a4760008301846118dc565b92915050565b6000602082019050611a6260008301846118eb565b92915050565b6000604051905081810181811067ffffffffffffffff82111715611a8b57600080fd5b8060405250919050565b600067ffffffffffffffff821115611aac57600080fd5b601f19601f8301169050602081019050919050565b600081519050919050565b600082825260208201905092915050565b6000611ae882611afb565b9050919050565b60008115159050919050565b600073ffffffffffffffffffffffffffffffffffffffff82169050919050565b6000819050919050565b600060ff82169050919050565b60005b83811015611b50578082015181840152602081019050611b35565b83811115611b5f576000848401525b50505050565b6000601f19601f8301169050919050565b611b7f81611add565b8114611b8a57600080fd5b50565b611b9681611b1b565b8114611ba157600080fd5b5056fe45524332303a206275726e20616d6f756e7420657863656564732062616c616e636545524332303a207472616e7366657220616d6f756e7420657863656564732062616c616e636545524332303a207472616e7366657220616d6f756e74206578636565647320616c6c6f77616e636545524332303a2064656372656173656420616c6c6f77616e63652062656c6f77207a65726fa264697066735822122072e70b472e4acafd736760b308b270929633acd668be912ff8a85389d59beb3f64736f6c634300060a0033",
  "immutableReferences": {},
  "source": "// SPDX-License-Identifier: MIT\npragma solidity ^0.6.10;\npragma experimental ABIEncoderV2;\n\nimport \"../../access/ACL.sol\";\n\n\nimport \"./ERC20.sol\";\nimport \"./IERC20.sol\";\nimport \"../../math/SafeMath.sol\";\n\ncontract JJToken is ERC20, ACL {\n\n    constructor (string memory name, string memory symbol)\n        ERC20(name, symbol)\n        public\n    {}\n\n    function getBalance() public view returns(uint256) {\n        return balanceOf(msg.sender);\n    }\n\n    function mint(address enterprise, uint256 amount) public  {\n        _mint(enterprise, amount);\n    }\n\n\n    function burn(address account, uint256 amount)  public  {\n        _burn(account, amount);\n    }\n\n    function approveTo(address tokenAddress, uint256 amount) onlyEnterprise public virtual returns (bool) {\n        _approve(msg.sender, tokenAddress, amount);\n        return true;\n    }\n\n    function transfer(address recipient, uint256 amount) public virtual override returns (bool) {\n        _transfer(msg.sender, recipient, amount);\n        return true;\n    }\n}\n",
  "sourcePath": "/Users/lu/Desktop/contracts/JJToken/contracts/token/ERC20/JJToken.sol",
  "compiler": {
    "name": "solc",
    "version": "0.6.10+commit.00c0fcaf.Emscripten.clang"
  },
  "schemaVersion": "3.2.3",
  "updatedAt": "2020-08-18T13:18:06.143Z",
  "devdoc": {
    "methods": {
      "allowance(address,address)": {
        "details": "See {IERC20-allowance}."
      },
      "approve(address,uint256)": {
        "details": "See {IERC20-approve}. Requirements: - `spender` cannot be the zero address."
      },
      "balanceOf(address)": {
        "details": "See {IERC20-balanceOf}."
      },
      "decimals()": {
        "details": "Returns the number of decimals used to get its user representation. For example, if `decimals` equals `2`, a balance of `505` tokens should be displayed to a user as `5,05` (`505 / 10 ** 2`). Tokens usually opt for a value of 18, imitating the relationship between Ether and Wei. This is the value {ERC20} uses, unless {_setupDecimals} is called. NOTE: This information is only used for _display_ purposes: it in no way affects any of the arithmetic of the contract, including {IERC20-balanceOf} and {IERC20-transfer}."
      },
      "decreaseAllowance(address,uint256)": {
        "details": "Atomically decreases the allowance granted to `spender` by the caller. This is an alternative to {approve} that can be used as a mitigation for problems described in {IERC20-approve}. Emits an {Approval} event indicating the updated allowance. Requirements: - `spender` cannot be the zero address. - `spender` must have allowance for the caller of at least `subtractedValue`."
      },
      "increaseAllowance(address,uint256)": {
        "details": "Atomically increases the allowance granted to `spender` by the caller. This is an alternative to {approve} that can be used as a mitigation for problems described in {IERC20-approve}. Emits an {Approval} event indicating the updated allowance. Requirements: - `spender` cannot be the zero address."
      },
      "name()": {
        "details": "Returns the name of the token."
      },
      "symbol()": {
        "details": "Returns the symbol of the token, usually a shorter version of the name."
      },
      "totalSupply()": {
        "details": "See {IERC20-totalSupply}."
      },
      "transferFrom(address,address,uint256)": {
        "details": "See {IERC20-transferFrom}. Emits an {Approval} event indicating the updated allowance. This is not required by the EIP. See the note at the beginning of {ERC20}; Requirements: - `sender` and `recipient` cannot be the zero address. - `sender` must have a balance of at least `amount`. - the caller must have allowance for ``sender``'s tokens of at least `amount`."
      }
    }
  },
  "userdoc": {
    "methods": {}
  }
}