{
  "contractName": "Roles",
  "abi": [
    {
      "anonymous": false,
      "inputs": [
        {
          "indexed": false,
          "internalType": "address",
          "name": "newContract",
          "type": "address"
        }
      ],
      "name": "ContractUpgrade",
      "type": "event"
    },
    {
      "anonymous": false,
      "inputs": [
        {
          "indexed": false,
          "internalType": "string",
          "name": "enterpriseId",
          "type": "string"
        }
      ],
      "name": "EnterpriseDelete",
      "type": "event"
    },
    {
      "anonymous": false,
      "inputs": [
        {
          "indexed": false,
          "internalType": "string",
          "name": "enterpriseName",
          "type": "string"
        },
        {
          "indexed": false,
          "internalType": "string",
          "name": "enterpriseId",
          "type": "string"
        },
        {
          "indexed": false,
          "internalType": "address",
          "name": "enterpriseAddress",
          "type": "address"
        }
      ],
      "name": "EnterpriseEvent",
      "type": "event"
    },
    {
      "anonymous": false,
      "inputs": [
        {
          "indexed": false,
          "internalType": "string",
          "name": "enterpriseId",
          "type": "string"
        },
        {
          "indexed": false,
          "internalType": "string",
          "name": "enterpriseName",
          "type": "string"
        },
        {
          "indexed": false,
          "internalType": "address",
          "name": "enterpriseAddress",
          "type": "address"
        }
      ],
      "name": "EnterpriseUpdated",
      "type": "event"
    },
    {
      "anonymous": false,
      "inputs": [
        {
          "indexed": false,
          "internalType": "string",
          "name": "storeId",
          "type": "string"
        }
      ],
      "name": "StoreDelete",
      "type": "event"
    },
    {
      "anonymous": false,
      "inputs": [
        {
          "indexed": false,
          "internalType": "string",
          "name": "storeName",
          "type": "string"
        },
        {
          "indexed": false,
          "internalType": "string",
          "name": "storeId",
          "type": "string"
        },
        {
          "indexed": false,
          "internalType": "address",
          "name": "storeAddress",
          "type": "address"
        }
      ],
      "name": "StoreEvent",
      "type": "event"
    },
    {
      "anonymous": false,
      "inputs": [
        {
          "indexed": false,
          "internalType": "string",
          "name": "storeId",
          "type": "string"
        },
        {
          "indexed": false,
          "internalType": "string",
          "name": "storeName",
          "type": "string"
        },
        {
          "indexed": false,
          "internalType": "address",
          "name": "storeAddress",
          "type": "address"
        }
      ],
      "name": "StoreUpdated",
      "type": "event"
    },
    {
      "inputs": [],
      "name": "adminAddress",
      "outputs": [
        {
          "internalType": "address",
          "name": "",
          "type": "address"
        }
      ],
      "stateMutability": "view",
      "type": "function"
    },
    {
      "inputs": [
        {
          "internalType": "uint256",
          "name": "",
          "type": "uint256"
        }
      ],
      "name": "enterpriseAddress",
      "outputs": [
        {
          "internalType": "address",
          "name": "",
          "type": "address"
        }
      ],
      "stateMutability": "view",
      "type": "function"
    },
    {
      "inputs": [
        {
          "internalType": "uint256",
          "name": "",
          "type": "uint256"
        }
      ],
      "name": "enterprises",
      "outputs": [
        {
          "internalType": "string",
          "name": "enterpriseName",
          "type": "string"
        },
        {
          "internalType": "string",
          "name": "enterpriseId",
          "type": "string"
        },
        {
          "internalType": "address",
          "name": "enterpriseAddress",
          "type": "address"
        }
      ],
      "stateMutability": "view",
      "type": "function"
    },
    {
      "inputs": [],
      "name": "feeAddress",
      "outputs": [
        {
          "internalType": "address",
          "name": "",
          "type": "address"
        }
      ],
      "stateMutability": "view",
      "type": "function"
    },
    {
      "inputs": [
        {
          "internalType": "uint256",
          "name": "",
          "type": "uint256"
        }
      ],
      "name": "storeAddress",
      "outputs": [
        {
          "internalType": "address",
          "name": "",
          "type": "address"
        }
      ],
      "stateMutability": "view",
      "type": "function"
    },
    {
      "inputs": [
        {
          "internalType": "uint256",
          "name": "",
          "type": "uint256"
        }
      ],
      "name": "stores",
      "outputs": [
        {
          "internalType": "string",
          "name": "storeName",
          "type": "string"
        },
        {
          "internalType": "string",
          "name": "storeId",
          "type": "string"
        },
        {
          "internalType": "address",
          "name": "storeAddress",
          "type": "address"
        }
      ],
      "stateMutability": "view",
      "type": "function"
    },
    {
      "inputs": [
        {
          "internalType": "string",
          "name": "_newStoreName",
          "type": "string"
        },
        {
          "internalType": "string",
          "name": "_newStoreId",
          "type": "string"
        },
        {
          "internalType": "address",
          "name": "_newStoreAddress",
          "type": "address"
        }
      ],
      "name": "appendStore",
      "outputs": [],
      "stateMutability": "nonpayable",
      "type": "function"
    },
    {
      "inputs": [
        {
          "internalType": "string",
          "name": "_newEnterpriseName",
          "type": "string"
        },
        {
          "internalType": "string",
          "name": "_newEnterpriseId",
          "type": "string"
        },
        {
          "internalType": "address",
          "name": "_newEnterpriseAddress",
          "type": "address"
        }
      ],
      "name": "appendEnterprise",
      "outputs": [],
      "stateMutability": "nonpayable",
      "type": "function"
    },
    {
      "inputs": [],
      "name": "storesCount",
      "outputs": [
        {
          "internalType": "uint256",
          "name": "storesCount",
          "type": "uint256"
        }
      ],
      "stateMutability": "view",
      "type": "function"
    },
    {
      "inputs": [
        {
          "internalType": "uint256",
          "name": "index",
          "type": "uint256"
        }
      ],
      "name": "veryStore",
      "outputs": [
        {
          "components": [
            {
              "internalType": "string",
              "name": "storeName",
              "type": "string"
            },
            {
              "internalType": "string",
              "name": "storeId",
              "type": "string"
            },
            {
              "internalType": "address",
              "name": "storeAddress",
              "type": "address"
            }
          ],
          "internalType": "struct Roles.store",
          "name": "veryStore",
          "type": "tuple"
        }
      ],
      "stateMutability": "view",
      "type": "function"
    },
    {
      "inputs": [],
      "name": "enterpriseCount",
      "outputs": [
        {
          "internalType": "uint256",
          "name": "enterpriseCount",
          "type": "uint256"
        }
      ],
      "stateMutability": "view",
      "type": "function"
    },
    {
      "inputs": [
        {
          "internalType": "uint256",
          "name": "index",
          "type": "uint256"
        }
      ],
      "name": "veryEnterprise",
      "outputs": [
        {
          "components": [
            {
              "internalType": "string",
              "name": "enterpriseName",
              "type": "string"
            },
            {
              "internalType": "string",
              "name": "enterpriseId",
              "type": "string"
            },
            {
              "internalType": "address",
              "name": "enterpriseAddress",
              "type": "address"
            }
          ],
          "internalType": "struct Roles.enterprise",
          "name": "veryEnterprise",
          "type": "tuple"
        }
      ],
      "stateMutability": "view",
      "type": "function"
    },
    {
      "inputs": [
        {
          "internalType": "string",
          "name": "_enterpriseId",
          "type": "string"
        },
        {
          "internalType": "string",
          "name": "_newEnterpriseName",
          "type": "string"
        },
        {
          "internalType": "address",
          "name": "_newEnterpriseAddress",
          "type": "address"
        }
      ],
      "name": "updateEnterprise",
      "outputs": [
        {
          "internalType": "bool",
          "name": "success",
          "type": "bool"
        }
      ],
      "stateMutability": "nonpayable",
      "type": "function"
    },
    {
      "inputs": [
        {
          "internalType": "string",
          "name": "_storeId",
          "type": "string"
        },
        {
          "internalType": "string",
          "name": "_newStoreName",
          "type": "string"
        },
        {
          "internalType": "address",
          "name": "_newStoreAddress",
          "type": "address"
        }
      ],
      "name": "updateStore",
      "outputs": [
        {
          "internalType": "bool",
          "name": "success",
          "type": "bool"
        }
      ],
      "stateMutability": "nonpayable",
      "type": "function"
    },
    {
      "inputs": [
        {
          "internalType": "string",
          "name": "_enterpriseId",
          "type": "string"
        }
      ],
      "name": "deleteEnterprise",
      "outputs": [
        {
          "internalType": "bool",
          "name": "success",
          "type": "bool"
        }
      ],
      "stateMutability": "nonpayable",
      "type": "function"
    },
    {
      "inputs": [
        {
          "internalType": "string",
          "name": "_storeId",
          "type": "string"
        }
      ],
      "name": "deleteStore",
      "outputs": [
        {
          "internalType": "bool",
          "name": "success",
          "type": "bool"
        }
      ],
      "stateMutability": "nonpayable",
      "type": "function"
    },
    {
      "inputs": [
        {
          "internalType": "address",
          "name": "_newFeeAddress",
          "type": "address"
        }
      ],
      "name": "setFeeAddress",
      "outputs": [],
      "stateMutability": "nonpayable",
      "type": "function"
    },
    {
      "inputs": [
        {
          "internalType": "address",
          "name": "_newAdmin",
          "type": "address"
        }
      ],
      "name": "setAdmin",
      "outputs": [],
      "stateMutability": "nonpayable",
      "type": "function"
    }
  ],
  "bytecode": "0x608060405234801561001057600080fd5b50612261806100206000396000f3fe608060405234801561001057600080fd5b50600436106101165760003560e01c80638705fcd4116100a2578063acd8799d11610071578063acd8799d1461032f578063c7f992601461034b578063e8a59cd81461037b578063fa9188d1146103ad578063fc6f9468146103c957610116565b80638705fcd4146102935780639fbae286146102af578063a221f3b2146102e1578063aa0cd2b81461031157610116565b80633edd8ba2116100e95780633edd8ba2146101db578063412753581461020b578063547c07f714610229578063662cc71514610259578063704b6c021461027757610116565b80631318f45b1461011b5780631c9baf651461014b5780632182a5621461017b578063335499e5146101ab575b600080fd5b61013560048036038101906101309190611d89565b6103e7565b6040516101429190611ff0565b60405180910390f35b61016560048036038101906101609190611d48565b610609565b6040516101729190611ff0565b60405180910390f35b61019560048036038101906101909190611e08565b6108fa565b6040516101a29190612072565b60405180910390f35b6101c560048036038101906101c09190611e08565b610ac9565b6040516101d29190612094565b60405180910390f35b6101f560048036038101906101f09190611d48565b610c98565b6040516102029190611ff0565b60405180910390f35b610213610f89565b6040516102209190611fd5565b60405180910390f35b610243600480360381019061023e9190611e08565b610faf565b6040516102509190611fd5565b60405180910390f35b610261610feb565b60405161026e91906120b6565b60405180910390f35b610291600480360381019061028c9190611d1f565b610ff8565b005b6102ad60048036038101906102a89190611d1f565b611075565b005b6102c960048036038101906102c49190611e08565b61114c565b6040516102d89392919061202d565b60405180910390f35b6102fb60048036038101906102f69190611e08565b6112d3565b6040516103089190611fd5565b60405180910390f35b61031961130f565b60405161032691906120b6565b60405180910390f35b61034960048036038101906103449190611d89565b61131c565b005b61036560048036038101906103609190611d89565b6114da565b6040516103729190611ff0565b60405180910390f35b61039560048036038101906103909190611e08565b6116fc565b6040516103a49392919061202d565b60405180910390f35b6103c760048036038101906103c29190611d89565b611883565b005b6103d1611a41565b6040516103de9190611fd5565b60405180910390f35b60008060009054906101000a900473ffffffffffffffffffffffffffffffffffffffff1673ffffffffffffffffffffffffffffffffffffffff163373ffffffffffffffffffffffffffffffffffffffff161461044257600080fd5b60008090505b6005805490508110156105fc576105156005828154811061046557fe5b90600052602060002090600302016001018054600181600116156101000203166002900480601f01602080910402602001604051908101604052809291908181526020018280546001816001161561010002031660029004801561050a5780601f106104df5761010080835404028352916020019161050a565b820191906000526020600020905b8154815290600101906020018083116104ed57829003601f168201915b505050505086611a66565b156105ef57826005828154811061052857fe5b906000526020600020906003020160020160006101000a81548173ffffffffffffffffffffffffffffffffffffffff021916908373ffffffffffffffffffffffffffffffffffffffff160217905550836005828154811061058557fe5b906000526020600020906003020160000190805190602001906105a9929190611abf565b507fe23e51bb20727e88bdefb30c89c017b3805dde81efc2e2073953eb78e58ea0418585856040516105dd9392919061202d565b60405180910390a16001915050610602565b8080600101915050610448565b50600090505b9392505050565b60008060009054906101000a900473ffffffffffffffffffffffffffffffffffffffff1673ffffffffffffffffffffffffffffffffffffffff163373ffffffffffffffffffffffffffffffffffffffff161461066457600080fd5b60008090505b6005805490508110156108ef576107376005828154811061068757fe5b90600052602060002090600302016001018054600181600116156101000203166002900480601f01602080910402602001604051908101604052809291908181526020018280546001816001161561010002031660029004801561072c5780601f106107015761010080835404028352916020019161072c565b820191906000526020600020905b81548152906001019060200180831161070f57829003601f168201915b505050505084611a66565b156108e25760056001600580549050038154811061075157fe5b90600052602060002090600302016005828154811061076c57fe5b9060005260206000209060030201600082018160000190805460018160011615610100020316600290046107a1929190611b3f565b50600182018160010190805460018160011615610100020316600290046107c9929190611b3f565b506002820160009054906101000a900473ffffffffffffffffffffffffffffffffffffffff168160020160006101000a81548173ffffffffffffffffffffffffffffffffffffffff021916908373ffffffffffffffffffffffffffffffffffffffff16021790555090505060056001600580549050038154811061084957fe5b9060005260206000209060030201600080820160006108689190611bc6565b6001820160006108789190611bc6565b6002820160006101000a81549073ffffffffffffffffffffffffffffffffffffffff021916905550507fb478ce3e3e5faf29ee108d51b58b8b76e87b8d3de5b008ea32992b9dd7fdaf8d836040516108d0919061200b565b60405180910390a160019150506108f5565b808060010191505061066a565b50600090505b919050565b610902611c0e565b6005828154811061090f57fe5b9060005260206000209060030201604051806060016040529081600082018054600181600116156101000203166002900480601f0160208091040260200160405190810160405280929190818152602001828054600181600116156101000203166002900480156109c15780601f10610996576101008083540402835291602001916109c1565b820191906000526020600020905b8154815290600101906020018083116109a457829003601f168201915b50505050508152602001600182018054600181600116156101000203166002900480601f016020809104026020016040519081016040528092919081815260200182805460018160011615610100020316600290048015610a635780601f10610a3857610100808354040283529160200191610a63565b820191906000526020600020905b815481529060010190602001808311610a4657829003601f168201915b505050505081526020016002820160009054906101000a900473ffffffffffffffffffffffffffffffffffffffff1673ffffffffffffffffffffffffffffffffffffffff1673ffffffffffffffffffffffffffffffffffffffff16815250509050919050565b610ad1611c45565b60048281548110610ade57fe5b9060005260206000209060030201604051806060016040529081600082018054600181600116156101000203166002900480601f016020809104026020016040519081016040528092919081815260200182805460018160011615610100020316600290048015610b905780601f10610b6557610100808354040283529160200191610b90565b820191906000526020600020905b815481529060010190602001808311610b7357829003601f168201915b50505050508152602001600182018054600181600116156101000203166002900480601f016020809104026020016040519081016040528092919081815260200182805460018160011615610100020316600290048015610c325780601f10610c0757610100808354040283529160200191610c32565b820191906000526020600020905b815481529060010190602001808311610c1557829003601f168201915b505050505081526020016002820160009054906101000a900473ffffffffffffffffffffffffffffffffffffffff1673ffffffffffffffffffffffffffffffffffffffff1673ffffffffffffffffffffffffffffffffffffffff16815250509050919050565b60008060009054906101000a900473ffffffffffffffffffffffffffffffffffffffff1673ffffffffffffffffffffffffffffffffffffffff163373ffffffffffffffffffffffffffffffffffffffff1614610cf357600080fd5b60008090505b600480549050811015610f7e57610dc660048281548110610d1657fe5b90600052602060002090600302016001018054600181600116156101000203166002900480601f016020809104026020016040519081016040528092919081815260200182805460018160011615610100020316600290048015610dbb5780601f10610d9057610100808354040283529160200191610dbb565b820191906000526020600020905b815481529060010190602001808311610d9e57829003601f168201915b505050505084611a66565b15610f7157600460016004805490500381548110610de057fe5b906000526020600020906003020160048281548110610dfb57fe5b906000526020600020906003020160008201816000019080546001816001161561010002031660029004610e30929190611b3f565b5060018201816001019080546001816001161561010002031660029004610e58929190611b3f565b506002820160009054906101000a900473ffffffffffffffffffffffffffffffffffffffff168160020160006101000a81548173ffffffffffffffffffffffffffffffffffffffff021916908373ffffffffffffffffffffffffffffffffffffffff160217905550905050600460016004805490500381548110610ed857fe5b906000526020600020906003020160008082016000610ef79190611bc6565b600182016000610f079190611bc6565b6002820160006101000a81549073ffffffffffffffffffffffffffffffffffffffff021916905550507fc9c20932f810729419e6b7360018de88c2a500f4d04fd389f76035588c36c5a383604051610f5f919061200b565b60405180910390a16001915050610f84565b8080600101915050610cf9565b50600090505b919050565b600160009054906101000a900473ffffffffffffffffffffffffffffffffffffffff1681565b60038181548110610fbc57fe5b906000526020600020016000915054906101000a900473ffffffffffffffffffffffffffffffffffffffff1681565b6000600580549050905090565b600073ffffffffffffffffffffffffffffffffffffffff168173ffffffffffffffffffffffffffffffffffffffff16141561103257600080fd5b806000806101000a81548173ffffffffffffffffffffffffffffffffffffffff021916908373ffffffffffffffffffffffffffffffffffffffff16021790555050565b6000809054906101000a900473ffffffffffffffffffffffffffffffffffffffff1673ffffffffffffffffffffffffffffffffffffffff163373ffffffffffffffffffffffffffffffffffffffff16146110ce57600080fd5b600073ffffffffffffffffffffffffffffffffffffffff168173ffffffffffffffffffffffffffffffffffffffff16141561110857600080fd5b80600160006101000a81548173ffffffffffffffffffffffffffffffffffffffff021916908373ffffffffffffffffffffffffffffffffffffffff16021790555050565b6005818154811061115957fe5b9060005260206000209060030201600091509050806000018054600181600116156101000203166002900480601f0160208091040260200160405190810160405280929190818152602001828054600181600116156101000203166002900480156112055780601f106111da57610100808354040283529160200191611205565b820191906000526020600020905b8154815290600101906020018083116111e857829003601f168201915b505050505090806001018054600181600116156101000203166002900480601f0160208091040260200160405190810160405280929190818152602001828054600181600116156101000203166002900480156112a35780601f10611278576101008083540402835291602001916112a3565b820191906000526020600020905b81548152906001019060200180831161128657829003601f168201915b5050505050908060020160009054906101000a900473ffffffffffffffffffffffffffffffffffffffff16905083565b600281815481106112e057fe5b906000526020600020016000915054906101000a900473ffffffffffffffffffffffffffffffffffffffff1681565b6000600480549050905090565b6000809054906101000a900473ffffffffffffffffffffffffffffffffffffffff1673ffffffffffffffffffffffffffffffffffffffff163373ffffffffffffffffffffffffffffffffffffffff161461137557600080fd5b600073ffffffffffffffffffffffffffffffffffffffff168173ffffffffffffffffffffffffffffffffffffffff1614156113af57600080fd5b6113b7611c0e565b60405180606001604052808581526020018481526020018373ffffffffffffffffffffffffffffffffffffffff16815250905060058190806001815401808255809150506001900390600052602060002090600302016000909190919091506000820151816000019080519060200190611432929190611abf565b50602082015181600101908051906020019061144f929190611abf565b5060408201518160020160006101000a81548173ffffffffffffffffffffffffffffffffffffffff021916908373ffffffffffffffffffffffffffffffffffffffff16021790555050507f76e630c36dc7ee889d3627230758dd10de8b99036cdf45c645c38716ce9535df8484846040516114cc9392919061202d565b60405180910390a150505050565b60008060009054906101000a900473ffffffffffffffffffffffffffffffffffffffff1673ffffffffffffffffffffffffffffffffffffffff163373ffffffffffffffffffffffffffffffffffffffff161461153557600080fd5b60008090505b6004805490508110156116ef576116086004828154811061155857fe5b90600052602060002090600302016001018054600181600116156101000203166002900480601f0160208091040260200160405190810160405280929190818152602001828054600181600116156101000203166002900480156115fd5780601f106115d2576101008083540402835291602001916115fd565b820191906000526020600020905b8154815290600101906020018083116115e057829003601f168201915b505050505086611a66565b156116e257826004828154811061161b57fe5b906000526020600020906003020160020160006101000a81548173ffffffffffffffffffffffffffffffffffffffff021916908373ffffffffffffffffffffffffffffffffffffffff160217905550836004828154811061167857fe5b9060005260206000209060030201600001908051906020019061169c929190611abf565b507f82cfdc55b540392d84a5e3fece48cf94bbcb2a5ac40a0ec26fd710bc198fa1b08585856040516116d09392919061202d565b60405180910390a160019150506116f5565b808060010191505061153b565b50600090505b9392505050565b6004818154811061170957fe5b9060005260206000209060030201600091509050806000018054600181600116156101000203166002900480601f0160208091040260200160405190810160405280929190818152602001828054600181600116156101000203166002900480156117b55780601f1061178a576101008083540402835291602001916117b5565b820191906000526020600020905b81548152906001019060200180831161179857829003601f168201915b505050505090806001018054600181600116156101000203166002900480601f0160208091040260200160405190810160405280929190818152602001828054600181600116156101000203166002900480156118535780601f1061182857610100808354040283529160200191611853565b820191906000526020600020905b81548152906001019060200180831161183657829003601f168201915b5050505050908060020160009054906101000a900473ffffffffffffffffffffffffffffffffffffffff16905083565b6000809054906101000a900473ffffffffffffffffffffffffffffffffffffffff1673ffffffffffffffffffffffffffffffffffffffff163373ffffffffffffffffffffffffffffffffffffffff16146118dc57600080fd5b600073ffffffffffffffffffffffffffffffffffffffff168173ffffffffffffffffffffffffffffffffffffffff16141561191657600080fd5b61191e611c45565b60405180606001604052808581526020018481526020018373ffffffffffffffffffffffffffffffffffffffff16815250905060048190806001815401808255809150506001900390600052602060002090600302016000909190919091506000820151816000019080519060200190611999929190611abf565b5060208201518160010190805190602001906119b6929190611abf565b5060408201518160020160006101000a81548173ffffffffffffffffffffffffffffffffffffffff021916908373ffffffffffffffffffffffffffffffffffffffff16021790555050507f6fbd3a99554a60b36b9b2f038f9b80d8d37e9b32806986f43896911e1947bf10848484604051611a339392919061202d565b60405180910390a150505050565b6000809054906101000a900473ffffffffffffffffffffffffffffffffffffffff1681565b600081604051602001611a799190611fbe565b6040516020818303038152906040528051906020012083604051602001611aa09190611fbe565b6040516020818303038152906040528051906020012014905092915050565b828054600181600116156101000203166002900490600052602060002090601f016020900481019282601f10611b0057805160ff1916838001178555611b2e565b82800160010185558215611b2e579182015b82811115611b2d578251825591602001919060010190611b12565b5b509050611b3b9190611c7c565b5090565b828054600181600116156101000203166002900490600052602060002090601f016020900481019282601f10611b785780548555611bb5565b82800160010185558215611bb557600052602060002091601f016020900482015b82811115611bb4578254825591600101919060010190611b99565b5b509050611bc29190611c7c565b5090565b50805460018160011615610100020316600290046000825580601f10611bec5750611c0b565b601f016020900490600052602060002090810190611c0a9190611c7c565b5b50565b60405180606001604052806060815260200160608152602001600073ffffffffffffffffffffffffffffffffffffffff1681525090565b60405180606001604052806060815260200160608152602001600073ffffffffffffffffffffffffffffffffffffffff1681525090565b611c9e91905b80821115611c9a576000816000905550600101611c82565b5090565b90565b600081359050611cb0816121fd565b92915050565b600082601f830112611cc757600080fd5b8135611cda611cd5826120fe565b6120d1565b91508082526020830160208301858383011115611cf657600080fd5b611d018382846121aa565b50505092915050565b600081359050611d1981612214565b92915050565b600060208284031215611d3157600080fd5b6000611d3f84828501611ca1565b91505092915050565b600060208284031215611d5a57600080fd5b600082013567ffffffffffffffff811115611d7457600080fd5b611d8084828501611cb6565b91505092915050565b600080600060608486031215611d9e57600080fd5b600084013567ffffffffffffffff811115611db857600080fd5b611dc486828701611cb6565b935050602084013567ffffffffffffffff811115611de157600080fd5b611ded86828701611cb6565b9250506040611dfe86828701611ca1565b9150509250925092565b600060208284031215611e1a57600080fd5b6000611e2884828501611d0a565b91505092915050565b611e3a81612162565b82525050565b611e4981612162565b82525050565b611e5881612174565b82525050565b6000611e698261212a565b611e738185612135565b9350611e838185602086016121b9565b611e8c816121ec565b840191505092915050565b6000611ea28261212a565b611eac8185612146565b9350611ebc8185602086016121b9565b611ec5816121ec565b840191505092915050565b6000611edb8261212a565b611ee58185612157565b9350611ef58185602086016121b9565b80840191505092915050565b60006060830160008301518482036000860152611f1e8282611e5e565b91505060208301518482036020860152611f388282611e5e565b9150506040830151611f4d6040860182611e31565b508091505092915050565b60006060830160008301518482036000860152611f758282611e5e565b91505060208301518482036020860152611f8f8282611e5e565b9150506040830151611fa46040860182611e31565b508091505092915050565b611fb8816121a0565b82525050565b6000611fca8284611ed0565b915081905092915050565b6000602082019050611fea6000830184611e40565b92915050565b60006020820190506120056000830184611e4f565b92915050565b600060208201905081810360008301526120258184611e97565b905092915050565b600060608201905081810360008301526120478186611e97565b9050818103602083015261205b8185611e97565b905061206a6040830184611e40565b949350505050565b6000602082019050818103600083015261208c8184611f01565b905092915050565b600060208201905081810360008301526120ae8184611f58565b905092915050565b60006020820190506120cb6000830184611faf565b92915050565b6000604051905081810181811067ffffffffffffffff821117156120f457600080fd5b8060405250919050565b600067ffffffffffffffff82111561211557600080fd5b601f19601f8301169050602081019050919050565b600081519050919050565b600082825260208201905092915050565b600082825260208201905092915050565b600081905092915050565b600061216d82612180565b9050919050565b60008115159050919050565b600073ffffffffffffffffffffffffffffffffffffffff82169050919050565b6000819050919050565b82818337600083830152505050565b60005b838110156121d75780820151818401526020810190506121bc565b838111156121e6576000848401525b50505050565b6000601f19601f8301169050919050565b61220681612162565b811461221157600080fd5b50565b61221d816121a0565b811461222857600080fd5b5056fea2646970667358221220ac2d8a68ddee4b61acf10365a84a967a2510030f2fd1151005dd63c0725402b464736f6c634300060a0033",
  "immutableReferences": {},
  "source": "// SPDX-License-Identifier: MIT\npragma solidity ^0.6.10;\npragma experimental ABIEncoderV2;\n\ncontract Roles {\n\n    /// @dev Emited when contract is upgraded - See README.md for updgrade plan\n    event ContractUpgrade(address newContract);\n    // The addresses of the accounts (or contracts) that can execute actions within each roles.\n    address public adminAddress;\n    address public feeAddress;\n    address[] public storeAddress;\n    address[] public enterpriseAddress;\n    \n    event StoreEvent(string storeName , string storeId, address storeAddress);\n    event EnterpriseEvent(string enterpriseName , string enterpriseId, address enterpriseAddress);\n    event EnterpriseUpdated(string enterpriseId , string enterpriseName,address enterpriseAddress);\n    event StoreUpdated(string storeId , string storeName,address storeAddress);\n    event EnterpriseDelete(string enterpriseId);\n    event StoreDelete(string storeId);\n\n\n    \n    struct store{\n      string storeName;\n      string storeId;\n      address storeAddress;\n    }\n    \n    struct enterprise{\n      string enterpriseName;\n      string enterpriseId;\n      address enterpriseAddress;\n    }\n    \n   store[] public stores; \n   enterprise[] public enterprises;\n   \n    function appendStore(string memory _newStoreName, string memory _newStoreId ,address _newStoreAddress) onlyAdmin external{\n        require(_newStoreAddress != address(0));\n        store memory newStore = store(_newStoreName , _newStoreId, _newStoreAddress);\n        stores.push(newStore);\n        //emit event\n        emit StoreEvent (_newStoreName, _newStoreId, _newStoreAddress);\n    }\n    \n    function appendEnterprise (string memory _newEnterpriseName, string memory _newEnterpriseId ,address  _newEnterpriseAddress ) onlyAdmin external {\n        require(_newEnterpriseAddress != address(0));\n        enterprise memory newEnterprise = enterprise(_newEnterpriseName , _newEnterpriseId, _newEnterpriseAddress);\n        enterprises.push(newEnterprise);\n        //emit event\n        emit EnterpriseEvent (_newEnterpriseName, _newEnterpriseId, _newEnterpriseAddress);\n    }\n    \n    function storesCount() public view returns (uint256 storesCount){\n        return stores.length;\n    }\n    \n    function veryStore(uint index) public view returns (store memory veryStore){\n        return stores[index];\n    }  \n\n    function enterpriseCount() public view returns (uint256 enterpriseCount){\n        return enterprises.length;\n    }\n    \n    function veryEnterprise(uint index) public view returns (enterprise memory veryEnterprise){\n        return enterprises[index];\n    }  \n    \n    function updateEnterprise(string memory _enterpriseId, string memory _newEnterpriseName ,address  _newEnterpriseAddress ) onlyAdmin external returns (bool success){\n       //This has a problem we need loop\n       for(uint256 i =0; i< enterprises.length; i++){\n           if(compareStrings(enterprises[i].enterpriseId , _enterpriseId)){\n              enterprises[i].enterpriseAddress = _newEnterpriseAddress;\n              enterprises[i].enterpriseName = _newEnterpriseName;\n              emit EnterpriseUpdated(_enterpriseId,_newEnterpriseName,_newEnterpriseAddress);\n              return true;\n           }\n       }\n       return false;\n    }\n    \n    function updateStore(string memory _storeId, string memory _newStoreName ,address  _newStoreAddress ) onlyAdmin external returns (bool success){\n       //This has a problem we need loop\n       for(uint256 i =0; i< stores.length; i++){\n           if(compareStrings(stores[i].storeId , _storeId)){\n              stores[i].storeAddress = _newStoreAddress;\n              stores[i].storeName = _newStoreName;\n              emit StoreUpdated(_storeId,_newStoreName,_newStoreAddress);\n              return true;\n           }\n       }\n       return false;\n    }\n    \n    \n    function deleteEnterprise(string memory _enterpriseId) onlyAdmin external returns(bool success){\n        for(uint256 i =0; i< enterprises.length; i++){\n           if(compareStrings(enterprises[i].enterpriseId , _enterpriseId)){\n              enterprises[i] = enterprises[enterprises.length-1]; // pushing last into current arrray index which we gonna delete\n              delete enterprises[enterprises.length-1]; // now deleteing last index\n              emit EnterpriseDelete(_enterpriseId);\n              return true;\n           }\n       }\n       return false;\n   }\n   \n    \n    function deleteStore(string memory _storeId) onlyAdmin external returns(bool success){\n        for(uint256 i =0; i< stores.length; i++){\n           if(compareStrings(stores[i].storeId , _storeId)){\n              stores[i] = stores[stores.length-1]; // pushing last into current arrray index which we gonna delete\n              delete stores[stores.length-1]; // now deleteing last index\n              emit StoreDelete(_storeId);\n              return true;\n           }\n       }\n       return false;\n   }\n   \n    \n    function compareStrings (string memory a, string memory b) internal pure returns (bool){\n       return keccak256(abi.encodePacked(a)) == keccak256(abi.encodePacked(b));\n    }\n   \n    function setFeeAddress(address _newFeeAddress) onlyAdmin external{\n        require(_newFeeAddress != address(0));\n        feeAddress = _newFeeAddress;\n    }\n    \n    function setAdmin(address _newAdmin) external {\n        require(_newAdmin != address(0));\n        adminAddress = _newAdmin;\n    }\n    \n \n    modifier onlyAdmin() {\n        require(msg.sender == adminAddress);\n        _;\n    }\n\n}\n",
  "sourcePath": "/Users/lu/Desktop/contracts/JJToken/contracts/access/Roles.sol",
  "compiler": {
    "name": "solc",
    "version": "0.6.10+commit.00c0fcaf.Emscripten.clang"
  },
  "schemaVersion": "3.2.3",
  "updatedAt": "2020-08-18T13:18:05.951Z",
  "devdoc": {
    "methods": {}
  },
  "userdoc": {
    "methods": {}
  }
}