{
  "contractName": "Roles",
  "abi": [
    {
      "anonymous": false,
      "inputs": [
        {
          "indexed": false,
          "internalType": "address",
          "name": "newContract",
          "type": "address"
        }
      ],
      "name": "ContractUpgrade",
      "type": "event"
    },
    {
      "anonymous": false,
      "inputs": [
        {
          "indexed": false,
          "internalType": "string",
          "name": "enterpriseId",
          "type": "string"
        }
      ],
      "name": "EnterpriseDelete",
      "type": "event"
    },
    {
      "anonymous": false,
      "inputs": [
        {
          "indexed": false,
          "internalType": "string",
          "name": "enterpriseName",
          "type": "string"
        },
        {
          "indexed": false,
          "internalType": "string",
          "name": "enterpriseId",
          "type": "string"
        },
        {
          "indexed": false,
          "internalType": "address",
          "name": "enterpriseAddress",
          "type": "address"
        }
      ],
      "name": "EnterpriseEvent",
      "type": "event"
    },
    {
      "anonymous": false,
      "inputs": [
        {
          "indexed": false,
          "internalType": "string",
          "name": "enterpriseId",
          "type": "string"
        },
        {
          "indexed": false,
          "internalType": "string",
          "name": "enterpriseName",
          "type": "string"
        },
        {
          "indexed": false,
          "internalType": "address",
          "name": "enterpriseAddress",
          "type": "address"
        }
      ],
      "name": "EnterpriseUpdated",
      "type": "event"
    },
    {
      "anonymous": false,
      "inputs": [
        {
          "indexed": false,
          "internalType": "string",
          "name": "storeId",
          "type": "string"
        }
      ],
      "name": "StoreDelete",
      "type": "event"
    },
    {
      "anonymous": false,
      "inputs": [
        {
          "indexed": false,
          "internalType": "string",
          "name": "storeName",
          "type": "string"
        },
        {
          "indexed": false,
          "internalType": "string",
          "name": "storeId",
          "type": "string"
        },
        {
          "indexed": false,
          "internalType": "address",
          "name": "storeAddress",
          "type": "address"
        }
      ],
      "name": "StoreEvent",
      "type": "event"
    },
    {
      "anonymous": false,
      "inputs": [
        {
          "indexed": false,
          "internalType": "string",
          "name": "storeId",
          "type": "string"
        },
        {
          "indexed": false,
          "internalType": "string",
          "name": "storeName",
          "type": "string"
        },
        {
          "indexed": false,
          "internalType": "address",
          "name": "storeAddress",
          "type": "address"
        }
      ],
      "name": "StoreUpdated",
      "type": "event"
    },
    {
      "inputs": [],
      "name": "adminAddress",
      "outputs": [
        {
          "internalType": "address",
          "name": "",
          "type": "address"
        }
      ],
      "stateMutability": "view",
      "type": "function"
    },
    {
      "inputs": [
        {
          "internalType": "uint256",
          "name": "",
          "type": "uint256"
        }
      ],
      "name": "enterpriseAddress",
      "outputs": [
        {
          "internalType": "address",
          "name": "",
          "type": "address"
        }
      ],
      "stateMutability": "view",
      "type": "function"
    },
    {
      "inputs": [
        {
          "internalType": "uint256",
          "name": "",
          "type": "uint256"
        }
      ],
      "name": "enterprises",
      "outputs": [
        {
          "internalType": "string",
          "name": "enterpriseName",
          "type": "string"
        },
        {
          "internalType": "string",
          "name": "enterpriseId",
          "type": "string"
        },
        {
          "internalType": "address",
          "name": "enterpriseAddress",
          "type": "address"
        }
      ],
      "stateMutability": "view",
      "type": "function"
    },
    {
      "inputs": [],
      "name": "feeAddress",
      "outputs": [
        {
          "internalType": "address",
          "name": "",
          "type": "address"
        }
      ],
      "stateMutability": "view",
      "type": "function"
    },
    {
      "inputs": [
        {
          "internalType": "uint256",
          "name": "",
          "type": "uint256"
        }
      ],
      "name": "storeAddress",
      "outputs": [
        {
          "internalType": "address",
          "name": "",
          "type": "address"
        }
      ],
      "stateMutability": "view",
      "type": "function"
    },
    {
      "inputs": [
        {
          "internalType": "uint256",
          "name": "",
          "type": "uint256"
        }
      ],
      "name": "stores",
      "outputs": [
        {
          "internalType": "string",
          "name": "storeName",
          "type": "string"
        },
        {
          "internalType": "string",
          "name": "storeId",
          "type": "string"
        },
        {
          "internalType": "address",
          "name": "storeAddress",
          "type": "address"
        }
      ],
      "stateMutability": "view",
      "type": "function"
    },
    {
      "inputs": [
        {
          "internalType": "string",
          "name": "_newStoreName",
          "type": "string"
        },
        {
          "internalType": "string",
          "name": "_newStoreId",
          "type": "string"
        },
        {
          "internalType": "address",
          "name": "_newStoreAddress",
          "type": "address"
        }
      ],
      "name": "appendStore",
      "outputs": [],
      "stateMutability": "nonpayable",
      "type": "function"
    },
    {
      "inputs": [
        {
          "internalType": "string",
          "name": "_newEnterpriseName",
          "type": "string"
        },
        {
          "internalType": "string",
          "name": "_newEnterpriseId",
          "type": "string"
        },
        {
          "internalType": "address",
          "name": "_newEnterpriseAddress",
          "type": "address"
        }
      ],
      "name": "appendEnterprise",
      "outputs": [],
      "stateMutability": "nonpayable",
      "type": "function"
    },
    {
      "inputs": [
        {
          "internalType": "string",
          "name": "_storeId",
          "type": "string"
        }
      ],
      "name": "getStoreById",
      "outputs": [
        {
          "internalType": "address",
          "name": "sAddress",
          "type": "address"
        }
      ],
      "stateMutability": "view",
      "type": "function"
    },
    {
      "inputs": [
        {
          "internalType": "string",
          "name": "_enterpriseId",
          "type": "string"
        }
      ],
      "name": "getEnterpriseById",
      "outputs": [
        {
          "internalType": "address",
          "name": "eAddress",
          "type": "address"
        }
      ],
      "stateMutability": "view",
      "type": "function"
    },
    {
      "inputs": [],
      "name": "storesCount",
      "outputs": [
        {
          "internalType": "uint256",
          "name": "sc",
          "type": "uint256"
        }
      ],
      "stateMutability": "view",
      "type": "function"
    },
    {
      "inputs": [
        {
          "internalType": "uint256",
          "name": "index",
          "type": "uint256"
        }
      ],
      "name": "veryStore",
      "outputs": [
        {
          "components": [
            {
              "internalType": "string",
              "name": "storeName",
              "type": "string"
            },
            {
              "internalType": "string",
              "name": "storeId",
              "type": "string"
            },
            {
              "internalType": "address",
              "name": "storeAddress",
              "type": "address"
            }
          ],
          "internalType": "struct Roles.store",
          "name": "vs",
          "type": "tuple"
        }
      ],
      "stateMutability": "view",
      "type": "function"
    },
    {
      "inputs": [],
      "name": "enterpriseCount",
      "outputs": [
        {
          "internalType": "uint256",
          "name": "ec",
          "type": "uint256"
        }
      ],
      "stateMutability": "view",
      "type": "function"
    },
    {
      "inputs": [
        {
          "internalType": "uint256",
          "name": "index",
          "type": "uint256"
        }
      ],
      "name": "veryEnterprise",
      "outputs": [
        {
          "components": [
            {
              "internalType": "string",
              "name": "enterpriseName",
              "type": "string"
            },
            {
              "internalType": "string",
              "name": "enterpriseId",
              "type": "string"
            },
            {
              "internalType": "address",
              "name": "enterpriseAddress",
              "type": "address"
            }
          ],
          "internalType": "struct Roles.enterprise",
          "name": "ve",
          "type": "tuple"
        }
      ],
      "stateMutability": "view",
      "type": "function"
    },
    {
      "inputs": [
        {
          "internalType": "string",
          "name": "_enterpriseId",
          "type": "string"
        },
        {
          "internalType": "string",
          "name": "_newEnterpriseName",
          "type": "string"
        },
        {
          "internalType": "address",
          "name": "_newEnterpriseAddress",
          "type": "address"
        }
      ],
      "name": "updateEnterprise",
      "outputs": [
        {
          "internalType": "bool",
          "name": "success",
          "type": "bool"
        }
      ],
      "stateMutability": "nonpayable",
      "type": "function"
    },
    {
      "inputs": [
        {
          "internalType": "string",
          "name": "_storeId",
          "type": "string"
        },
        {
          "internalType": "string",
          "name": "_newStoreName",
          "type": "string"
        },
        {
          "internalType": "address",
          "name": "_newStoreAddress",
          "type": "address"
        }
      ],
      "name": "updateStore",
      "outputs": [
        {
          "internalType": "bool",
          "name": "success",
          "type": "bool"
        }
      ],
      "stateMutability": "nonpayable",
      "type": "function"
    },
    {
      "inputs": [
        {
          "internalType": "string",
          "name": "_enterpriseId",
          "type": "string"
        }
      ],
      "name": "deleteEnterprise",
      "outputs": [
        {
          "internalType": "bool",
          "name": "success",
          "type": "bool"
        }
      ],
      "stateMutability": "nonpayable",
      "type": "function"
    },
    {
      "inputs": [
        {
          "internalType": "string",
          "name": "_storeId",
          "type": "string"
        }
      ],
      "name": "deleteStore",
      "outputs": [
        {
          "internalType": "bool",
          "name": "success",
          "type": "bool"
        }
      ],
      "stateMutability": "nonpayable",
      "type": "function"
    },
    {
      "inputs": [
        {
          "internalType": "address",
          "name": "_newFeeAddress",
          "type": "address"
        }
      ],
      "name": "setFeeAddress",
      "outputs": [],
      "stateMutability": "nonpayable",
      "type": "function"
    },
    {
      "inputs": [
        {
          "internalType": "address",
          "name": "_newAdmin",
          "type": "address"
        }
      ],
      "name": "setAdmin",
      "outputs": [],
      "stateMutability": "nonpayable",
      "type": "function"
    }
  ],
  "bytecode": "0x608060405234801561001057600080fd5b50612541806100206000396000f3fe608060405234801561001057600080fd5b506004361061012c5760003560e01c8063916a8029116100ad578063b530a67111610071578063b530a67114610391578063c7f99260146103c1578063e8a59cd8146103f1578063fa9188d114610423578063fc6f94681461043f5761012c565b8063916a8029146102c55780639fbae286146102f5578063a221f3b214610327578063aa0cd2b814610357578063acd8799d146103755761012c565b806341275358116100f45780634127535814610221578063547c07f71461023f578063662cc7151461026f578063704b6c021461028d5780638705fcd4146102a95761012c565b80631318f45b146101315780631c9baf65146101615780632182a56214610191578063335499e5146101c15780633edd8ba2146101f1575b600080fd5b61014b60048036038101906101469190612069565b61045d565b60405161015891906122d0565b60405180910390f35b61017b60048036038101906101769190612028565b61067f565b60405161018891906122d0565b60405180910390f35b6101ab60048036038101906101a691906120e8565b610970565b6040516101b89190612352565b60405180910390f35b6101db60048036038101906101d691906120e8565b610b3f565b6040516101e89190612374565b60405180910390f35b61020b60048036038101906102069190612028565b610d0e565b60405161021891906122d0565b60405180910390f35b610229610fff565b60405161023691906122b5565b60405180910390f35b610259600480360381019061025491906120e8565b611025565b60405161026691906122b5565b60405180910390f35b610277611061565b6040516102849190612396565b60405180910390f35b6102a760048036038101906102a29190611fff565b61106e565b005b6102c360048036038101906102be9190611fff565b6110eb565b005b6102df60048036038101906102da9190612028565b6111c2565b6040516102ec91906122b5565b60405180910390f35b61030f600480360381019061030a91906120e8565b6112f7565b60405161031e9392919061230d565b60405180910390f35b610341600480360381019061033c91906120e8565b61147e565b60405161034e91906122b5565b60405180910390f35b61035f6114ba565b60405161036c9190612396565b60405180910390f35b61038f600480360381019061038a9190612069565b6114c7565b005b6103ab60048036038101906103a69190612028565b611685565b6040516103b891906122b5565b60405180910390f35b6103db60048036038101906103d69190612069565b6117ba565b6040516103e891906122d0565b60405180910390f35b61040b600480360381019061040691906120e8565b6119dc565b60405161041a9392919061230d565b60405180910390f35b61043d60048036038101906104389190612069565b611b63565b005b610447611d21565b60405161045491906122b5565b60405180910390f35b60008060009054906101000a900473ffffffffffffffffffffffffffffffffffffffff1673ffffffffffffffffffffffffffffffffffffffff163373ffffffffffffffffffffffffffffffffffffffff16146104b857600080fd5b60008090505b6005805490508110156106725761058b600582815481106104db57fe5b90600052602060002090600302016001018054600181600116156101000203166002900480601f0160208091040260200160405190810160405280929190818152602001828054600181600116156101000203166002900480156105805780601f1061055557610100808354040283529160200191610580565b820191906000526020600020905b81548152906001019060200180831161056357829003601f168201915b505050505086611d46565b1561066557826005828154811061059e57fe5b906000526020600020906003020160020160006101000a81548173ffffffffffffffffffffffffffffffffffffffff021916908373ffffffffffffffffffffffffffffffffffffffff16021790555083600582815481106105fb57fe5b9060005260206000209060030201600001908051906020019061061f929190611d9f565b507fe23e51bb20727e88bdefb30c89c017b3805dde81efc2e2073953eb78e58ea0418585856040516106539392919061230d565b60405180910390a16001915050610678565b80806001019150506104be565b50600090505b9392505050565b60008060009054906101000a900473ffffffffffffffffffffffffffffffffffffffff1673ffffffffffffffffffffffffffffffffffffffff163373ffffffffffffffffffffffffffffffffffffffff16146106da57600080fd5b60008090505b600580549050811015610965576107ad600582815481106106fd57fe5b90600052602060002090600302016001018054600181600116156101000203166002900480601f0160208091040260200160405190810160405280929190818152602001828054600181600116156101000203166002900480156107a25780601f10610777576101008083540402835291602001916107a2565b820191906000526020600020905b81548152906001019060200180831161078557829003601f168201915b505050505084611d46565b15610958576005600160058054905003815481106107c757fe5b9060005260206000209060030201600582815481106107e257fe5b906000526020600020906003020160008201816000019080546001816001161561010002031660029004610817929190611e1f565b506001820181600101908054600181600116156101000203166002900461083f929190611e1f565b506002820160009054906101000a900473ffffffffffffffffffffffffffffffffffffffff168160020160006101000a81548173ffffffffffffffffffffffffffffffffffffffff021916908373ffffffffffffffffffffffffffffffffffffffff1602179055509050506005600160058054905003815481106108bf57fe5b9060005260206000209060030201600080820160006108de9190611ea6565b6001820160006108ee9190611ea6565b6002820160006101000a81549073ffffffffffffffffffffffffffffffffffffffff021916905550507fb478ce3e3e5faf29ee108d51b58b8b76e87b8d3de5b008ea32992b9dd7fdaf8d8360405161094691906122eb565b60405180910390a1600191505061096b565b80806001019150506106e0565b50600090505b919050565b610978611eee565b6005828154811061098557fe5b9060005260206000209060030201604051806060016040529081600082018054600181600116156101000203166002900480601f016020809104026020016040519081016040528092919081815260200182805460018160011615610100020316600290048015610a375780601f10610a0c57610100808354040283529160200191610a37565b820191906000526020600020905b815481529060010190602001808311610a1a57829003601f168201915b50505050508152602001600182018054600181600116156101000203166002900480601f016020809104026020016040519081016040528092919081815260200182805460018160011615610100020316600290048015610ad95780601f10610aae57610100808354040283529160200191610ad9565b820191906000526020600020905b815481529060010190602001808311610abc57829003601f168201915b505050505081526020016002820160009054906101000a900473ffffffffffffffffffffffffffffffffffffffff1673ffffffffffffffffffffffffffffffffffffffff1673ffffffffffffffffffffffffffffffffffffffff16815250509050919050565b610b47611f25565b60048281548110610b5457fe5b9060005260206000209060030201604051806060016040529081600082018054600181600116156101000203166002900480601f016020809104026020016040519081016040528092919081815260200182805460018160011615610100020316600290048015610c065780601f10610bdb57610100808354040283529160200191610c06565b820191906000526020600020905b815481529060010190602001808311610be957829003601f168201915b50505050508152602001600182018054600181600116156101000203166002900480601f016020809104026020016040519081016040528092919081815260200182805460018160011615610100020316600290048015610ca85780601f10610c7d57610100808354040283529160200191610ca8565b820191906000526020600020905b815481529060010190602001808311610c8b57829003601f168201915b505050505081526020016002820160009054906101000a900473ffffffffffffffffffffffffffffffffffffffff1673ffffffffffffffffffffffffffffffffffffffff1673ffffffffffffffffffffffffffffffffffffffff16815250509050919050565b60008060009054906101000a900473ffffffffffffffffffffffffffffffffffffffff1673ffffffffffffffffffffffffffffffffffffffff163373ffffffffffffffffffffffffffffffffffffffff1614610d6957600080fd5b60008090505b600480549050811015610ff457610e3c60048281548110610d8c57fe5b90600052602060002090600302016001018054600181600116156101000203166002900480601f016020809104026020016040519081016040528092919081815260200182805460018160011615610100020316600290048015610e315780601f10610e0657610100808354040283529160200191610e31565b820191906000526020600020905b815481529060010190602001808311610e1457829003601f168201915b505050505084611d46565b15610fe757600460016004805490500381548110610e5657fe5b906000526020600020906003020160048281548110610e7157fe5b906000526020600020906003020160008201816000019080546001816001161561010002031660029004610ea6929190611e1f565b5060018201816001019080546001816001161561010002031660029004610ece929190611e1f565b506002820160009054906101000a900473ffffffffffffffffffffffffffffffffffffffff168160020160006101000a81548173ffffffffffffffffffffffffffffffffffffffff021916908373ffffffffffffffffffffffffffffffffffffffff160217905550905050600460016004805490500381548110610f4e57fe5b906000526020600020906003020160008082016000610f6d9190611ea6565b600182016000610f7d9190611ea6565b6002820160006101000a81549073ffffffffffffffffffffffffffffffffffffffff021916905550507fc9c20932f810729419e6b7360018de88c2a500f4d04fd389f76035588c36c5a383604051610fd591906122eb565b60405180910390a16001915050610ffa565b8080600101915050610d6f565b50600090505b919050565b600160009054906101000a900473ffffffffffffffffffffffffffffffffffffffff1681565b6003818154811061103257fe5b906000526020600020016000915054906101000a900473ffffffffffffffffffffffffffffffffffffffff1681565b6000600580549050905090565b600073ffffffffffffffffffffffffffffffffffffffff168173ffffffffffffffffffffffffffffffffffffffff1614156110a857600080fd5b806000806101000a81548173ffffffffffffffffffffffffffffffffffffffff021916908373ffffffffffffffffffffffffffffffffffffffff16021790555050565b6000809054906101000a900473ffffffffffffffffffffffffffffffffffffffff1673ffffffffffffffffffffffffffffffffffffffff163373ffffffffffffffffffffffffffffffffffffffff161461114457600080fd5b600073ffffffffffffffffffffffffffffffffffffffff168173ffffffffffffffffffffffffffffffffffffffff16141561117e57600080fd5b80600160006101000a81548173ffffffffffffffffffffffffffffffffffffffff021916908373ffffffffffffffffffffffffffffffffffffffff16021790555050565b600080600090505b6004805490508110156112f057611297600482815481106111e757fe5b90600052602060002090600302016001018054600181600116156101000203166002900480601f01602080910402602001604051908101604052809291908181526020018280546001816001161561010002031660029004801561128c5780601f106112615761010080835404028352916020019161128c565b820191906000526020600020905b81548152906001019060200180831161126f57829003601f168201915b505050505084611d46565b156112e357600481815481106112a957fe5b906000526020600020906003020160020160009054906101000a900473ffffffffffffffffffffffffffffffffffffffff169150506112f2565b80806001019150506111ca565b505b919050565b6005818154811061130457fe5b9060005260206000209060030201600091509050806000018054600181600116156101000203166002900480601f0160208091040260200160405190810160405280929190818152602001828054600181600116156101000203166002900480156113b05780601f10611385576101008083540402835291602001916113b0565b820191906000526020600020905b81548152906001019060200180831161139357829003601f168201915b505050505090806001018054600181600116156101000203166002900480601f01602080910402602001604051908101604052809291908181526020018280546001816001161561010002031660029004801561144e5780601f106114235761010080835404028352916020019161144e565b820191906000526020600020905b81548152906001019060200180831161143157829003601f168201915b5050505050908060020160009054906101000a900473ffffffffffffffffffffffffffffffffffffffff16905083565b6002818154811061148b57fe5b906000526020600020016000915054906101000a900473ffffffffffffffffffffffffffffffffffffffff1681565b6000600480549050905090565b6000809054906101000a900473ffffffffffffffffffffffffffffffffffffffff1673ffffffffffffffffffffffffffffffffffffffff163373ffffffffffffffffffffffffffffffffffffffff161461152057600080fd5b600073ffffffffffffffffffffffffffffffffffffffff168173ffffffffffffffffffffffffffffffffffffffff16141561155a57600080fd5b611562611eee565b60405180606001604052808581526020018481526020018373ffffffffffffffffffffffffffffffffffffffff168152509050600581908060018154018082558091505060019003906000526020600020906003020160009091909190915060008201518160000190805190602001906115dd929190611d9f565b5060208201518160010190805190602001906115fa929190611d9f565b5060408201518160020160006101000a81548173ffffffffffffffffffffffffffffffffffffffff021916908373ffffffffffffffffffffffffffffffffffffffff16021790555050507f76e630c36dc7ee889d3627230758dd10de8b99036cdf45c645c38716ce9535df8484846040516116779392919061230d565b60405180910390a150505050565b600080600090505b6005805490508110156117b35761175a600582815481106116aa57fe5b90600052602060002090600302016001018054600181600116156101000203166002900480601f01602080910402602001604051908101604052809291908181526020018280546001816001161561010002031660029004801561174f5780601f106117245761010080835404028352916020019161174f565b820191906000526020600020905b81548152906001019060200180831161173257829003601f168201915b505050505084611d46565b156117a6576005818154811061176c57fe5b906000526020600020906003020160020160009054906101000a900473ffffffffffffffffffffffffffffffffffffffff169150506117b5565b808060010191505061168d565b505b919050565b60008060009054906101000a900473ffffffffffffffffffffffffffffffffffffffff1673ffffffffffffffffffffffffffffffffffffffff163373ffffffffffffffffffffffffffffffffffffffff161461181557600080fd5b60008090505b6004805490508110156119cf576118e86004828154811061183857fe5b90600052602060002090600302016001018054600181600116156101000203166002900480601f0160208091040260200160405190810160405280929190818152602001828054600181600116156101000203166002900480156118dd5780601f106118b2576101008083540402835291602001916118dd565b820191906000526020600020905b8154815290600101906020018083116118c057829003601f168201915b505050505086611d46565b156119c25782600482815481106118fb57fe5b906000526020600020906003020160020160006101000a81548173ffffffffffffffffffffffffffffffffffffffff021916908373ffffffffffffffffffffffffffffffffffffffff160217905550836004828154811061195857fe5b9060005260206000209060030201600001908051906020019061197c929190611d9f565b507f82cfdc55b540392d84a5e3fece48cf94bbcb2a5ac40a0ec26fd710bc198fa1b08585856040516119b09392919061230d565b60405180910390a160019150506119d5565b808060010191505061181b565b50600090505b9392505050565b600481815481106119e957fe5b9060005260206000209060030201600091509050806000018054600181600116156101000203166002900480601f016020809104026020016040519081016040528092919081815260200182805460018160011615610100020316600290048015611a955780601f10611a6a57610100808354040283529160200191611a95565b820191906000526020600020905b815481529060010190602001808311611a7857829003601f168201915b505050505090806001018054600181600116156101000203166002900480601f016020809104026020016040519081016040528092919081815260200182805460018160011615610100020316600290048015611b335780601f10611b0857610100808354040283529160200191611b33565b820191906000526020600020905b815481529060010190602001808311611b1657829003601f168201915b5050505050908060020160009054906101000a900473ffffffffffffffffffffffffffffffffffffffff16905083565b6000809054906101000a900473ffffffffffffffffffffffffffffffffffffffff1673ffffffffffffffffffffffffffffffffffffffff163373ffffffffffffffffffffffffffffffffffffffff1614611bbc57600080fd5b600073ffffffffffffffffffffffffffffffffffffffff168173ffffffffffffffffffffffffffffffffffffffff161415611bf657600080fd5b611bfe611f25565b60405180606001604052808581526020018481526020018373ffffffffffffffffffffffffffffffffffffffff16815250905060048190806001815401808255809150506001900390600052602060002090600302016000909190919091506000820151816000019080519060200190611c79929190611d9f565b506020820151816001019080519060200190611c96929190611d9f565b5060408201518160020160006101000a81548173ffffffffffffffffffffffffffffffffffffffff021916908373ffffffffffffffffffffffffffffffffffffffff16021790555050507f6fbd3a99554a60b36b9b2f038f9b80d8d37e9b32806986f43896911e1947bf10848484604051611d139392919061230d565b60405180910390a150505050565b6000809054906101000a900473ffffffffffffffffffffffffffffffffffffffff1681565b600081604051602001611d59919061229e565b6040516020818303038152906040528051906020012083604051602001611d80919061229e565b6040516020818303038152906040528051906020012014905092915050565b828054600181600116156101000203166002900490600052602060002090601f016020900481019282601f10611de057805160ff1916838001178555611e0e565b82800160010185558215611e0e579182015b82811115611e0d578251825591602001919060010190611df2565b5b509050611e1b9190611f5c565b5090565b828054600181600116156101000203166002900490600052602060002090601f016020900481019282601f10611e585780548555611e95565b82800160010185558215611e9557600052602060002091601f016020900482015b82811115611e94578254825591600101919060010190611e79565b5b509050611ea29190611f5c565b5090565b50805460018160011615610100020316600290046000825580601f10611ecc5750611eeb565b601f016020900490600052602060002090810190611eea9190611f5c565b5b50565b60405180606001604052806060815260200160608152602001600073ffffffffffffffffffffffffffffffffffffffff1681525090565b60405180606001604052806060815260200160608152602001600073ffffffffffffffffffffffffffffffffffffffff1681525090565b611f7e91905b80821115611f7a576000816000905550600101611f62565b5090565b90565b600081359050611f90816124dd565b92915050565b600082601f830112611fa757600080fd5b8135611fba611fb5826123de565b6123b1565b91508082526020830160208301858383011115611fd657600080fd5b611fe183828461248a565b50505092915050565b600081359050611ff9816124f4565b92915050565b60006020828403121561201157600080fd5b600061201f84828501611f81565b91505092915050565b60006020828403121561203a57600080fd5b600082013567ffffffffffffffff81111561205457600080fd5b61206084828501611f96565b91505092915050565b60008060006060848603121561207e57600080fd5b600084013567ffffffffffffffff81111561209857600080fd5b6120a486828701611f96565b935050602084013567ffffffffffffffff8111156120c157600080fd5b6120cd86828701611f96565b92505060406120de86828701611f81565b9150509250925092565b6000602082840312156120fa57600080fd5b600061210884828501611fea565b91505092915050565b61211a81612442565b82525050565b61212981612442565b82525050565b61213881612454565b82525050565b60006121498261240a565b6121538185612415565b9350612163818560208601612499565b61216c816124cc565b840191505092915050565b60006121828261240a565b61218c8185612426565b935061219c818560208601612499565b6121a5816124cc565b840191505092915050565b60006121bb8261240a565b6121c58185612437565b93506121d5818560208601612499565b80840191505092915050565b600060608301600083015184820360008601526121fe828261213e565b91505060208301518482036020860152612218828261213e565b915050604083015161222d6040860182612111565b508091505092915050565b60006060830160008301518482036000860152612255828261213e565b9150506020830151848203602086015261226f828261213e565b91505060408301516122846040860182612111565b508091505092915050565b61229881612480565b82525050565b60006122aa82846121b0565b915081905092915050565b60006020820190506122ca6000830184612120565b92915050565b60006020820190506122e5600083018461212f565b92915050565b600060208201905081810360008301526123058184612177565b905092915050565b600060608201905081810360008301526123278186612177565b9050818103602083015261233b8185612177565b905061234a6040830184612120565b949350505050565b6000602082019050818103600083015261236c81846121e1565b905092915050565b6000602082019050818103600083015261238e8184612238565b905092915050565b60006020820190506123ab600083018461228f565b92915050565b6000604051905081810181811067ffffffffffffffff821117156123d457600080fd5b8060405250919050565b600067ffffffffffffffff8211156123f557600080fd5b601f19601f8301169050602081019050919050565b600081519050919050565b600082825260208201905092915050565b600082825260208201905092915050565b600081905092915050565b600061244d82612460565b9050919050565b60008115159050919050565b600073ffffffffffffffffffffffffffffffffffffffff82169050919050565b6000819050919050565b82818337600083830152505050565b60005b838110156124b757808201518184015260208101905061249c565b838111156124c6576000848401525b50505050565b6000601f19601f8301169050919050565b6124e681612442565b81146124f157600080fd5b50565b6124fd81612480565b811461250857600080fd5b5056fea2646970667358221220a4f35c0841745ef643dd4d153c7bed3230576446619ac5513dd3626aade954d664736f6c634300060a0033",
  "immutableReferences": {},
  "source": "// SPDX-License-Identifier: MIT\npragma solidity ^0.6.10;\npragma experimental ABIEncoderV2;\n\ncontract Roles {\n\n    /// @dev Emited when contract is upgraded - See README.md for updgrade plan\n    event ContractUpgrade(address newContract);\n    // The addresses of the accounts (or contracts) that can execute actions within each roles.\n    address public adminAddress;\n    address public feeAddress;\n    address[] public storeAddress;\n    address[] public enterpriseAddress;\n    \n    event StoreEvent(string storeName , string storeId, address storeAddress);\n    event EnterpriseEvent(string enterpriseName , string enterpriseId, address enterpriseAddress);\n    event EnterpriseUpdated(string enterpriseId , string enterpriseName,address enterpriseAddress);\n    event StoreUpdated(string storeId , string storeName,address storeAddress);\n    event EnterpriseDelete(string enterpriseId);\n    event StoreDelete(string storeId);\n\n\n    \n    struct store{\n      string storeName;\n      string storeId;\n      address storeAddress;\n    }\n    \n    struct enterprise{\n      string enterpriseName;\n      string enterpriseId;\n      address enterpriseAddress;\n    }\n    \n   store[] public stores; \n   enterprise[] public enterprises;\n   \n    function appendStore(string memory _newStoreName, string memory _newStoreId ,address _newStoreAddress) onlyAdmin external{\n        require(_newStoreAddress != address(0));\n        store memory newStore = store(_newStoreName , _newStoreId, _newStoreAddress);\n        stores.push(newStore);\n        //emit event\n        emit StoreEvent (_newStoreName, _newStoreId, _newStoreAddress);\n    }\n    \n    function appendEnterprise (string memory _newEnterpriseName, string memory _newEnterpriseId ,address  _newEnterpriseAddress ) onlyAdmin external {\n        require(_newEnterpriseAddress != address(0));\n        enterprise memory newEnterprise = enterprise(_newEnterpriseName , _newEnterpriseId, _newEnterpriseAddress);\n        enterprises.push(newEnterprise);\n        //emit event\n        emit EnterpriseEvent (_newEnterpriseName, _newEnterpriseId, _newEnterpriseAddress);\n    }\n    \n    \n    function getStoreById(string memory _storeId) public view returns (address sAddress) {\n         for(uint256 i =0; i< stores.length; i++){\n           if(compareStrings(stores[i].storeId , _storeId)){\n              return stores[i].storeAddress;\n           }\n       }\n    }\n    \n    function getEnterpriseById(string memory  _enterpriseId) public view returns (address eAddress) {\n        for(uint256 i =0; i< enterprises.length; i++){\n           if(compareStrings(enterprises[i].enterpriseId , _enterpriseId)){\n              return enterprises[i].enterpriseAddress;\n           }\n       }\n    }\n    \n    \n    function storesCount() public view returns (uint256 sc){\n        return stores.length;\n    }\n    \n    function veryStore(uint index) public view returns (store memory vs){\n        return stores[index];\n    }  \n\n    function enterpriseCount() public view returns (uint256 ec){\n        return enterprises.length;\n    }\n    \n    function veryEnterprise(uint index) public view returns (enterprise memory ve){\n        return enterprises[index];\n    }  \n    \n    function updateEnterprise(string memory _enterpriseId, string memory _newEnterpriseName ,address  _newEnterpriseAddress ) onlyAdmin external returns (bool success){\n       //This has a problem we need loop\n       for(uint256 i =0; i< enterprises.length; i++){\n           if(compareStrings(enterprises[i].enterpriseId , _enterpriseId)){\n              enterprises[i].enterpriseAddress = _newEnterpriseAddress;\n              enterprises[i].enterpriseName = _newEnterpriseName;\n              emit EnterpriseUpdated(_enterpriseId,_newEnterpriseName,_newEnterpriseAddress);\n              return true;\n           }\n       }\n       return false;\n    }\n    \n    function updateStore(string memory _storeId, string memory _newStoreName ,address  _newStoreAddress ) onlyAdmin external returns (bool success){\n       //This has a problem we need loop\n       for(uint256 i =0; i< stores.length; i++){\n           if(compareStrings(stores[i].storeId , _storeId)){\n              stores[i].storeAddress = _newStoreAddress;\n              stores[i].storeName = _newStoreName;\n              emit StoreUpdated(_storeId,_newStoreName,_newStoreAddress);\n              return true;\n           }\n       }\n       return false;\n    }\n    \n    \n    function deleteEnterprise(string memory _enterpriseId) onlyAdmin external returns(bool success){\n        for(uint256 i =0; i< enterprises.length; i++){\n           if(compareStrings(enterprises[i].enterpriseId , _enterpriseId)){\n              enterprises[i] = enterprises[enterprises.length-1]; // pushing last into current arrray index which we gonna delete\n              delete enterprises[enterprises.length-1]; // now deleteing last index\n              emit EnterpriseDelete(_enterpriseId);\n              return true;\n           }\n       }\n       return false;\n   }\n   \n    \n    function deleteStore(string memory _storeId) onlyAdmin external returns(bool success){\n        for(uint256 i =0; i< stores.length; i++){\n           if(compareStrings(stores[i].storeId , _storeId)){\n              stores[i] = stores[stores.length-1]; // pushing last into current arrray index which we gonna delete\n              delete stores[stores.length-1]; // now deleteing last index\n              emit StoreDelete(_storeId);\n              return true;\n           }\n       }\n       return false;\n   }\n   \n    \n    function compareStrings (string memory a, string memory b) internal pure returns (bool){\n       return keccak256(abi.encodePacked(a)) == keccak256(abi.encodePacked(b));\n    }\n   \n    function setFeeAddress(address _newFeeAddress) onlyAdmin external{\n        require(_newFeeAddress != address(0));\n        feeAddress = _newFeeAddress;\n    }\n    \n    function setAdmin(address _newAdmin) external {\n        require(_newAdmin != address(0));\n        adminAddress = _newAdmin;\n    }\n    \n \n    modifier onlyAdmin() {\n        require(msg.sender == adminAddress);\n        _;\n    }\n\n}\n",
  "sourcePath": "/Users/lu/Desktop/ningbojj/JJToken/contracts/access/Roles.sol",
  "compiler": {
    "name": "solc",
    "version": "0.6.10+commit.00c0fcaf.Emscripten.clang"
  },
  "schemaVersion": "3.2.3",
  "updatedAt": "2020-08-20T12:45:46.945Z",
  "devdoc": {
    "methods": {}
  },
  "userdoc": {
    "methods": {}
  }
}